:020000040800F2
:1000000098DD01205D020008A19400081F4000084F
:100010009D940008290800085DA200080000000067
:100020000000000000000000000000009D0100082A
:100030002D08000800000000F9010008BD94000828
:1000400077020008770200087702000877020008AC
:10005000770200087702000877020008770200089C
:10006000770200087702000877020008770200088C
:10007000770200087702000877020008770200087C
:10008000770200087702000877020008770200086C
:10009000770200087702000877020008770200085C
:1000A000770200087702000877020008770200084C
:1000B0000996000877020008770200087702000816
:1000C000770200087702000877020008770200082C
:1000D000770200087702000877020008770200081C
:1000E000770200087702000877020008770200080C
:1000F00077020008770200087702000877020008FC
:1001000077020008770200087702000877020008EB
:1001100077020008770200087702000877020008DB
:1001200077020008770200087702000877020008CB
:1001300077020008770200087702000877020008BB
:1001400077020008770200087702000877020008AB
:10015000770200087702000877020008770200089B
:10016000770200087702000877020008770200088B
:1001700077020008770200087702000800000000FC
:100180007702000877020008DFF80CD000F08CFA44
:1001900000480047FD08010898DD01202C4B196834
:1001A0000868B0E8F04F80F30988BFF36F8F4FF015
:1001B000000080F3118870470000000008480068C4
:1001C000006880F308884FF0000080F3148862B65E
:1001D00061B6BFF34F8FBFF36F8F00DF00BF00BF6B
:1001E00008ED00E0DFF80C00016841F470010160E7
:1001F000704700BF88ED00E0EFF30980BFF36F8F19
:10020000134B1A681EF0100F08BF20ED108A20E96A
:10021000F04F106009B44FF0500080F31188BFF325
:100220004F8FBFF36F8F11F0C1F94FF0000080F3D3
:10023000118809BC19680868B0E8F04F1EF0100F6B
:1002400008BFB0EC108A80F30988BFF36F8F704746
:1002500070000020EFF305807047000006488047DB
:1002600006480047FEE7FEE7FEE7FEE7FEE7FEE79B
:10027000FEE7FEE7FEE7FEE7A59500088901000816
:100280002DE9F05F0546002092469B4688460646CB
:10029000814640241BE0284641464746224600F05E
:1002A00044F953465A46C01A914110D31146184694
:1002B000224600F02BF92D1A67EB01084F46224623
:1002C0000120002100F022F917EB00094E41201E09
:1002D000A4F10104DFDC484631462A464346BDE826
:1002E000F09F10B5441A0346944209D28418114471
:1002F00003E011F8013D04F8013D521EF9D210BD92
:1003000040EA0104A40703D009E010C9121F10C37A
:10031000042AFAD203E011F8014B03F8014B521EF4
:10032000F9D210BDD2B201E000F8012B491EFBD278
:1003300070470022F6E710B513460A4604461946F0
:10034000FFF7F0FF204610BD421C10F8011B0029EA
:10035000FBD1801A70472DE9FE4F81EA030404F0B7
:10036000004421F0004100944FF0000B23F00043C3
:1003700050EA01045ED052EA03045BD0C3F30A548E
:10038000C1F30A552C44A4F2F3340194A0FB0254A7
:10039000C1F3130141F48011C3F3130343F4801339
:1003A00001FB024400FB034E840A970A44EA81548D
:1003B00047EA8357A4FB076802958D0A05FB07856A
:1003C0004FEA932C04FB0C542705029D4FEA065874
:1003D00047EA1637B5EB08056EEB070C870E920E51
:1003E00047EA811742EA8312A7FB0201B6EB0B0131
:1003F00064EB00042B0D43EA0C335E1844EB1C50F5
:10040000DA465146E7FB0201C5F313044FEA0B330A
:1004100043EA14534FEA0432019C43EA0603A4F171
:100420000C040294009CCDE900B400F09DF803B0E8
:10043000BDE8F08F00200146F9E70EB540F23341E8
:1004400002910021CDE900110A460B4600F08CF81C
:1004500003B000BDC1F30A5210B5C1F3130140F25D
:10046000FF3341F480119A4201DA002010BD40F2BE
:1004700033439A42A2F2334203DC524200F055F871
:1004800010BD904010BD00F0004230F000400AD096
:10049000C10D01F56071C0F3160042EA0151C208B6
:1004A00040071143704700200146704730B5041ED5
:1004B00071F1000404DB4FF00044404264EB0101A1
:1004C000141E73F1000405DB1C464FF0004352423A
:1004D00063EB04038B4208BF824230BD30B5041E7B
:1004E00071F1000404DB4FF00044404264EB010171
:1004F000141E73F1000405DB1C464FF0004352420A
:1005000063EB0403994208BF904230BD202A04DB0C
:10051000203A00FA02F1002070479140C2F1200316
:1005200020FA03F3194390407047202A04DB203A55
:1005300021FA02F00021704721FA02F3D040C2F103
:100540002002914008431946704710B5141E73F1FC
:10055000000408DA401C41F1000192185B411A4383
:1005600001D120F0010010BD2DE9F04D92469B46CF
:1005700011B1B1FA81F202E0B0FA80F22032904675
:10058000FFF7C4FF04460F4640EA0A0041EA0B01A8
:1005900053465A46084313D0114653EA010019D076
:1005A000C8F140025046FFF7C0FF05460E465046D0
:1005B00059464246FFF7AAFF084305D0012004E050
:1005C00020463946BDE8F08D0020054346EAE07636
:1005D0002C4337430A986305E40AA0EB0800002285
:1005E000FD0A44EA47540A3002D500200146E9E7F3
:1005F000010510196941DDE9084500196941BDE8A7
:10060000F04DA2E72DE9F04D00231A461B1A8A414E
:1006100003DB00200146BDE8F08DC1F30A52C1F3AF
:10062000130141F480154FF0000BD10702D10018DF
:100630006D41521E0027044640F2FF11384601EB7F
:10064000620A3E468046024600204FF48011FFF7C2
:100650006CFFC2197141BB1846EB0100B4EB030CEF
:1006600075EB000C04D3E41A65EB000517460E4643
:10067000241908F101006D4180463428E3DDF919A1
:1006800046EB0600091BA84103D24FF0FF32134688
:1006900001E0002213461BEB070046EB0A51BDE8C0
:1006A000F04DFFF752BF0000064C074D06E0E06832
:1006B00040F0010394E8070098471034AC42F6D3A9
:1006C000FFF766FD5C3C01087C3C010870B58C18A6
:1006D00010F8015B15F0070301D110F8013B2A1156
:1006E00006D110F8012B03E010F8016B01F8016B43
:1006F0005B1EF9D12B0705D40023521E0DD401F83F
:10070000013BFAE710F8013BCB1A921C03E013F807
:10071000015B01F8015B521EF9D5A142D8D300203C
:1007200070BD10B503F0A6FC10BD2DE9F0410746E1
:100730000C460026002509E036023919491B491EDE
:1007400088B200F008F80644681CC5B2A542F3DB85
:100750003046BDE8F08170B50446002603F028FD60
:100760002546E11704EB11610912A02202EB4101B9
:10077000C8B203F0E9FC03F065FDE11704EB116179
:100780000912A4EB0121C8B203F0DEFC03F05AFD0C
:1007900003F00EFDA12003F0D7FC03F053FD002071
:1007A00003F09CFC064603F029FD304670BD2DE9A0
:1007B000F04105460E461746002409E0E20026FAFD
:1007C00002F2D1B22A1990B200F006F8601CC4B24D
:1007D000BC42F3DBBDE8F08170B504460E4603F081
:1007E000E7FC2546E11704EB11610912A02202EB98
:1007F0004101C8B203F0A8FC03F024FDE11704EBAB
:1008000011610912A4EB0121C8B203F09DFC03F0B1
:1008100019FD304603F098FC03F014FD03F0EEFCE4
:100820000A2002F0CBFC70BD00BFFEE770477047A6
:1008300070B504461D460023B5F5804F13D154F81A
:1008400022300C480340D1E9000640EA06108E68C9
:1008500040EA06208E8940EA06408E693043034311
:1008600044F8223003E06FF0704044F8220000208A
:1008700070BD00000000F0CF10B5034600220868EC
:1008800053F8202012480240D1E901042043CC68EB
:1008900020430C6920434C6920438C692043CC6978
:1008A00020430C6A20434C6A20438C6A2043CC6A64
:1008B0002043CC6B20430C6B2043024388680828FC
:1008C00001D142F04002086843F82020002010BD0A
:1008D0008000F0FF30B503460024501C53F8204040
:1008E00004F04044D1E9000540EA05108D6840EA73
:1008F00005208D8940EA0545088A401E45EA0055D5
:10090000087D801E45EA00608D6928430443501C21
:1009100043F82040002030BD2DE9F0430446C5686F
:1009200087B090468946002001F056FA064625B168
:10093000287910B146F0020001E026F0020001F033
:100940004BFA2069012558B1D4E902128DE826003E
:10095000039563882288046841464846A0471EE004
:10096000124F134B214638681B68427CE068984759
:1009700030B9E088012801D0002001E03868806BA0
:10098000A288E388A1680095CDE90410CDE9023280
:100990000195638822884146484607F00FF907B061
:1009A0003046BDE8F04301F017BA0000E400002033
:1009B000D40000200E4810B5006801F0F7F90D488A
:1009C000006801F0FEF9012001F050FA002001F06A
:1009D0005BFA002001F068FA002001F0FDF90648FA
:1009E000006801F005FABDE81040002001F010BADF
:1009F000E0000020DC000020D80000202DE9F04FAE
:100A0000DFF828B191B04FF0FF35DBF80030B3F9D3
:100A100022100691DE69B3F92490F469A18981421C
:100A200006D8E289824203D3471AD4F8008012E044
:100A3000D4E9018100296FD00A8882426CD84D88A0
:100A4000854269D3801A82B2486800EB8200B0F90F
:100A50000070B0F90250781C5ED0307EA17C10FB93
:100A600001FA217CCDE90701B3F92A60304608F08C
:100A700097F9C0B20E90DBF8000007FB0A81A37C57
:100A8000826B0127CDE90412CDE90273C069089A8F
:100A9000C17E807ECDE90001DDE90603494607F00D
:100AA0008DF8681C18D046F0020008F079F9DBF8E0
:100AB0000000A37C05FB0A81826BCDE90273CDE9BE
:100AC0000412C069089AC17E807ECDE90001DDE98B
:100AD0000603494607F072F8DBF800005D46C0697E
:100AE000417E007E814214D9022E12D086F004008D
:100AF00008F056F92868C069027EC37E12FB039194
:100B0000437E857E089A06984B4412FB050207F047
:100B100089FB0E9808F044F9DBF80000627C418CF8
:100B20001144418411B0BDE8F08F0000E4000020C2
:100B300004480068C069C06909B1027C0A60407C51
:100B400070470000E4000020022008807047C06960
:100B500082898A4202D8C2898A4210D2806880B1D2
:100B600002888A420DD843888B420AD3406800EB42
:100B70008100A0EB8200B0F90000002801DB012019
:100B800070470020704700002DE9F0410025154E08
:100B9000154C18E02069C5EB051700EBC700702263
:100BA000001D3168FFF79DFB2069002140F83710D8
:100BB00000EBC70000F10C018161011D0A1DC0E9B5
:100BC0000F126D1C4164A0688542E3DB0CF064FFEA
:100BD0002169C0EB001001EBC000001D3060BDE8D2
:100BE000F0810000E4000020BC01002070B5104935
:100BF0000E480860084602F08FFA0D4C143CA068BD
:100C0000C0EB0010C500284600F06CF8094B2061CD
:100C10002A461B68002198474FF0FF30206001F002
:100C20009BFDBDE870400CF037BF000011E10008EB
:100C3000D0010020A401002010B5040009D000F06C
:100C400067FB20460AF0D2FB044601F05FFD204618
:100C500010BD002010BD000038B5054600F058FB5F
:100C60002846FFF7E9FF04000AD000F0BBF8064B66
:100C700000902A461B6800219847684600F0F0F86B
:100C800001F044FD204638BDA4010020024A106056
:100C900021F0030050607047A8D3012010B5040074
:100CA00011D000F035FB0848042101EBC401406B72
:100CB000415848680AF052FB20460DF05DFBBDE844
:100CC000104001F023BD10BDE8D20120002805D05E
:100CD000034AD16B016001B14860D06370470000E6
:100CE000E8D201202DE9F04104460CF0C9FF284864
:100CF000E41C24F00305016C2D1DA94200D90D460A
:100D0000C46B13E054F8042CAA420ED184B12168BC
:100D100009B162684A60616809B122680A60C26B01
:100D2000A24231D12168C1632EE02468002CE9D1B0
:100D30008046816BC0680F1857F8040C3E1A306863
:100D400038B100200EF0F8FD57F8040C3E1A306858
:100D5000D0B97068A84217DB3044441B3046241DCC
:100D60000EF0A2FDD8F80C10491BC8F80C10D8F8EA
:100D700014102944C8F814107068401B02D0314682
:100D80000AF0ECFA44F8045C2046BDE8F08100006B
:100D9000E8D2012010B500240CF072FF0C490F209E
:100DA00001EBC002526C1AB101EBC000406C08E0CC
:100DB000401EF5D508E04168A14200D90C46806884
:100DC00010B180680028F6D1A4F10C0010BD00001D
:100DD000E8D2012002488169491C81617047000006
:100DE000E8D201200549CA69521CCA61496B01EB6E
:100DF000C0010A78521C0A7000F04AB8E8D20120FB
:100E000010B500F085FAFFF7C5FF64220849B0F578
:100E1000800F04D990FBF2F4086A444303E0096AA6
:100E20004143B1FBF2F401F071FC204610BD00001B
:100E3000E8D201200549102805D94A68B0EB520FC5
:100E400002D3500800E0102088607047A8D301202A
:100E500002488169491E816170470000E8D2012083
:100E60000A4902684B6B52F8082C03EBC202137854
:100E7000022B03D3CB690BB15B1ECB611178491EEA
:100E8000117000210160084670470000E8D201207F
:100E90000349042202EBC000496B08580830704730
:100EA000E8D2012050F8080C704710B5C2B2CBB29E
:100EB000D21A00D5524293B25B43C0F30722C1F36A
:100EC0000724121B00D55242000C92B2A0EB114035
:100ED00002FB023200B2002801DA404200B280B2C6
:100EE00000FB002010BD10B50021084600F0B6F947
:100EF00043F6FF725042BDE810401346014600F031
:100F000001B800002DE9FC411C4615460E46074677
:100F100000F0FEF9042007F043FF804612484069C4
:100F2000C16C006D0F4406440D440444ADF80070DC
:100F3000ADF80450ADF80260ADF80640684609F01F
:100F4000B1FE07E023462A463146384607F06AF9E3
:100F500009F06AFE0028F5D1404607F021FF01F0B4
:100F6000D5FBBDE8FC810000D00000202DE9F04158
:100F70001C4616460D460746022B02DB0020BDE844
:100F8000F0811C20FFF7AEFE0028F8D00DB10561FE
:100F90000AE0094A52F8241009B905E011460A6826
:100FA000002AFBD109690161846186820021016008
:100FB0004160C0E90217E2E71001002070B51D464C
:100FC000FFF7D4FF040009D000F00EF8E0680068D5
:100FD00020B90348006800EB85008465204670BD99
:100FE000E4000020FFF772BE70B5C0B38269022A28
:100FF00036DA2149531C0C789C4200DA0B701F4CE6
:1010000054F8221019B944F8220032E019464B680E
:10101000002BFBD106E0CB68C5681B682D68AB428E
:1010200003DD09680029F6D11AE0C1B1CB68C668B2
:101030001B683668B3420CD1838A012B05D008E0C7
:101040001946DB681B68AB4203DB0B68002BF7D14A
:1010500029B14B6833B118604A68426004E0FFE789
:10106000012070BD44F822004860884200D1002170
:101070000160002070BD00002E0100201001002042
:1010800010B503E00468FFF7AFFF20460028F9D150
:1010900010BD000010B50C4B8269002153F82240AE
:1010A000844205D1046843F82240026802B15160CD
:1010B00042680AB10368136002680AB1436853606A
:1010C0000160416010BD0000100100200020704749
:1010D000022801DB00207047054951F8200004E098
:1010E000C16809680029F6D000680028F8D1704767
:1010F000100100202DE9F041044601F028FB0619FB
:10110000164F1FE000F05AF83868844200DD0446AC
:10111000A04600F0FDF812480568FFF75BFE2C00C2
:1011200017D000BF01F0F2FA641EFBD1404601F077
:1011300003FB1DB100F0ECF86D1EFBD1FFF788FE3C
:1011400001F0E4FA01F003FB341A002CDADCBDE80C
:10115000F081404601F0F0FAF0E700005C01002069
:10116000C80100207CB514460D46064600F0D0F8B4
:1011700011480068C16C006D0D4404443188681E3C
:101180000844ADF80400ADF800507188601E0844B2
:10119000ADF80600ADF80240684609F083FD06E0B0
:1011A000224629463046FFF7B7FB09F03DFD0028EF
:1011B000F6D101F0ABFA7CBDE400002010B50024AC
:1011C00000E0012400F004F80028FAD1204610BD08
:1011D0000B4810B50068002410B1804700B101240D
:1011E00009F0F2F900B101240648006810B1804707
:1011F00000B101240448006800B18047204610BDBA
:10120000F00000201C01002018010020034951F8C3
:101210002000C1688A6A08211047000010010020E0
:1012200070B50C46054600F073F82146284601F0DB
:101230004FFEBDE8704001F069BA0000024951F864
:10124000200000690068704710010020024951F831
:1012500020000069406870471001002070B50C46FE
:10126000054600F055F8044800684584848401F080
:101270004DFA002070BD0000E40000202DE9F0418F
:101280001D48016821F0010101601C4801268660AB
:1012900081680029FCD11A49016000681949884217
:1012A00000D0FEE701F06AFB174C2E20207001F001
:1012B00052FA16480CF098FC0FF0D4FA074607F0E3
:1012C0001FF810B107F030F838B907F036F80546C6
:1012D00007F01FF8294607F05DFD0021084600F0E1
:1012E000A5FD09F0E5F9FFF74FFCA06900B18047C3
:1012F000A6703846BDE8F081002000E000300240D2
:10130000C2A507F4CDB5E8B5D0000020B4D30120C4
:1013100070B5184CE06820B101F015FA6168884298
:1013200004D001F059FA01F00EFA6060E068401C48
:10133000E06001281CD10CF0AFFB05462068854217
:1013400016D0002813DBFFF7C1FE01462068C0EB72
:101350000012206900EBC2025167C5EB0511064A75
:1013600000EBC100011D1160406FFFF789FE256091
:1013700070BD0000BC010020E40000201CB504008A
:1013800004D10E480068046E002C16D0FFF7C0FF91
:101390002046FFF727FD009044696846FFF760FD8F
:1013A0004CB12046FFF71EFD01908168896888478F
:1013B00001A8FFF755FD01F0A9F91CBDE4000020CC
:1013C00001490A4600F002B801F0FFFF2DE9F043A1
:1013D00087B015460C465FEA000846D0FFF798FF35
:1013E000002000F0F9FC814621480068066E404666
:1013F000FFF7F8FC00900068806900F0BBFC07462E
:1014000040F6FF70C44204D10098B0F90440B0F92E
:1014100006500098611E0289ADF804401144ADF8F1
:1014200008104189681E0844ADF80650ADF80A005E
:1014300008F016FF6846FFF713FD01A809F032FC1B
:1014400006E02A462146404600F0D0FA09F0ECFBBF
:101450000028F6D1384600F08DFC304600F090F9B7
:10146000484600F0B9FC01F051F907B0BDE8F0833F
:10147000E40000202DE9FE4F984691468A468346B7
:1014800000270C9EFFF744FF184819490068407C6C
:1014900051F82040E1680968042903D02468002C31
:1014A000F8D100E01CB9FFF713FE041E1BD0E06862
:1014B0000121C26A20469047050011D02469A06826
:1014C0008047401C02D10B4C46F001060096CDE946
:1014D000015443464A465146584600F0E5F907464E
:1014E00001F014F93846BDE8FE8F0000E40000204A
:1014F00010010020243B010838B504001CD0FFF780
:1015000007FF0E480068006EA04201D100F024FCE5
:101510002046FFF767FC0090406908B101F0DFF852
:1015200000980068FFF75EFD6846FFF799FC2046CB
:10153000FFF7B4FB01F0EAF838BD0000E40000203A
:101540002DE9FF4F83B09A468B460746FFF7E0FE32
:10155000DFF83891D9F80000447C4D480057012845
:10156000204606DD06F0D2FE0546204606F0E2FEE5
:1015700005E006F0B3FE0546204606F0B5FE04463B
:101580001FB302A901A8FFF74BFEB7F9000000281E
:1015900000DA0020B7F902608046002E00DA00264B
:1015A00001984119B7F90400491E0CF03CFD0546AD
:1015B00002980119B7F90600491E0CF034FDA5EB9D
:1015C0000802841B521C641C03E04FF000084646CE
:1015D0002A46BAF1000F01D1C4F1000A002A51DDF8
:1015E000002C4FDD10980090534631464046FFF7DF
:1015F00041FF5FEA000A10D000F07CF80746A042E5
:1016000006D0D9F80000806C10B1322109F01EFE1E
:10161000504600F0B5F8002523E059460598884764
:1016200001F074F8012007B0BDE8F08F611BB942EA
:1016300002DA504600F088F83DB172194146504632
:1016400000F0C6F85046FFF799FE594605988847BE
:101650001048016809B1002088475046FFF7B0FEE6
:101660003D44A542E2DB5046FFF746FF002000F074
:1016700087F8A74206D0D9F80000806C10B133215A
:1016800009F0E4FD01F042F80020CCE7E40000207E
:101690002C010020F402002038B505004FF00004B2
:1016A00011D0FFF735FE2846FFF79CFB009000683D
:1016B00000698068804707F033FD04466846FFF7FD
:1016C000CFFB01F023F8204638BD38B504000ED01A
:1016D000FFF71EFE2046FFF785FB00F1180400907F
:1016E0006846FFF7BDFB01F011F8204638BD002029
:1016F00038BD000038B504460025FFF709FE1CB9C7
:1017000008480068046E44B12046FFF76BFB009068
:10171000B0F90A506846FFF7A3FB00F0F7FF284630
:1017200038BD0000E400002070B5054600242846BE
:101730000AF072F8641C18B1BDE8704000F07AB885
:10174000052CF4DB70BD000038B50C46050004D153
:101750000A480068056E002D0FD0FFF7D9FD284616
:10176000FFF740FB0090B0F90A10A14200DD448170
:101770006846FFF775FB00F0C9FF38BDE4000020A4
:10178000F8B50546FFF7C4FD104E3068046ECDB1C4
:101790000CB100F0E1FA08F057FE2846FFF722FBF3
:1017A000009031680D660068FFF71EFC6846FFF781
:1017B00057FB07F03DFB07F0F9F900BF00F0A6FF6B
:1017C0002046F8BD00F0C8FAF8E70000E400002069
:1017D0007CB515460E46040004D115480068046E19
:1017E000002C24D0FFF794FD2046FFF7FBFA2DB222
:1017F0000090C58034B2848007F0D8F90098406921
:1018000080B1FFF7EFFA009A0190B2F908108180D9
:10181000B2F90A20C28011B10AB10480458001A842
:10182000FFF71EFB6846FFF71BFB00F06FFF7CBD58
:10183000E400002001490A4600F002B801F0FFFF71
:101840007FB515460C4606002DD0FFF761FD3046EA
:10185000FFF7C8FA40F6FF710190CC4203D1B0F90E
:101860000440B0F906500289611E1144ADF80840E9
:10187000ADF80C104189681E0844ADF80E00ADF8B3
:101880000A5001A8FFF7ECFA02A809F00BFA06E0EB
:101890002A462146304600F091F809F0C5F90028A3
:1018A000F6D100F033FF7FBD2DE9FF4FDFF8E8B040
:1018B00083B01C46DBF80010DDE9106092464FF063
:1018C00000084B7C42461299FFF750FB050060D0A0
:1018D00028698068804707F023FC81460AFB09F1EC
:1018E000C91DCF08FFF78CFAF10705D1C11700EB2E
:1018F0009170801000EB4000002C09DC1FB11838FB
:10190000B0FBF7F000E000206442A04200DC044697
:10191000F00707D10090DDE903012346524600F0AD
:1019200063FE8046002C03DC2846FFF75BFB30E0BB
:1019300004FB07F01830F10702D0FFF77DF901E052
:10194000FFF78AF906001CD0FFF74CFA01900560FA
:10195000039981800499C180A0F808A04481C0F84F
:101960001480C0E9037901A8FFF77AFA1298AE60F3
:101970002861DBF80000407CA861304607B0BDE874
:10198000F08F2846FFF72EFBB8F1000001D0FFF7DB
:1019900085F90020F2E70000E4000020054B30B498
:1019A0001B68054C5B7C54F823301B6930BC0EF07F
:1019B000EBB90000E400002010010020F8B5154646
:1019C0000E460746FFF70EFA009000681621C06821
:1019D000426A0020904704466846FFF741FA002C0F
:1019E00003D02A4631463846A047F8BDF8B516461A
:1019F0000F46050012D0FFF7F5F9009044696846DC
:101A0000FFF72EFA2846FFF747FE0346082800DDB9
:101A10002CB13246394628460EF076FAF8BD3246E9
:101A2000394628460EF010FCF8BD10B5002821D02C
:101A300009B30AB3B1F90040B2F900309C4200DAB0
:101A400023460380B1F90240B2F902309C4200DA29
:101A500023464380B1F90440B2F904309C4200DDD2
:101A600023468380B1F90610B2F90620914200DCCA
:101A70001146C18010BD11460A6802604968416084
:101A800010BD00280BD003880B44038083881944C1
:101A90008180418811444180C1881144C1807047D0
:101AA00070B50025FFF734FC094CD4E900208242D0
:101AB0000AD0D2E9005610460CF048F820603146B2
:101AC000284608F0E9FE012500F020FE284670BDFA
:101AD000AC0100202DE9FC5F1F4614460E4605466A
:101AE000FFF716FCFFF776F94FF0010B02232246B1
:101AF00039462846CDF800B00BF028FB05007DD014
:101B0000AC68D5F800A004FB06F808F10700C1177F
:101B100000EB51704FEAE00909FB08F101F13000D8
:101B2000FFF79AF80090A0B3FFF75CF901906F6897
:101B30004761AF688761A0F806B0A0F80490A0F8EC
:101B4000028000F11C0200F13001A0F80080C0E921
:101B5000021200F128030020107102271760936021
:101B600018606FF07F405860002036E00846802201
:101B70004FF0000C20E0002318E000BF9AF800703E
:101B80005FEA87784FEAC7770AD51FB1077817430E
:101B900002E028E0077897430770520803D004E07A
:101BA000002FF7D1F2E78022401C5B1CB342E5DB3B
:101BB0000AF1010A0CF1010CA445DCDB012707E066
:101BC00001EB090080464A46FEF78BFB41467F1C2D
:101BD000B742F5DB49440BF101008346A042C5DB67
:101BE00001A8FFF73DF92DB128680BF0FBFD284651
:101BF0000BF0F8FD01240026154D00E01EE055F81D
:101C000024000BF0EFFD45F82460641C282CF4DD63
:101C1000104F3C680EE0E56A0BD0A0680BF0E2FDC7
:101C2000E0680BF0DFFD20690BF0DCFD20460BF0D7
:101C3000D9FD2C46002CEED13E6002E04FF00000B2
:101C4000009000F063FDFFF703F90098BDE8FC9FEA
:101C500024D4012038010020002801D0FFF71EB84D
:101C60007047F8B514460D46060017D0FFF750FB35
:101C70003046FFF7B7F800F11C0200F13003009086
:101C8000C0E9023200F12801416222462946FFF7ED
:101C900069FA6846FFF7E4F800F038FDF8BD000087
:101CA0002DE9FC41154DDDE908742D68B5F9086092
:101CB000864200DD3046B5F90C60964200DA3246C5
:101CC000824219DBB5F90A608E4200DD3146B5F972
:101CD0000E509D4200DA2B468B420DDB00E02C4675
:101CE000E5682D6825B1042D02D02568002DF6D1B8
:101CF000CDE9007406F092FCBDE8FC81E400002010
:101D0000B0F90220B1F906309A4213DCB1F9022091
:101D1000B0F906309A420DDCB0F90020B1F9043078
:101D20009A4207DCB1F90010B0F90400814201DCED
:101D30000120704700207047014602487022006869
:101D4000FEF7CFBAE4000020024970220968FEF7CE
:101D5000C8BA0000E400002010B5FFF7D9FA06F079
:101D6000DBFE07F065F808F07BFABDE8104000F0F4
:101D7000CDBC000070B50B4D04462868467CFFF7CB
:101D8000C7FA022C09D22046FFF7A2F928B1286829
:101D90004474FFF7E1FF0448046000F0B7FC3046EC
:101DA00070BD0000E40000202802002010B50446A9
:101DB000FFF7AEFA204606F0CFFEBDE8104000F077
:101DC000A5BC10B50446FFF7A3FA204606F0FCFEBA
:101DD000BDE8104000F09ABC10B50446FFF798FA31
:101DE000204606F0DDFF044600F090FC204610BDC2
:101DF00070B50446FFF78CFA04480068C56904B161
:101E0000C46100F083FC284670BD0000E40000209F
:101E100070B50546FFF77CFA03480068847E857636
:101E200000F074FC204670BDE400002070B50C4644
:101E30000546FFF76DFA09482246058008480480E8
:101E400008480068417C084850F82100C1680B6AC6
:101E500029469847BDE8704000F058BC3401002086
:101E600036010020E40000201001002070B5054676
:101E7000FFF74EFA03480068047E057600F046FC42
:101E8000204670BDE400002070B50446FFF740FA1C
:101E900004480068B0F92C50848500F037FC2846CF
:101EA00070BD0000E400002070B50446FFF730FA72
:101EB00004480068B0F92A50448500F027FC284601
:101EC00070BD0000E400002002480068002800D037
:101ED00000477047F401002002498A6802B988600F
:101EE000FFF7F2BFAC01002010B504000ED0FFF7E1
:101EF0000FFA20460DF0F2FC20460DF015FF2046AB
:101F0000FEF7CCFEBDE8104000F000BC10BD38B5B7
:101F10000C46050011D0FFF7FBF92846FEF762FFDB
:101F200000908089204201D0012400E0002468460E
:101F3000FEF796FF00F0EAFB00E00124204638BDE2
:101F400038B50546002028600648046844B120469C
:101F5000FEF748FF0090006928606846FEF780FFA2
:101F6000204638BDC802002038B504004FF00000FC
:101F70000D46086011D02046FEF734FF00908468BB
:101F800044B16846FEF76CFF2046FEF72BFF009039
:101F9000006928606846FEF763FF204638BD0000F0
:101FA0002DE9F04F00242DED028B9BB0DFF800B43B
:101FB000DDE9266ADDF8A090A6469FEDFE0ACBF883
:101FC0000040022839D00DAD6F460DF10C0C0328EE
:101FD0007EDB00BF4FF0000469D100BF53F82480BE
:101FE00000EE108A0DF1200808EB8408B8EEC00A54
:101FF00088ED000A56F8248000EE108A05EB84086C
:10200000B8EEC00A88ED000A51F8248000EE108A6C
:1020100007EB8408B8EEC00A88ED000A52F8248065
:1020200000EE108A0CEB840804F10104B8EEC00A3B
:10203000844288ED000AD1DB42E148680968401A11
:1020400000EE900AD3E90010F8EEE01A401A00EE14
:10205000900AD948F8EEE00A81EEA01A00EE901A34
:10206000F8EEE00A80ED001A61EE600A80ED010AE8
:10207000C0ED020A80ED030A51681268891A00EE69
:10208000101AD6E90012B8EEC01A521A00EE102A41
:10209000B8EEC00AC1EE000A00EE101AB8EEC00A8F
:1020A000C0ED040A20EEC00A80ED050A8EE10CEBBB
:1020B000840888ED000A07EB840888ED000A05EB28
:1020C000840888ED000A0DF1200808EB840800E080
:1020D000B1E1641C88ED000A032CE8DB002794E0E2
:1020E00053F82750DDED0A0A00EE105AB8EEC00A88
:1020F00030EE800A8DED0A0A56F82740DDED0F0A12
:1021000000EE104AB8EEC00A30EE800A8DED0F0ADC
:1021100051F82780DDED020A00EE108AB8EEC00A01
:1021200030EE800A8DED020A52F827C0DDED050A77
:1021300000EE10CA7F1CB8EEC00A30EE800A8DEDAA
:10214000050A00EE105ADDED080AB8EEC01A00EEDE
:10215000105AB8EEC00A41EE000A00EE105AB8EE6E
:10216000C01A00EE104ACDED080ADDED090AB8EEFE
:10217000C00A41EE000A00EE104AB8EEC01A00EEA6
:10218000104ACDED090ACDED0D0AB8EEC00ADDED1D
:102190000E0A41EE000A00EE105AB8EEC01A00EE28
:1021A000108ACDED0E0ADDED000AB8EEC00A41EE50
:1021B000000A00EE104AB8EEC01A00EE108ACDED0B
:1021C000000ADDED010AB8EEC00A41EE000A00EE99
:1021D000105AB8EEC01A00EE10CACDED010ADDEDBE
:1021E000030AB8EEC00A41EE000A00EE104AB8EE4B
:1021F000C01A00EE10CACDED030ADDED040AB8EEF8
:10220000C00A41EE000ACDED040A8742FFF668AF2E
:10221000DDED080A9DED0A0A80EE801A8DED081AA0
:102220009DED091ADDED0F0AC1EE201ACDED091A58
:102230009DED0D1AC1EE001ACDED0D1A9DED0E1A91
:10224000C1EE201ACDED0E1A9DED001AC1EE001A56
:10225000CDED001A9DED011AC1EE201ACDED011A47
:102260009DED031AC1EE001ACDED031A9DED041A7F
:10227000C1EE201A01EE100AB8EEC11ACDED041A13
:10228000C0EE011A00EE100AB8EEC00A80EE801A05
:1022900000EE100ACDED0A1AB8EEC00A8DED0F1A45
:1022A000DDED020A80EE801A00EE100AB8EEC00AD8
:1022B0008DED021ADDED050A80EE801A8DED051A0E
:1022C000DDED081ADDED0A0ADDED0E4A9DED0F2A5F
:1022D00071EEE05A9DED091A34EEC25ADDED0D3A69
:1022E00031EE604A25EE850A33EEC23A04EE430A27
:1022F000B5EEC00AF1EE10FA6CD09DED006ADDED8E
:10230000022ADDED016A2C4836EE627A76EEE27A38
:1023100027EE058A07EEC38A67EEA57A47EE447A70
:10232000C8EE008A87EE807AC0ED008A80ED017ADF
:1023300020EEA67A01EE627A61EEA22A40EEC62A6B
:1023400027EE237A04EEA27A61EE062A41EEE62A0F
:1023500002EE227AC7EE002AC0ED022A9DED036A42
:10236000DDED052A76EE626A66EE857A9DED045A09
:1023700035EE627A47EE437A87EE803A80ED033A93
:1023800027EE253A06EEC43A83EE004A20EE853A5F
:1023900001EE623A61EEA22A40EEC62A23EE233A0B
:1023A00061EE060A04EEA23A80ED044A06E011E06E
:1023B000D80100200000000020D5012041EEC50A10
:1023C00002EE203AC3EE000AC0ED050A0120CBF868
:1023D000000002E0BEF1000F2DD05C460021C4E9F0
:1023E00001A908460BF0C8FD0021E06008460BF08B
:1023F000EBFD2061A9F10101AAF101000BF0BCFD88
:102400006061A9F10101AAF101000BF0DDFDA061FD
:102410006269E168914201DDE260616121698142A6
:1024200001DDA1612061206828B100201BB0BDEC56
:10243000028BBDE8F08F0120F8E700002DE9FE4394
:10244000DFF8B89005000A9ED9F814C04FF00000DC
:10245000CCF3410709F1300439D0012D02D001201D
:10246000BDE8FE83DFF8948008F12008C8E9001277
:10247000052131EA0C013ED0012F3CD0C4E90036E1
:10248000012199F80030A9404A46194201D00023A1
:10249000137013781943C9B289F800100329DFD1EA
:1024A000174E3068407C05F031FF05463068407CAF
:1024B00005F040FF114B0094CDE901502833A3F102
:1024C0000802A2F108010220FFF76AFDC8E7DFF861
:1024D0002C80032F08F11808C8E9001208F1100138
:1024E00006D00CF00502012A02D0C1E90036C7E788
:1024F000C1E90063C4E7C4E90063C1E760010020EB
:10250000E40000200149486170470000600100209C
:102510002DE9F0411E46069C1746884605463A4678
:10252000A8687F1C3346D0F804C041462846E047DF
:10253000641EF4D1BDE8F08170B5B0F90040091B0C
:10254000B0F904408C422CDD00F11404B0F90250C3
:102550000069521B02FB0040CA1800EBE104521E46
:10256000D010B0EBE10501F007034FF0FF0102F0DE
:10257000070221FA03F0C2F1070201FA02F1CEB21A
:1025800021780FD001436D1E04F8011B002D05DDDD
:10259000FF2229462046FDF7C5FE2C442078304313
:1025A000207070BD30400143217070BD10B5B0F98E
:1025B0000030B0F90240C91A00F114030069121B7F
:1025C00002FB003000EBE10001F0070302788021FC
:1025D000D9400A43027010BDB0F906100269514398
:1025E0001430FDF7A6BE00002DE9F843804602F145
:1025F0000F000011470003FB07F01C4615468946F3
:102600001430FEF729FB060018D0FEF781FE304695
:10261000FEF7E8FB0090A0F80080A0F8029085800B
:10262000C480074981600121818107616846FEF706
:1026300017FC00F06BF83046BDE8F8830020FBE79C
:10264000B03B010870B5B0F90660B0F904400B6802
:1026500000F1140596421BDD0069A34202FB005005
:1026600000EBE30214DA641EE010A0EBE30512F8BD
:10267000010B03F00704A040C4B206E045B10833E3
:1026800012F8014B23F007036D1E002CF6D004E076
:10269000002070BD6006040E5B1C2006FAD5FF2CDE
:1026A00007D0184602E06406240E401C6606FAD4E1
:1026B00000E0D81DC443640705D006E012F8014BC2
:1026C000FF2C09D108306D1EF8D5C01A401C0B60D4
:1026D00070BD6206140E401C2206FAD4F5E738B528
:1026E0000546FEF715FE2846FEF77CFB0090818923
:1026F000491E0CB284816846FEF7B2FB14B9284625
:10270000FEF7CCFA00F002F838BD00000348C168BB
:10271000491EC16001D100F06FB87047BC010020B4
:1027200010B54FF4C8310348FEF7B0FA5020FEF759
:1027300081FB10BD0403002010B5044620460EF0B6
:10274000FFFD10BD704710B50FF03AFB10BD10B57E
:102750000FF04CFB10BD704710B501200FF020F8B2
:102760001B4908600846006808B1012000E000200D
:1027700050B900BF502080F31188BFF34F8FBFF3D3
:102780006F8F00BF00BFFEE70322002101200FF082
:1027900018F8104908600846006830B100231A464E
:1027A00019460C4800680FF087F80A48006808B11D
:1027B000012000E0002050B900BF502080F31188B4
:1027C000BFF34F8FBFF36F8F00BF00BFFEE710BD99
:1027D000000000200400002010B50648006808B979
:1027E000FFF7BAFF4FF0FF31024800680FF038F9E9
:1027F00010BD00000000002010B500231A46194645
:10280000024800680FF058F810BD000000000020DA
:102810000EB508B102AA00E00022002301A9684613
:1028200000F008FB0EBD0000074910B50C7818B188
:1028300001200870801E03E0002008706FF07F40C8
:1028400001F058FD204610BDD100002010B5082A27
:102850000EDC0346012A18D0022A56D0042A76D06C
:1028600010F8042B03F8012B491EF9D1012010BDEB
:10287000102A08DC4FEA000230F8043B22F8023B41
:10288000491EF9D1F2E7002010BD10F8042BD20741
:10289000120E491E34D010F8044B491E04F00104F6
:1028A00042EA84122CD010F8044B491E04F00104B3
:1028B00042EA441224D010F8044B491E04F00104EB
:1028C00042EA04121CD010F8044B491E04F0010423
:1028D00042EAC40214D010F8044B491E04F001046B
:1028E00042EA84020CD010F8044B491E04F00104A3
:1028F00042EA440204D010F8044B04F001042243DD
:1029000003F8012B0029C0D1B0E710F8042B92077F
:10291000120E491E15D010F8044B491E04F0030492
:1029200042EA04120DD010F8044B491E04F00304CF
:1029300042EA840205D010F8044B04F00304224359
:10294000491E03F8012B0029DFD18FE7FFE710F8BC
:10295000042B1207120E491E05D010F8044B04F088
:102960000F042243491E03F8012B0029EFD17DE714
:1029700038B50024009400F01DF838BD0B4810B5A0
:10298000416B002910D101214163FFF7C9FEFEF719
:102990002DF906F07FFA0549054838310860BDE891
:1029A0001040084600F0B8BB10BD0000D000002069
:1029B000D9E000082DE9F0410D460699044601B919
:1029C00001461F68082A09DC0E46012A1AD0022A8D
:1029D0005BD0042A7DD0082A13D18DE0102A07DCB1
:1029E000D3F810C00E46BCF1000F04D0022389E0DA
:1029F0000020BDE8F08101CCB84726F8020B6D1E1F
:102A0000F9D189E001CCB847C0074FEA10686D1EC4
:102A100036D001CCB84748EA801000F0FF086D1EA0
:102A20002ED001CCB84748EA401000F0FF086D1ED8
:102A300026D001CCB84748EA001000F0FF086D1E10
:102A40001ED001CCB84748EAC00000F0FF086D1E58
:102A500016D001CCB84748EA800000F0FF086D1E90
:102A60000ED001CCB84748EA400000F0FF086D1EC8
:102A700006D001CCB84740EA080000F0FF086D1E00
:102A800006F8018B002DBDD146E001CCB847800788
:102A90004FEA10686D1E16D001CCB84748EA001006
:102AA00000F0FF086D1E0ED001CCB84748EA800048
:102AB00000F0FF086D1E06D001CCB84740EA0800C0
:102AC00000F0FF086D1E06F8018B002DDDD123E01C
:102AD000FFE701CCB84700074FEA10686D1E06D02B
:102AE00001CCB84740EA080000F0FF086D1E06F868
:102AF000018B002DEDD10FE0D3F810C0BCF1000F19
:102B000004D001232A462046E04705E001CCB8471F
:102B100006F8010B6D1EF9D101206AE72DE9FF4F80
:102B20008DB00020DDF86CA0164600901D460446CE
:102B30000246CAF8000008AB03A902A800F07AF91F
:102B400018B1002011B0BDE8F08F0898854200DD73
:102B50000546624F0B9562493868407C51F8201059
:102B6000049109690691FEF751FB05903868407C95
:102B7000FEF76CFB5B498146884204D05A4989457F
:102B800001D0012000E000200A9001CE1A99884768
:102B90008346000E079077D0009870BB0D9800EB2D
:102BA00004084E480068B0F90800404503DDA0EB7A
:102BB0000807804600E000270299049801EB840191
:102BC00001EB8701CDE900100B990D98421809928D
:102BD0000E9B40461946521EFFF762F801200090F6
:102BE000059818280ADA0298DDE9052300EB84002D
:102BF00000EB8700E91B00F07BF812E00A9880B137
:102C0000029800EB840000EB87070998A0EB080806
:102C100049463868884701C7A8F101005FEA000803
:102C2000F6D1324BD86980B3DDE9020700EB8400AE
:102C300007EB8402CDE902022C4C361F3046E469D2
:102C40002B460299A047FF203168B0EB116F02D1EB
:102C50000299096804E0029A1268B0EB126F01D180
:102C6000039A1160029906F10406091D0291039965
:102C7000091D03916D1EE7D10397DAF8000040F0BB
:102C80000100CAF8000022E023E0FFE70798FF28D0
:102C900013D0C0F1FF0202981B6850F824102BF0EB
:102CA0007F409847039941F8240000BFDAF80000FC
:102CB00040F00101CAF8001005E00298039950F8AD
:102CC000240041F82400641C6D1E7FF45EAF03985D
:102CD00038E7039941F824B0E8E70000E400002059
:102CE00010010020EB830008E98300088002002027
:102CF0002DE9F05F0C1E16DD5E68014600EB8405D1
:102D0000082A12DC611E012A26D0022A47D0042A92
:102D10006AD0082A07D1071917F8010DB04745F8FE
:102D2000040D641EF8D1BDE8F09F102AFBDC5F693A
:102D30003FB12246BC46BDE8F04F02235DF804EBEC
:102D4000604701EB440700BF37F8020DB04745F874
:102D5000040D641EF8D1E6E700EBE10001F007077F
:102D600010F801A98146802020FA07F8B5F1040582
:102D70000AEA0800C7F10701C840B04745F804094E
:102D80003FB14FEA48604FEA10687F1E641EEFD1E2
:102D9000C9E719F801A907274FF00108F6E700EB8A
:102DA000A10001F0030710F801A981467900C020B5
:102DB00020FA01F84FF0060BB5F104050AEA080005
:102DC000ABEB4701C840B04745F804093FB14FEAB3
:102DD00088604FEA10687F1E641EEFD1A3E70327C7
:102DE00019F801A9B846F7E700EB6100012710F8D0
:102DF00001A9A7438146B900F02020FA01F84FF05D
:102E0000040B2D1F0AEA0800ABEB8701C840B0474E
:102E100045F804093FB14FEA08704FEA10687F1E79
:102E2000641EEFD17FE719F801A901274FF00F08C1
:102E3000F6E700002DE9F047224C06461F46A06940
:102E400090468946002540B90120A06104F128017F
:102E50001D480860084600F05FF9606930B91B48FA
:102E60000068606110B905F03CFA606107B1386034
:102E70004EB1A06830B960698000FDF733FFA060F3
:102E800000B901253060B9F1000F0AD0E06830B90F
:102E900060698000FDF726FFE06000B90125C9F8F0
:102EA0000000B8F1000F0AD0206930B960698000D5
:102EB000FDF718FF206100B90125C8F80000284679
:102EC000BDE8F08780020020C5E100082401002051
:102ED000044AB2F9002002600348B0F9000008601B
:102EE000704700003401002036010020B0F90030A6
:102EF000B1F90020934200DA0280B0F90230B1F952
:102F00000220934200DA4280B0F90430B1F9042083
:102F1000934200DD8280B0F90620B1F906108A42A2
:102F200000DDC180704770B5B1F90040B2F90030E2
:102F30009C4200DD23460380B1F90250B2F9024001
:102F4000A54200DD2C464480B1F90460B2F904507A
:102F5000AE4200DA35468580B1F90610B2F9062096
:102F6000914200DB1146C1809D4201DBA14201DAA2
:102F7000002070BD012070BD014602480068407C01
:102F800000F002B8E40000202DE9F843012689464C
:102F9000044602285DDA304F7A6802B190472E4D20
:102FA0005FEA090005F1100532D0012803D0B9F11C
:102FB000020F4ED118E055F8240088B92046FEF7DC
:102FC00087F8009018B3C0680D21426A68469047A0
:102FD00002003ED049460098904755F8240000264C
:102FE000401C45F8240034E02046FEF771F80090BC
:102FF00068B1C0680D21426A68469047040028D035
:10300000386800B1804749460098A047002620E074
:1030100055F82400A846012812D12046FEF758F89A
:10302000009068B1C0680D21426A6846904705006B
:1030300006D0386800B1804749460098A847002666
:1030400058F8241009B1012200E00022891A48F83A
:1030500024103046BDE8F883B002002030B581F07E
:103060007F43FF2480F07F4094EA116101D120F07A
:103070007F43010E11FB02F1B1FBF4F100F0FF15EB
:10308000C1F1FF0203F0FF14544301FB05444FF06C
:10309000FF15240A05EA1323C0F30720534340F029
:1030A000807001FB003104F0FF1001F0FF210843A4
:1030B00080F07F4030BD00002DE9F05F0646DDF86E
:1030C000389015460C4600200D99804688421ED245
:1030D000DFF840B00C9F4FF0FF0A02CE08CCAAEBFD
:1030E000116202FB09F2B2FBFAF0C2B221F07F409A
:1030F0001946DBF80030984720F07F4001C57F1E5D
:10310000EBD10A9804EB800408F10100DCE7BDE88C
:10311000F09F00008002002002490A6B42600863B1
:1031200070470000D000002010B5830702D520F8BA
:10313000021B521E530811D001EB0144042B09DB82
:1031400010C01B1F10C0042B40F8084B40F8044C63
:10315000F6DA01E010C05B1E002BFBD1D20700D0D5
:10316000018010BD10B504460CB9012010BD607976
:1031700020B900202071204600F006F8022060717E
:10318000012060710020F1E708B50A4A0168914208
:103190000FD100BF002100910749096841F4805117
:1031A000054A11601146096801F48051009100BF81
:1031B00000BF08BD003002403038024070B5044600
:1031C00000F07EF906462546681C10B104480078D8
:1031D000054400BF00F074F9801BA842FAD370BD0B
:1031E0006C00002000B587B0142102A8FDF7A1F8FB
:1031F0002A48006808B107B000BD012027490860CF
:1032000000BF002001902648006840F001002449DA
:1032100008600846006800F00100019000BF00BF90
:103220008814029002200390002004900220059050
:103230000C20069002A91B4800F03CF84FF6807065
:1032400002900220039000200490032005900C209F
:10325000069002A9144800F02DF84CF23370029049
:103260000220039000200490032005900C2006907B
:1032700002A90E4800F01EF84FF480500290022080
:10328000039000200490032005900C20069002A9D2
:10329000074800F00FF800BFADE70000580000201D
:1032A000383802400014024000100240000C024076
:1032B00000180240F8B502460B4600250024002005
:1032C0000021DCE0012606FA01F51E6806EA050485
:1032D000AC4273D15E68022E02D05E68122E13D10A
:1032E000CF0802F1200656F827004E07F70E0F26EA
:1032F000BE40B0434F07FF0E1E69BE403043CF08AB
:1033000002F1200646F8270010684F000326BE4051
:10331000B0431E7906F003064F00BE4030431060F4
:103320005E68012E08D05E68022E05D05E68112E00
:1033300002D05E68122E13D190684F000326BE4063
:10334000B0434F00DE68BE403043906050680126B5
:103350008E40B0431E79C6F300168E403043506055
:10336000D0684F000326BE40B0434F009E68BE4069
:103370003043D0605E6806F08056B6F1805F7DD144
:1033800000BF00260096404E366846F480463E4F09
:103390003E603E46366806F48046009600BF00BF99
:1033A0003A4E8F0856F827008E07370F0F26BE407B
:1033B000B043374EB24202D1002624E05EE0354EE3
:1033C000B24201D101261EE0334EB24201D10226A3
:1033D00019E0324EB24201D1032614E0304EB2421F
:1033E00001D104260FE02F4EB24201D105260AE09A
:1033F0002D4EB24201D1062605E02C4EB24201D13B
:10340000072600E008268F073F0FBE4030431F4EBF
:103410008F0846F82700264E3068A0435E6806F401
:103420008036B6F5803F00D12043214E3060361DF6
:103430003068A0435E6806F40036B6F5003F00D160
:1034400020431B4E361D3060361D3068A0435E6839
:1034500006F48016B6F5801F00D12043144E0836BE
:103460003060361D3068A0435E6806F40016B6F57D
:10347000001F00D120430E4E0C363060491C10292D
:10348000FFF420AFF8BD0000443802400838014086
:10349000000002400004024000080240000C02400C
:1034A000001002400014024000180240001C0240BC
:1034B000003C01400AB1816101E00B048361704767
:1034C000014800687047000064000020034800685D
:1034D00003490978084401490860704764000020E6
:1034E0006C00002010B50D48006840F400700B49D6
:1034F00008600846006840F480600860084600687C
:1035000040F480700860032000F0C6F8002000F04E
:1035100007F800F049F8002010BD0000003C024010
:1035200070B588B0044600250026002221461C20E4
:1035300000F074F81C2000F061F800BF002001903A
:103540001648006840F00100144908600846006809
:1035500000F00100019000BF00BF02A903A800F025
:103560006FF900F095F945000D48B5FBF0F0461EE7
:103570004FF080400B49086040F2E7310948C160D4
:10358000466000210161816000F041FC20B90548DE
:1035900000F058FC08B070BD0120FBE74038024045
:1035A00040420F00B895012008B500BF00200090F0
:1035B0001148006840F480400F49086008460068E0
:1035C00000F48040009000BF00BF00BF00200090CA
:1035D000081F006840F08050091F08600846006816
:1035E00000F08050009000BF00BF00220F21901E0D
:1035F00000F014F808BD00004438024001460846B7
:10360000002809DB00F01F0301229A4043099B00B8
:1036100003F1E023C3F8002100BF70472DE9F05FFC
:1036200080460D46164600270DF05AF807463946E3
:103630002A46334601F00700C0F1070ABAF1040F29
:1036400002D94FF0040A01E0C0F1070AD14600F1A7
:10365000040ABAF1070F02D24FF0000A01E0A0F10C
:10366000030AD4464FF0010A0AFA09FAAAF1010A3C
:103670000AEA020A0AFA0CFA4FF0010B0BFA0CFBE9
:10368000ABF1010B0BEA030B4AEA0B04214640465F
:103690000DF02EF8BDE8F09F00BF00F00702064BCA
:1036A00019684FF6FF031940044B0B4343EA02210C
:1036B000014B196000BF70470CED00E00000FA05F7
:1036C00070B504460D460CB9012070BD584800681D
:1036D00000F00F00A84209D255490D700846006855
:1036E00000F00F00A84201D00120EEE7207800F0A2
:1036F000020002281DD1207800F00400042805D122
:103700004C48006840F4E0504A490860207800F0D6
:103710000800082805D14748006840F46040454942
:1037200008604448006820F0F000A168084341495F
:103730000860207800F00100A8B36068012807D174
:103740003C4808380068C0F34040B8B90120BCE7E5
:103750006068022802D06068032807D1354808381D
:103760000068C0F3406048B90120AEE7314808382E
:103770000068C0F3400008B90120A6E72D480068A2
:1037800020F00300616808432A490860FFF798FEAB
:10379000064609E0FFF794FE801B41F2883188421B
:1037A00002D9032091E707E02248006800F00C00EE
:1037B0006168B0EB810FEDD11D48006800F00F008B
:1037C000A84209D91A490D700846006800F00F0098
:1037D000A84201D0012078E7207800F004000428F6
:1037E00007D11448006820F4E050E168084311490B
:1037F0000860207800F00800082808D10D4800680B
:1038000020F46040216940EAC1000A49086000F0E4
:103810004FF808490968C1F30311074A515CC840D1
:10382000064908600020FFF77BFE00204DE70000FE
:10383000003C024008380240D82201086000002005
:103840000F2202600D4A126802F0030242600B4A26
:10385000126802F0F0028260084A126802F4E05234
:10386000C260064A126802F46042D2080261044A49
:10387000126802F00F020A60704700000838024028
:10388000003C0240014800687047000060000020D2
:1038900000B5FFF7F7FF04490968C1F38221034A25
:1038A000515CC84000BD000008380240E822010811
:1038B0002DE9F047002400250026A1462548006890
:1038C00000F00C0020B1042805D008283AD105E00A
:1038D000DFF8849039E0DFF8849036E01D48001F5F
:1038E000006800F03F041B48001F006800F48000DF
:1038F00078B11A481749091F0968C1F38811A0FB5C
:1039000001700146224600233846FCF7B9FC054603
:103910000EE011480F49091F0968C1F38811A0FB87
:1039200001700146224600233846FCF7A9FC0546F3
:103930000848001F0068C0F30140401C4600B5FB6A
:10394000F6F902E0DFF8109000BF00BF4846BDE87E
:10395000F0870000083802400024F40000127A00CA
:10396000F8B504460CB90120F8BD207800F001003C
:10397000002874D0F948006800F00C0004280DD02D
:10398000F648006800F00C00082813D1F348001F27
:10399000006800F48000B0F5800F0BD1EF480838C4
:1039A0000068C0F34040002859D06068002856D114
:1039B0000120D9E700BF6068B0F5803F08D1E74833
:1039C0000838006840F48030E449083908601EE097
:1039D0006068B0F5A02F0DD1E0480838006840F4C9
:1039E0008020DE49083908600846006840F48030CD
:1039F00008600CE0D9480838006820F48030D749C6
:103A0000083908600846006820F48020086000BF7C
:103A1000606890B1FFF754FD054606E0FFF750FDE2
:103A2000401B642801D903209EE7CC480838006871
:103A3000C0F340400028F1D011E0FFF741FD0546FA
:103A400006E0FFF73DFD401B642801D903208BE70A
:103A5000C24808380068C0F340400028F1D12078FF
:103A600000F0020002285FD1BC48006800F00C00A2
:103A700058B1BA48006800F00C0008281CD1B748BB
:103A8000001F006800F48000B0B9B448083800682E
:103A9000C0F3400020B1E068012801D0012063E7B5
:103AA000AE480838006820F0F800216940EAC100FB
:103AB000AA490839086037E0E06800B30120A84946
:103AC0000860FFF7FDFC054606E0FFF7F9FC401B28
:103AD000022801D9032047E7A04808380068C0F34E
:103AE00040000028F1D09D480838006820F0F80018
:103AF000216940EAC10099490839086014E00020B2
:103B000097490860FFF7DCFC054606E0FFF7D8FCA4
:103B1000401B022801D9032026E790480838006896
:103B2000C0F340000028F1D1207800F008000828F8
:103B30002CD16069A8B101208A490860FFF7C0FC58
:103B4000054606E0FFF7BCFC401B022801D9032014
:103B50000AE782486C300068C0F340000028F1D0CA
:103B600014E000207F490860FFF7AAFC054606E044
:103B7000FFF7A6FC401B022801D90320F4E6774892
:103B80006C300068C0F340000028F1D1207800F0CC
:103B90000400042870D1002670483830006800F016
:103BA000805090B900BF002000906C483830006809
:103BB00040F080506949383108600846006800F0DC
:103BC0008050009000BF00BF01266748006800F4E5
:103BD0008070B0B96448006840F480706249086041
:103BE000FFF76EFC054606E0FFF76AFC401B022863
:103BF00001D90320B8E65C48006800F48070002812
:103C0000F2D000BFA068012808D15448683000688D
:103C100040F001005149683108601DE0A0680528A6
:103C20000DD14E486830006840F004004B496831BF
:103C300008600846006840F0010008600CE0474852
:103C40006830006820F00100444968310860084687
:103C5000006820F00400086000BFA068A8B1FFF76A
:103C60002FFC054609E0FFF72BFC401B41F2883191
:103C7000884202D9032077E626E038486830006899
:103C8000C0F340000028EED013E0FFF719FC054612
:103C900008E0FFF715FC401B41F28831884201D94A
:103CA000032061E62D4868300068C0F3400000281A
:103CB000EFD1012E07D129483830006820F080501C
:103CC00026493831086000BFA069B8B323480068AE
:103CD00000F00C0008285ED0A069022846D1002020
:103CE0001F490866FFF7ECFB054606E0FFF7E8FB17
:103CF000401B022801D9032036E61848083800681E
:103D0000C0F340600028F1D1D4E907010843616A9B
:103D100040EA81110122A06AC2EB500041EA004151
:103D20002C20005D41EA00600C49091F0860012059
:103D30000B490866FFF7C4FB054607E02DE0FFF7D7
:103D4000BFFB401B022801D903200DE603480838B9
:103D50000068C0F340600028F1D01EE0083802403F
:103D600000004742800E47420070004000200C498E
:103D70000866FFF7A5FB054606E0FFF7A1FB401B21
:103D8000022801D90320EFE506480068C0F340602F
:103D90000028F2D101E00120E6E50020E4E5000082
:103DA000000047420038024070B504460E461546F2
:103DB0000CB9012070BD94F8490028B9002084F89E
:103DC0004800204600F01CF804F108012068FCF7C8
:103DD00053FD3146A2682068FCF77CFD2946236B21
:103DE000D4E90102FCF724FDA168206850F8210005
:103DF00040F00100A268216841F822000020D9E7C4
:103E000010B50446FFF7EEF910BD7047704710B5C6
:103E100004460CB9012010BD94F83D0028B90020DB
:103E200084F83C00204600F00CF8022084F83D00A5
:103E3000211D206805F0F0FB012084F83D000020E2
:103E4000E9E7704701460868C06840F001000B6868
:103E5000D8600868806800F00702062A05D0086864
:103E6000006840F001000B68186000207047704740
:103E700010B5044620680069C0F34000D8B120683E
:103E8000C068C0F34000B0B16FF002002168086163
:103E9000012020772068806900F0030018B12046D7
:103EA000FFF7E5FF05E0204600F0ADF8204600F002
:103EB000ABF80020207720680069C0F38000D8B1FB
:103EC0002068C068C0F38000B0B16FF004002168C2
:103ED0000861022020772068806900F4407018B1E2
:103EE0002046FFF7C4FF05E0204600F08CF820468E
:103EF00000F08AF80020207720680069C0F3C00035
:103F0000D8B12068C068C0F3C000B0B16FF008003D
:103F100021680861042020772068C06900F0030050
:103F200018B12046FFF7A3FF05E0204600F06BF82C
:103F3000204600F069F80020207720680069C0F36F
:103F40000010D8B12068C068C0F30010B0B16FF0A5
:103F5000100021680861082020772068C06900F4FB
:103F6000407018B12046FFF782FF05E0204600F0C0
:103F70004AF8204600F048F80020207720680069C1
:103F800000F0010058B12068C06800F0010030B1B5
:103F90006FF0010021680861204600F036F82068C3
:103FA0000069C0F3C01058B12068C068C0F3C010E9
:103FB00030B16FF08000216808612046FFF725FFCF
:103FC00020680069C0F3801058B12068C068C0F351
:103FD000801030B16FF0400021680861204600F089
:103FE0001DF820680069C0F3401058B12068C0680F
:103FF000C0F3401030B16FF0200021680861204606
:10400000FFF704FF10BD7047704710B504462068E5
:10401000B0F1804F01D1FFF759FA10BD704700BFD2
:10402000FEE7000010B500200F4908600F48006847
:1040300020F440200D4908600846006840F48020C4
:10404000086000200A49C1F8A40202200CF000FC1C
:1040500001200549086002200CF0FAFB0020044909
:10406000C1F8A00210BD0000A0824042000402403E
:10407000008040420120034908600349C1F8A402BE
:1040800070470000A08240420080404210B50020EE
:104090000F4908600F48006820F440200D4908606F
:1040A0000846006840F48020086001200A49C1F8F1
:1040B000A40202200CF0CCFB01200549086002207C
:1040C0000CF0C6FB00200449C1F8A00210BD00009E
:1040D000A0824042000402400080404270B5054684
:1040E00000241648006820F440201449086008465F
:1040F00000680860002616E00020114908600220D0
:104100000CF0A6FB01200F49C1F8A0026006040EC6
:104110000B487C38006808B1601CC4B201200CF068
:1041200097FB701CC6B2082EE6DB15B9FFF7AEFF91
:1041300001E0FFF777FF204670BD00000004024059
:10414000A08240420080404270B504461548006895
:1041500020F44020134908600846006840F480209D
:104160000860002010490860002517E0E0090E49AA
:10417000091D08606006040E02200CF069FB012096
:104180000A49C1F8A00202200CF062FB0020064997
:10419000086002200CF05CFB681CC5B2082DE5DB52
:1041A00070BD000000040240A082404200804042F6
:1041B00010B50F48006820F440200D4908600846FB
:1041C000006840F48020086001200A4908600A491C
:1041D000C1F8A0020CF03CFB002006490860012059
:1041E0000CF036FB00200449C1F8A00210BD00000D
:1041F00000040240A48240420080404210B50E48B4
:10420000006820F440200C4908600846006840F42B
:10421000802008600020094908600949C1F8A4020B
:1042200001200CF015FB0120044908600449C1F885
:10423000A4020CF00DFB10BD00040240A08240421D
:104240000080404210B500241348006820F440204C
:104250001149086008460068086001200F4908609D
:104260000CF0F6FA01200E49C1F8A0020CF0F0FAA9
:1042700007E0601CC4B2FA2C03DDFFF7BFFF01208A
:1042800010BD0648803800680028F2D10349091F94
:10429000086000BFF4E7000000040240A48240422E
:1042A0000080404270B5FF23104CB3EB116F05D175
:1042B0002346050E1B680AD0FF2D14D00C4B02EBD1
:1042C0000212D2B21B6898472168084070BD514263
:1042D00001EB01114FF07F4220F07F4002EB0161C2
:1042E0000843184070BD01EA030070BDDC020020E5
:1042F0008002002002490A680860104670470000EA
:10430000DC02002030B5014601F01F04C1F3451363
:10431000CA0AE50205EB43151544A8B230BD0000FA
:1043200070B504460026174805884088454315485F
:10433000808846F60401884216D112488079012807
:1043400012D100200F4988712A2048812B208881B2
:104350000021084604F04AFC01200A4988712B20FC
:1043600048812A20888103E00021084604F03EFCB1
:1043700004F07CFD002602E003480480761CAE4277
:10438000FAD370BD049301208000006C0449054AF3
:104390000968497C52F8211009690968084700003A
:1043A000E40000201001002010B53220FEF706FFC7
:1043B000002004F0FFF9FB49888008468088FF2828
:1043C0000ADB084680884FF6FF71884204D0F54822
:1043D0008088B0F5134F7CD1D32004F041FD04F068
:1043E0005DF8F049888004F059F8EE49888004F0BF
:1043F00055F8EC498880084680884FF6FF7101EA3D
:104400000020E849888004F049F8E6498988084393
:10441000E44988800846808849F24131884258D072
:10442000BF2004F01DFD04F039F8DE49888004F057
:1044300035F8DC49888004F031F8DA49888004F0E6
:104440002DF8D8498880084680884FF6FF7101EA28
:104450000020D449888004F021F8D2498988084393
:10446000D04988800846808846F6040188427AD080
:10447000D42004F0F5FC04F011F8CA49888004F057
:104480000DF8C849888004F009F8C64988800846B4
:1044900080884FF6FF7101EA0020C249888003F04E
:1044A000FDFFC04989880843BE4988800846808846
:1044B00045F21031884256D04FF45A4004F0D0FCF7
:1044C00003F0ECFFB74988804FF45B4004F0C8FC70
:1044D00000E048E003F0E2FFB249888008468088A7
:1044E0004FF6FF7101EA0020AE4988804FF45C402E
:1044F00004F0B6FC03F0D2FFAA4989880843A94911
:10450000888008468088B0F5004F02D145F21050EF
:104510008880A448808845F21051884223D0A12089
:1045200004F09EFC03F0BAFF9E49888003F0B6FFBA
:104530009C498880084680884FF6FF7101EA002078
:104540009849888003F0AAFF9649898808439549CD
:1045500088800846808845F26171884203D141F61F
:104560006310904988808F48808849F241318842A1
:104570007ED1CF2004F074FC002004F06BFCC1203D
:1045800004F068FC302004F065FCED2004F068FCC9
:10459000642004F05FFC032004F05CFC122004F0B3
:1045A00059FC812004F056FCE82004F059FC8520D9
:1045B00004F050FC102004F04DFC7A2004F04AFC7A
:1045C000CB2004F04DFC392004F044FC2C2004F0F6
:1045D00041FC002004F03EFC342004F03BFC0220AF
:1045E00004F038FCF72004F03BFC202004F032FCFF
:1045F000EA2004F035FC002004F02CFC002004F03C
:1046000029FCC02004F02CFC1B2004F023FCC1205A
:1046100004F026FC012004F01DFCC52004F020FC61
:10462000302004F017FC302004F014FCC72004F004
:1046300017FCB72004F00EFC362004F011FC4820D3
:1046400004F008FC3A2004F00BFC552004F002FCB6
:10465000B12004F005FC002004F0FCFB1A2004F05B
:10466000F9FBB62004F0FCFB0A2004F0F3FB00E0A9
:104670009AE0A22004F0EEFBF22004F0F1FB00200F
:1046800004F0E8FB262004F0EBFB012004F0E2FB41
:10469000E02004F0E5FB0F2004F0DCFB2A2004F00E
:1046A000D9FB282004F0D6FB082004F0D3FB0E2011
:1046B00004F0D0FB082004F0CDFB542004F0CAFB2A
:1046C000A92004F0C7FB432004F0C4FB0A2004F037
:1046D000C1FB0F2004F0BEFB002004F0BBFB002058
:1046E00004F0B8FB002004F0B5FB002004F0B2FB9E
:1046F000E12004F0B5FB002004F0ACFB152004F031
:10470000A9FB172004F0A6FB072004F0A3FB11204F
:1047100004F0A0FB062004F09DFB2B2004F09AFB84
:10472000562004F097FB3C2004F094FB052004F095
:1047300091FB102004F08EFB0F2004F08BFB3F2038
:1047400004F088FB3F2004F085FB0F2004F082FB7F
:104750002B2004F085FB002004F07CFB002004F0FB
:1047600079FB012004F076FB3F2004F073FB2A2044
:1047700004F076FB002004F06DFB002004F06AFBDF
:10478000002004F067FBEF2004F064FB112004F02C
:1047900067FB7820FEF712FD292004F061FB03F08F
:1047A0001DB9000004930120FE48808846F60401EC
:1047B00088427CD1112004F053FB1420FEF7FEFC4C
:1047C000D02004F04DFB072004F044FB422004F00D
:1047D00041FB1D2004F03EFBD12004F041FB0020F2
:1047E00004F038FB1A2004F035FB092004F032FBFA
:1047F000D22004F035FB012004F02CFB222004F031
:1048000029FBC02004F02CFB102004F023FB3B20EC
:1048100004F020FB002004F01DFB022004F01AFB32
:10482000112004F017FBC52004F01AFB032004F04C
:1048300011FBC82004F014FB002004F00BFB252022
:1048400004F008FB212004F005FB052004F002FB26
:10485000002004F0FFFA0A2004F0FCFA652004F0BE
:10486000F9FA252004F0F6FA772004F0F3FA502044
:1048700004F0F0FA0F2004F0EDFA002004F0EAFA58
:10488000F82004F0EDFA012004F0E4FAFE2004F030
:10489000E7FA002004F0DEFA022004F0DBFA202020
:1048A00004F0DEFA362004F0DBFA082000E02CE009
:1048B00004F0D0FA3A2004F0D3FA552004F0CAFAF2
:1048C0002B2004F0CDFA002004F0C4FA002004F0FC
:1048D000C1FA012004F0BEFA3F2004F0BBFA2A20FE
:1048E00004F0BEFA002004F0B5FA002004F0B2FA99
:1048F000012004F0AFFADF2004F0ACFA7820FEF7D4
:104900005DFC292004F0ACFA49E7A648808845F20E
:104910001031884240F07C87ED2004F0A1FA01209C
:1049200004F098FAFE2004F095FAEE2004F098FACC
:10493000DE2004F08FFA212004F08CFAF12004F03C
:104940008FFA012004F086FADF2004F089FA1020A3
:1049500004F080FAC42004F083FA8F2004F07AFA7D
:10496000C62004F07DFA002004F074FAE22004F07E
:1049700071FAE22004F06EFAE22004F06BFABF2034
:1049800004F06EFAAA2004F065FAB02004F068FA88
:104990000D2004F05FFA002004F05CFA0D2004F012
:1049A00059FA002004F056FA112004F053FA0020BE
:1049B00004F050FA192004F04DFA002004F04AFAED
:1049C000212004F047FA002004F044FA2D2004F0DE
:1049D00041FA002004F03EFA3D2004F03BFA0020AA
:1049E00004F038FA5D2004F035FA002004F032FAC1
:1049F0005D2004F02FFA002004F02CFAB12004F01E
:104A00002FFA802004F026FA002004F023FA8B20ED
:104A100004F020FA002004F01DFA962004F01AFA9F
:104A2000002004F017FAB22004F01AFA002004F073
:104A300011FA002004F00EFA022004F00BFA002014
:104A400004F008FA032004F005FA002004F002FA4A
:104A5000B32004F005FA002004F0FCF9002004F073
:104A6000F9F9002004F0F6F9002004F0F3F9002031
:104A700004F0F0F9002004F0EDF9002004F0EAF968
:104A8000002004F0E7F9002004F0E4F9002004F02D
:104A9000E1F9002004F0DEF9002004F0DBF9002049
:104AA00004F0D8F9002004F0D5F9002004F0D2F980
:104AB000002004F0CFF9002004F0CCF9002004F02D
:104AC000C9F9002004F0C6F9002004F0C3F9002061
:104AD00004F0C0F9002004F0BDF9002004F0BAF998
:104AE000002004F0B7F9B42004F0BAF98B2004F0E8
:104AF000B1F9002004F0AEF9962004F0ABF90020E3
:104B000004F0A8F9A12004F0A5F9002004F0A2F90E
:104B1000B52004F0A5F9022004F09CF9002004F06F
:104B200099F9032004F096F9002004F093F9042089
:104B300004F090F9002004F08DF9B62004F090F90B
:104B4000002004F087F9002004F084F9B72004F075
:104B500087F9002004F07EF9002004F07BF93F2063
:104B600004F078F9002004F075F95E2004F072F981
:104B7000002004F06FF9642004F06CF9002004F0C8
:104B800069F98C2004F066F9002004F063F9AC2088
:104B900004F060F9002004F05DF9DC2004F05AF91B
:104BA000002001E00493012004F054F9702004F087
:104BB00051F9002004F04EF9902004F04BF9002048
:104BC00004F048F9EB2004F045F9002004F042F924
:104BD000DC2004F03FF9002004F03CF9B82004F098
:104BE0003FF9002004F036F9002004F033F90020EA
:104BF00004F030F9002004F02DF9002004F02AF927
:104C0000002004F027F9002004F024F9002004F02B
:104C100021F9BA2004F024F9242004F01BF9002023
:104C200004F018F9002004F015F9002004F012F93E
:104C3000C12004F015F9202004F00CF9002004F044
:104C400009F9542004F006F9002004F003F9FF20CC
:104C500004F000F9002004F0FDF8C22004F000F98F
:104C60000A2004F0F7F8002004F0F4F8042004F01F
:104C7000F1F8002004F0EEF8C32004F0F1F83C2035
:104C800004F0E8F8002004F0E5F83A2004F0E2F837
:104C9000002004F0DFF8392004F0DCF8002004F0F4
:104CA000D9F8372004F0D6F8002004F0D3F83C20DF
:104CB00004F0D0F8002004F0CDF8362004F0CAF853
:104CC000002004F0C7F8322004F0C4F8002004F0FB
:104CD000C1F82F2004F0BEF8002004F0BBF82C200F
:104CE00004F0B8F8002004F0B5F8292004F0B2F878
:104CF000002004F0AFF8262004F0ACF8002004F007
:104D0000A9F8242004F0A6F8002004F0A3F8242039
:104D100004F0A0F8002004F09DF8232004F09AF895
:104D2000002004F097F83C2004F094F8002004F0F0
:104D300091F8362004F08EF8002004F08BF8322031
:104D400004F088F8002004F085F82F2004F082F8A1
:104D5000002004F07FF82C2004F07CF8002004F000
:104D600079F8292004F076F8002004F073F8262062
:104D700004F070F8002004F06DF8242004F06AF8C4
:104D8000002004F067F8242004F064F8002004F008
:104D900061F8232004F05EF8002004F05BF8C420E2
:104DA00004F05EF8622004F055F8002004F052F898
:104DB000052004F04FF8002004F04CF8842004F0A3
:104DC00049F8002004F046F8F02004F043F80020F1
:104DD00004F040F8182004F03DF8002004F03AF800
:104DE000A42004F037F8002004F034F8182004F070
:104DF00031F8002004F02EF8502004F02BF80020A9
:104E000004F028F80C2004F025F8002004F022F823
:104E1000172004F01FF8002004F01CF8952004F07F
:104E200019F8002004F016F8F32004F013F800201D
:104E300004F010F8E62004F00DF8002004F00AF861
:104E4000C52004F00DF8322004F004F8002004F02E
:104E500001F8442003F0FEFF002003F0FBFF652073
:104E600003F0F8FF002003F0F5FF762003F0F2FFD7
:104E7000002003F0EFFF882003F0ECFF002003F098
:104E8000E9FFC62003F0ECFF202003F0E3FF002041
:104E900003F0E0FF172003F0DDFF002003F0DAFF4E
:104EA000012003F0D7FF002003F0D4FFC72003F058
:104EB000D7FF002003F0CEFF002003F0CBFF00203F
:104EC00003F0C8FF002003F0C5FFC82003F0C8FFAF
:104ED000002003F0BFFF002003F0BCFF002003F020
:104EE000B9FF002003F0B6FFC92003F0B9FF00208E
:104EF00003F0B0FF002003F0ADFF002003F0AAFF95
:104F0000002003F0A7FF002003F0A4FF002003F01F
:104F1000A1FF002003F09EFF002003F09BFF002074
:104F200003F098FF002003F095FF002003F092FFAC
:104F3000002003F08FFF002003F08CFF002003F01F
:104F400089FF002003F086FF002003F083FFE020AC
:104F500003F086FF162003F07DFF002003F07AFFA8
:104F60001C2003F077FF002003F074FF212003F0E2
:104F700071FF002003F06EFF362003F06BFF00206E
:104F800003F068FF462003F065FF002003F062FF96
:104F9000522003F05FFF002003F05CFF642003F069
:104FA00059FF002003F056FF7A2003F053FF002042
:104FB00003F050FF8B2003F04DFF002003F04AFF69
:104FC000992003F047FF002003F044FFA82003F0DE
:104FD00041FF002003F03EFFB92003F03BFF00201B
:104FE00003F038FFC42003F035FF002003F032FF48
:104FF000CA2003F02FFF002003F02CFFD22003F083
:1050000029FF002003F026FFD92003F023FF002012
:1050100003F020FFE02003F01DFF002003F01AFF43
:10502000F32003F017FF002003F014FFE12003F04A
:1050300017FF162003F00EFF002003F00BFF1C20CB
:1050400003F008FF002003F005FF222003F002FF19
:10505000002003F0FFFE362003F0FCFE002003F0EA
:10506000F9FE452003F0F6FE002003F0F3FE522087
:1050700003F0F0FE002003F0EDFE642003F0EAFEF2
:10508000002003F0E7FE7A2003F0E4FE002003F0A6
:10509000E1FE8B2003F0DEFE002003F0DBFE992012
:1050A00003F0D8FE002003F0D5FEA82003F0D2FEC6
:1050B000002003F0CFFEB92003F0CCFE002003F067
:1050C000C9FEC42003F0C6FE002003F0C3FECA20C0
:1050D00003F0C0FE002003F0BDFED22003F0BAFEB4
:1050E000002003F0B7FED82003F0B4FE002003F048
:1050F000B1FEE02003F0AEFE002003F0ABFEF32093
:1051000003F0A8FE002003F0A5FEE22003F0A8FEB5
:10511000052003F09FFE002003F09CFE0B2003F00F
:1051200099FE002003F096FE1B2003F093FE002062
:1051300003F090FE342003F08DFE002003F08AFE81
:10514000442003F087FE002003F084FE4F2003F08C
:1051500081FE002003F07EFE612003F07BFE002034
:1051600003F078FE792003F075FE002003F072FE54
:10517000882003F06FFE002003F06CFE972003F000
:1051800069FE002003F066FEA62003F063FE002007
:1051900003F060FEB72003F05DFE002003F05AFE2E
:1051A000C22003F057FE002003F054FEC72003F096
:1051B00051FE002003F04EFED12003F04BFE0020F4
:1051C00003F048FED62003F045FE002003F042FE27
:1051D000DD2003F03FFE002003F03CFEF32003F04F
:1051E00039FE002003F036FEE32003F039FE0520EF
:1051F00003F030FE002003F02DFE0A2003F02AFE0B
:10520000002003F027FE1C2003F024FE002003F002
:1052100021FE332003F01EFE002003F01BFE44207D
:1052200003F018FE002003F015FE502003F012FEDC
:10523000002003F00FFE622003F00CFE002003F0BC
:1052400009FE782003F006FE002003F003FE88200C
:1052500003F000FE002003F0FDFD972003F0FAFDAF
:10526000002003F0F7FDA62003F0F4FD002003F07A
:10527000F1FDB72003F0EEFD002003F0EBFDC220AE
:1052800003F0E8FD002003F0E5FDC72003F0E2FD98
:10529000002003F0DFFDD12003F0DCFD002003F04F
:1052A000D9FDD52003F0D6FD002003F0D3FDDD208D
:1052B00003F0D0FD002003F0CDFDF32003F0CAFD84
:1052C000002003F0C7FDE42003F0CAFD012003F035
:1052D000C1FD002003F0BEFD012003F0BBFD002056
:1052E00003F0B8FD022003F0B5FD002003F0B2FD8D
:1052F0002A2003F0AFFD002003F0ACFD3C2003F0BA
:10530000A9FD002003F0A6FD4B2003F0A3FD002023
:1053100003F0A0FD5D2003F09DFD002003F09AFD49
:10532000742003F097FD002003F094FD842003F027
:1053300091FD002003F08EFD932003F08BFD0020F3
:1053400003F088FDA22003F085FD002003F082FD1C
:10535000B32003F07FFD002003F07CFDBE2003F0AE
:1053600079FD002003F076FDC42003F073FD0020DA
:1053700003F070FDCD2003F06DFD002003F06AFD09
:10538000D32003F067FD002003F064FDDD2003F06F
:1053900061FD002003F05EFDF32003F05BFD0020C3
:1053A00003F058FDE52003F05BFD002003F052FD03
:1053B000002003F04FFD002003F04CFD002003F01F
:1053C00049FD022003F046FD002003F043FD2920A3
:1053D00003F040FD002003F03DFD3C2003F03AFDCA
:1053E000002003F037FD4B2003F034FD002003F0D4
:1053F00031FD5D2003F02EFD002003F02BFD742015
:1054000003F028FD002003F025FD842003F022FD99
:10541000002003F01FFD932003F01CFD002003F08B
:1054200019FDA22003F016FD002003F013FDB320A8
:1054300003F010FD002003F00DFDBE2003F00AFD77
:10544000002003F007FDC42003F004FD002003F05A
:1054500001FDCD2003F0FEFC002003F0FBFCD32077
:1054600003F0F8FC002003F0F5FCDC2003F0F2FC74
:10547000002003F0EFFCF32003F0ECFC002003F02D
:10548000E9FCE62003F0ECFC112003F0E3FC002033
:1054900003F0E0FC342003F0DDFC002003F0DAFC34
:1054A000562003F0D7FC002003F0D4FC762003F054
:1054B000D1FC002003F0CEFC772003F0CBFC0020D1
:1054C00003F0C8FC662003F0C5FC002003F0C2FC1A
:1054D000882003F0BFFC002003F0BCFC992003F0FF
:1054E000B9FC002003F0B6FCBB2003F0B3FC0020A5
:1054F00003F0B0FC992003F0ADFC002003F0AAFCFF
:10550000662003F0A7FC002003F0A4FC552003F064
:10551000A1FC002003F09EFC552003F09BFC002022
:1055200003F098FC452003F095FC002003F092FC6A
:10553000432003F08FFC002003F08CFC442003F098
:1055400089FC002003F086FCE72003F089FC322070
:1055500003F080FC002003F07DFC552003F07AFC72
:10556000002003F077FC762003F074FC002003F0A9
:1055700071FC662003F06EFC002003F06BFC6720DA
:1055800003F068FC002003F065FC672003F062FC78
:10559000002003F05FFC872003F05CFC002003F098
:1055A00059FC992003F056FC002003F053FCBB206B
:1055B00003F050FC002003F04DFC992003F04AFC5E
:1055C000002003F047FC772003F044FC002003F0A8
:1055D00041FC442003F03EFC002003F03BFC56203D
:1055E00003F038FC002003F035FC232003F032FCEC
:1055F000002003F02FFC332003F02CFC002003F0EC
:1056000029FC452003F026FC002003F023FCE820C1
:1056100003F026FC002003F01DFC002003F01AFC20
:10562000992003F017FC002003F014FC872003F0FE
:1056300011FC002003F00EFC882003F00BFC00207E
:1056400003F008FC772003F005FC002003F002FCC7
:10565000662003F0FFFB002003F0FCFB882003F032
:10566000F9FB002003F0F6FBAA2003F0F3FB002077
:1056700003F0F0FBBB2003F0EDFB002003F0EAFB9E
:10568000992003F0E7FB002003F0E4FB662003F021
:10569000E1FB002003F0DEFB552003F0DBFB0020E4
:1056A00003F0D8FB552003F0D5FB002003F0D2FB1C
:1056B000442003F0CFFB002003F0CCFB442003F098
:1056C000C9FB002003F0C6FB552003F0C3FB0020FC
:1056D00003F0C0FBE92003F0C3FBAA2003F0BAFBF0
:1056E000002003F0B7FB002003F0B4FB002003F020
:1056F000B1FB002003F0B4FBAA2003F0ABFBCF20EA
:1057000003F0AEFB002003F0A5FB002003F0A2FB9A
:10571000002003F09FFB002003F09CFB002003F01F
:1057200099FB002003F096FB002003F093FB002080
:1057300003F090FB002003F08DFB002003F08AFBB8
:10574000002003F087FB002003F084FB002003F01F
:1057500081FB002003F07EFB002003F07BFB002098
:1057600003F078FB002003F075FBF02003F078FBDA
:10577000002003F06FFB502003F06CFB002003F0CF
:1057800069FB002003F066FB002003F063FBF320BD
:1057900003F066FB002003F05DFBF92003F060FBE3
:1057A000062003F057FB102003F054FB292003F0E0
:1057B00051FB002003F04EFB3A2003F051FB552033
:1057C00003F048FB112003F04BFB6420FDF7F6FCCF
:1057D000292003F045FB352003F042FB002003F0B5
:1057E00039FB512003F03CFBFF2003F033FB532037
:1057F00003F036FB2C2003F02DFB552003F030FB8B
:10580000822003F027FB2C2003F02AFB02F0E6B8ED
:10581000FE48808845F2105188427DD155214FF4D1
:10582000704003F02DFBAA214FF2010003F028FB8A
:1058300052214FF2020003F023FB08214FF2030034
:1058400003F01EFB01214FF2040003F019FB0D21B0
:105850004FF4304003F014FB0D214BF2010003F034
:105860000FFB0D214BF2020003F00AFB34214FF431
:10587000364003F005FB34214BF2016003F000FBDE
:1058800034214BF2026003F0FBFA0D214FF431405A
:1058900003F0F6FA0D214BF2011003F0F1FA0D219D
:1058A0004BF2021003F0ECFA34214FF4374003F0CE
:1058B000E7FA34214BF2017003F0E2FA34214BF2A3
:1058C000027003F0DDFA00214FF4324003F0D8FA01
:1058D00000214BF2012003F0D3FA00214BF2022009
:1058E00003F0CEFA24214FF4384003F0C9FA242102
:1058F0004BF6010003F0C4FA24214BF6020003F03A
:10590000BFFA01214FF43F4003F0BAFA0F214FF4E0
:10591000334003F0B5FA00E0FDE30F214BF2013014
:1059200003F0AEFA0F214BF2023003F0A9FA342152
:105930004FF4394003F0A4FA34214BF6011003F080
:105940009FFA34214BF6021003F09AFA08214FF423
:10595000354003F095FA08214BF2015003F090FA1C
:1059600008214BF2025003F08BFA03214FF442401E
:1059700003F086FA24214FF43A4003F081FA2421FF
:105980004BF6012003F07CFA24214BF6022003F0B1
:1059900077FA00214FF43C4003F072FA78214BF67D
:1059A000014003F06DFA00214BF6024003F068FA63
:1059B00000214FF43D4003F063FA78214BF601508B
:1059C00003F05EFA00214BF6025003F059FA002171
:1059D0004FF43E4003F054FA64214BF6016003F0AB
:1059E0004FFA00214FF4514003F04AFA33214DF2AF
:1059F000011003F045FA00214DF2021003F040FAC5
:105A000034214DF2031003F03BFA00214DF2041053
:105A100003F036FA3A214DF2051003F031FA002175
:105A20004DF2061003F02CFA4A214DF2071003F054
:105A300027FA00214DF2081003F022FA5C214DF202
:105A4000091003F01DFA00214DF20A1003F018FAB4
:105A500081214DF20B1003F013FA00214DF20C10CE
:105A600003F00EFAA6214DF20D1003F009FA002101
:105A70004DF20E1003F004FAE5214DF20F1003F081
:105A8000FFF901214DF2101003F0FAF913214DF244
:105A9000111003F0F5F901214DF2121003F0F0F9A5
:105AA00054214DF2131003F0EBF901214DF21410C3
:105AB00003F0E6F982214DF2151003F0E1F901211E
:105AC0004DF2161003F0DCF9CA214DF2171003F065
:105AD000D7F902214DF2181003F0D2F900214DF24E
