:020000040800F2
:1000000020FB01205D02000867050108D99F000858
:1000100063050108BB100008172901080000000053
:100020000000000000000000000000009D0100082A
:100030008511000800000000F9010008ED12010818
:1000400077020008770200087702000877020008AC
:10005000770200087702000877020008770200089C
:10006000770200087702000877020008770200088C
:10007000770200087702000877020008770200087C
:10008000770200087702000877020008770200086C
:10009000770200087702000877020008770200085C
:1000A000770200087702000877020008770200084C
:1000B0002516010877020008770200087702000879
:1000C000770200087702000877020008770200082C
:1000D000770200087702000877020008770200081C
:1000E000770200087702000877020008770200080C
:1000F00077020008770200087702000877020008FC
:1001000077020008770200087702000877020008EB
:1001100077020008770200087702000877020008DB
:1001200077020008770200087702000877020008CB
:1001300077020008770200087702000877020008BB
:1001400077020008770200087702000877020008AB
:10015000770200087702000877020008770200089B
:10016000770200087702000877020008770200088B
:1001700077020008770200087702000800000000FC
:100180007702000877020008DFF80CD000F08EFC40
:1001900000480047B958020820FB01202C4B196881
:1001A0000868B0E8F04F80F30988BFF36F8F4FF015
:1001B000000080F3118870470000000008480068C4
:1001C000006880F308884FF0000080F3148862B65E
:1001D00061B6BFF34F8FBFF36F8F00DF00BF00BF6B
:1001E00008ED00E0DFF80C00016841F470010160E7
:1001F000704700BF88ED00E0EFF30980BFF36F8F19
:10020000134B1A681EF0100F08BF20ED108A20E96A
:10021000F04F106009B44FF0500080F31188BFF325
:100220004F8FBFF36F8F26F09FF94FF0000080F3E0
:10023000118809BC19680868B0E8F04F1EF0100F6B
:1002400008BFB0EC108A80F30988BFF36F8F704746
:1002500004070020EFF30580704700000648804740
:1002600006480047FEE7FEE7FEE7FEE7FEE7FEE79B
:10027000FEE7FEE7FEE7FEE7D51301088901000867
:100280002DE9F05F0546002092469B4688460646CB
:10029000814640241BE0284641464746224600F05E
:1002A000FEFA53465A46C01A914110D311461846D9
:1002B000224600F0E5FA2D1A67EB01084F46224668
:1002C0000120002100F0DCFA17EB00094E41201E4E
:1002D000A4F10104DFDC484631462A464346BDE826
:1002E000F09F00000649074A0868504343F239026C
:1002F00010440860400870470149086070470000DA
:100300002C0E00206D4EC64110B5431A934209D2FF
:100310008318881803E010F8011D03F8011D521E10
:10032000F9D210BD40EA01039B0703D009E008C9D8
:10033000121F08C0042AFAD203E011F8013B00F8AA
:10034000013B521EF9D210BDD2B201E000F8012BE0
:10035000491EFBD270470022F6E710B513460A4645
:1003600004461946FFF7F0FF204610BD421E12F862
:10037000013F002BFBD111F8013B02F8013B002BA0
:10038000F9D17047421C10F8011B0029FBD1801ADB
:10039000704710B5002200E0521C835C8C5CA342C5
:1003A00001D1002BF8D1D8B2E1B2401A10BD30B55E
:1003B00004460020034600E05B1C934203D2E05C4D
:1003C000CD5C401BF8D030BD034611F8012B00F87E
:1003D000012B002AF9D1184670472DE9FE4F8046BF
:1003E00081EA0300C00F0C46009021F0004123F089
:1003F0000045B8EB0200A94105D24046214690468F
:100400001C460B46024623F00040104347D0270D00
:10041000C7F30A00C3F30A510290401A0190402822
:100420006BDAC3F3130040F4801B0098924620B1AE
:100430000023D2EB030A63EB0B0B01985946C0F182
:100440004002504600F01CFA06460D4650465946FA
:10045000019A00F034FA10EB08006141002487EAA9
:10046000115284EAE7731A4340D0009A62B3019AAA
:10047000012A4FEA075215DC001B61EB02014FF025
:10048000004202EA0752CDE90042001C41F580110A
:1004900032462B4600F06BFA03B0BDE8F08F4046C1
:1004A0002146F9E7001B61EB0201001C41F58013B6
:1004B00000185B412018A2F5001747EB030140EA42
:1004C000D570B6196D4111E06D084FEA360645EA60
:1004D000C0754FEA0752001B61EB0201001C41F599
:1004E000801149084FEA30000019514132462B462D
:1004F00003B0BDE8F04F00F02BBA00980122400095
:100500000023D0EB020263EBE073009821464FEA30
:10051000E074B8EB000061EB0401E9E783F000430D
:100520005BE781F0004158E72DE9FE4F81EA0304C3
:1005300004F0004421F0004100944FF0000B23F040
:10054000004350EA01045ED052EA03045BD0C3F3D7
:100550000A54C1F30A552C44A4F2F3340194A0FBCD
:100560000254C1F3130141F48011C3F3130343F4A4
:10057000801301FB024400FB034E840A970A44EAFD
:10058000815447EA8357A4FB076802958D0A05FB4F
:1005900007854FEA932C04FB0C542705029D4FEA74
:1005A000065847EA1637B5EB08056EEB070C870EC1
:1005B000920E47EA811742EA8312A7FB0201B6EBCB
:1005C0000B0164EB00042B0D43EA0C335E1844EB83
:1005D0001C50DA465146E7FB0201C5F313044FEA0B
:1005E0000B3343EA14534FEA0432019C43EA0603F7
:1005F000A4F10C040294009CCDE900B400F0B7F91A
:1006000003B0BDE8F08F00200146F9E72DE9F04D79
:1006100081EA030404F0004B21F0004514464FF03A
:10062000000A23F0004150EA050220D054EA0102FA
:100630001DD0C5F30A570246C5F31303C1F31300D7
:10064000C1F30A5640F4801543F48013A7EB060863
:10065000101BD64608F2FD3873EB050002D308F1F3
:10066000010801E092185B41B8F1000F03DA0020A5
:100670000146BDE8F08D00204FF480110646844607
:100680000EE0171B73EB050705D3121B63EB050385
:1006900006434CEA010C49084FEA300092185B41CE
:1006A00050EA0107EDD152EA030012D082EA0400B9
:1006B00083EA0501084305D0101BAB4106D2012295
:1006C000002306E000224FF0004302E06FF0010239
:1006D00053101AEB06004CEB085110EB0A0041EBEB
:1006E0000B01BDE8F04D00F033B90EB5C10F80EA43
:1006F000E0700844CA07002140F233438DE80E0041
:100700000A460B4600F033F903B000BD0EB540F2C7
:10071000334102910021CDE900110A460B4600F059
:1007200026F903B000BD70B5C1F30A5201F00045CF
:100730000024C1F3130140F2FF3341F480119A42C7
:1007400001DA002070BD40F233439A42A2F23342F4
:1007500003DC524200F0A3F800E090402C43F1D0BB
:10076000404270BDC1F30A5210B5C1F3130140F20B
:10077000FF3341F480119A4201DA002010BD40F2AB
:1007800033439A42A2F2334203DC524200F087F82C
:1007900010BD904010BD00F0004230F000400AD083
:1007A000C10D01F56071C0F3160042EA0151C208A3
:1007B00040071143704700200146704730B5041EC2
:1007C00071F1000404DB4FF00044404264EB01018E
:1007D000141E73F1000405DB1C464FF00043524227
:1007E00063EB04038B4208BF824230BD30B5041E68
:1007F00071F1000404DB4FF00044404264EB01015E
:10080000141E73F1000405DB1C464FF000435242F6
:1008100063EB0403994208BF904230BD01F00043EE
:1008200030B421F0004150EA010206D00A0DA2F5D1
:100830006072C1F31301002A02DC30BC0020704753
:10084000440F44EAC104C100E01830BC00EBC250C0
:1008500000F047B830B50B460146002020220124A5
:1008600009E021FA02F59D4205D303FA02F5491B7E
:1008700004FA02F52844151EA2F10102F1DC30BD94
:10088000202A04DB203A00FA02F100207047914050
:10089000C2F1200320FA03F3194390407047202A45
:1008A00004DB203A21FA02F00021704721FA02F31A
:1008B000D040C2F120029140084319467047202AD7
:1008C00006DBCB17203A41FA02F043EAE07306E078
:1008D00041FA02F3D040C2F1200291400843194688
:1008E00070470029A8BF7047401C490008BF20F08E
:1008F0000100704710B4B0FA80FC00FA0CF050EA26
:10090000010404BF10BC704749B1CCF1200421FAA6
:1009100004F411FA0CF118BF012121430843A3EBA1
:100920000C01CB1D4FEA00614FEA102042BF0020AE
:1009300010BC704700EBC35010440029A4BF10BC8A
:100940007047401C490008BF20F0010010BC7047F0
:1009500010B5141E73F1000408DA401C41F10001C7
:1009600092185B411A4301D120F0010010BD2DE91E
:10097000F04D92469B4611B1B1FA81F202E0B0FA15
:1009800080F220329046FFF77BFF04460F4640EA94
:100990000A0041EA0B0153465A46084313D0114658
:1009A00053EA010019D0C8F140025046FFF777FF23
:1009B00005460E46504659464246FFF761FF08433A
:1009C00005D0012004E020463946BDE8F08D002026
:1009D000054346EAE0762C4337430A986305E40A68
:1009E000A0EB08000022FD0A44EA47540A3002D571
:1009F00000200146E9E7010510196941DDE90845D4
:100A000000196941BDE8F04DA2E72DE9F04D002342
:100A10001A461B1A8A4103DB00200146BDE8F08D0F
:100A2000C1F30A52C1F3130141F480154FF0000BDA
:100A3000D10702D100186D41521E0027044640F232
:100A4000FF11384601EB620A3E468046024600200E
:100A50004FF48011FFF723FFC2197141BB1846EB19
:100A60000100B4EB030C75EB000C04D3E41A65EB46
:100A7000000517460E46241908F101006D41804615
:100A80003428E3DDF91946EB0600091BA84103D21F
:100A90004FF0FF32134601E0002213461BEB070024
:100AA00046EB0A51BDE8F04DFFF752BF064C074D2B
:100AB00006E0E06840F0010394E80700984710342E
:100AC000AC42F6D3FFF764FB242907084429070842
:100AD00070B58C1810F8015B15F0070301D110F800
:100AE000013B2A1106D110F8012B03E010F8016B2D
:100AF00001F8016B5B1EF9D12B0705D40023521EB0
:100B00000DD401F8013BFAE710F8013BCB1A921C17
:100B100003E013F8015B01F8015B521EF9D5A14215
:100B2000D8D3002070BD10B509F080FA10BD2DE9B2
:100B3000F04107460C460026002509E03602391927
:100B4000491B491E88B200F008F80644681CC5B26B
:100B5000A542F3DB3046BDE8F08170B504460026BF
:100B600009F002FB2546E11704EB11610912A022EE
:100B700002EB4101C8B209F0C3FA09F03FFBE117EB
:100B800004EB11610912A4EB0121C8B209F0B8FA13
:100B900009F034FB09F0E8FAA12009F0B1FA09F0F4
:100BA0002DFB002009F076FA064609F003FB3046DB
:100BB00070BD2DE9F04105460E461746002409E0B8
:100BC000E20026FA02F2D1B22A1990B200F006F839
:100BD000601CC4B2BC42F3DBBDE8F08170B50446D2
:100BE0000E4609F0C1FA2546E11704EB116109121E
:100BF000A02202EB4101C8B209F082FA09F0FEFA24
:100C0000E11704EB11610912A4EB0121C8B209F04C
:100C100077FA09F0F3FA304609F072FA09F0EEFAC1
:100C200009F0C8FA0A2008F00FF870BD002800DCAF
:100C30004042704738B5456804460146284611F0E1
:100C400093FE00282AD02068304A0F2819D006DCED
:100C50000B2824D00C2810D00E2851D12FE01128B9
:100C600002D028284CD145E09268002A16D02146AF
:100C7000284601B0BDE8304010472146284652685A
:100C8000F7E7284603F06EFD0090406E0468684662
:100C900003F0D2FD002C01D02846A04738BD2846DD
:100CA00003F060FD0090683003F0ACFC0098032175
:100CB0006C3003F0B5FC684603F0BEFD20E0E1684F
:100CC000486809680D2902D0202913D105E00028C1
:100CD00010DD28461EF02FFF06E0002804DD284620
:100CE000BDE838401EF027BF2846BDE83840022145
:100CF0001EF037BFE06818B90021284600F09AF9C5
:100D00002046BDE8384012F00DBA0000C0080020AF
:100D1000F0B5044685B08069B4F90850668A0027AA
:100D2000CDE90265CDE900170490B4F90C00B4F9DF
:100D30001060C118B4F90A00B4F90E5010443346DB
:100D40002A4600F007F80546616800F089F905B009
:100D50002846F0BD2DE9F04F85B01F46DDE911B4FE
:100D6000DDE90E5690468946824605F001F94C347D
:100D70001548CDE90204CDE900563B4642464946B6
:100D8000504612F015F9040018D003F0EBFC1022C5
:100D90005946049012F036F8049830220B4934304A
:100DA000FFF7B2FA094D04990C3D2868486604A87B
:100DB00003F042FD286841682046884706F0D2FDCE
:100DC00005B02046BDE8F08F350C0008CC080020A7
:100DD000F0B5044680688B4989B051F820506068AE
:100DE00000287DD0052804D006287AD0122879D191
:100DF000AEE0E86900284FD095E80E008DE80F00BE
:100E000004F110010FC907F041FA002655F8260039
:100E100006F033F9A169E8690A1A21690144606999
:100E2000304404F0B3FDA169E8690A1A216901445C
:100E3000E069801B04F0AAFDE169E8690A1A6169AA
:100E400001442069304404F057FEE169E8690A1A58
:100E500061690144A069801B04F04EFE761C022EDD
:100E6000D4DBA86806F009F9E069E9696669431A04
:100E700020694218521E3144801C04F0BFFEE16913
:100E8000E869A2690B1A61690144101A401C921E9C
:100E900004F0B4FEEE6913E05FF0000655F826009A
:100EA00006F0EBF8E069831BA069821B6069811979
:100EB0002069304404F0E0FD761C022EEEDB0226B1
:100EC000D5E90301CDE900016169E06908444310F7
:100ED000A069891C821B2069304404F0F1FC02E007
:100EE00089E012E08AE0D5E90501CDE90001E36976
:100EF00060690121184401EB6001A0699B1E821BFF
:100F00002069304404F0DCFC78E0206803F02AFC1F
:100F10000490206813F0DCFD40B1A06808B1002007
:100F200008E00498006F28B1012003E00498406FA6
:100F300000B10220049901EB8000C56E04A803F003
:100F40007BFC00231A462846216804F037F955E057
:100F5000206803F007FC0490866EEEB3B0F95C7075
:100F6000A168D1B3032942D05FF0000100EB8101F9
:100F7000406D0C6C06F0AAF8204606F07EF805A835
:100F800004F0FEFEBDF81410A88B0144ADF8141057
:100F9000BDF81810081AADF81800BDF81600801C2E
:100FA000ADF81600BDF81A00801EADF81A000498BE
:100FB0005E30B0F90220B0F9001005A805F0D2FDAE
:100FC00004A803F039FC022006F00AF9304603F0C9
:100FD000C9FB3A4605A901E00BE006E0079004F0E2
:100FE00065FA07A803F028FC08E00121BEE702210A
:100FF000BCE704A8F6E7206813F0A6F909B00020C2
:10100000F0BD000048030708044A03491160044981
:101010004A6A486210467047FC080020C008002059
:10102000CC08002000294FF0100101D011F02BBD99
:1010300011F073BC4FF480720029114601D011F0F9
:1010400022BD11F06ABC0000034802494160034917
:1010500081607047D7110208C0080020C90B020840
:101060002DE9FF410E4605004FF0010421D004F0A8
:101070007FFF284603F076FB0190876E01A800975A
:1010800003F0DAFB3146684607F05CFC78B1009863
:101090000024B84208D0284603F064FB0190009970
:1010A000816601A803F0C8FB284612F0BBFD06F0DC
:1010B00059FC04B02046BDE8F08100BFFEE7000007
:1010C0007CB5214C0546216831F8220F4A8D104429
:1010D00008804888CA8D10444880284604F02AFEBB
:1010E0002168498CADF800104618284607F0C6FA6A
:1010F0003044401EADF8040004F06CFE2168898C79
:10110000ADF802100844401EADF80600684613F022
:1011100073FB04E0284600F047FF13F0E7FA0028CD
:10112000F8D10A2D04D0BDF804002168401C488481
:10113000206830F8221F428D891A01804188C28DB3
:10114000891A41807CBD0000BC0700200B48006864
:10115000018990F8702011FB02F309490B80438943
:1011600013FB02F34B8083895B1C53435B1E8B8014
:10117000C089401C5043401EC8807047BC070020F7
:1011800090070020704700002DE9FC5F15460746D8
:10119000DFF89C8028440190D8F800001C460E46D9
:1011A000C06E01EB04094946426801989047781BDC
:1011B0000090D8F800004946C06E426800989047F9
:1011C000D8F8000006EB050B07EB0409C06E594682
:1011D000426848469047D8F80000A6EB050A5146F9
:1011E000C06E426848469047002C1ED0D8F80000D8
:1011F000361B4546C06E31464268019890472868C4
:101200003146C06E42680098904728683C1B59469A
:10121000C06E42682046904728685146C06E4268BA
:1012200002B02046BDE8F05F1047BDE8FC9F00001B
:10123000BC07002070472DE9F047456804468EB092
:101240000026284603F08EFA00905C30B0F820A00B
:10125000D0F80C90D0F82480C76A006800B1066806
:10126000684603F0E9FA05E07968204688470028D7
:101270003DD13F68002FF7D12068142844D009DC05
:10128000A0F10B00072839D2DFE800F0BE3989B49D
:1012900034B4110020287ED004DC17283ED01E284C
:1012A0002CD14BE026283CD02A2827D110E0284614
:1012B000E66803F057FA0190717A39B9317A012959
:1012C00004D130F87C1F41F48071018001A88FE0C7
:1012D000284603F047FA0090E16811B1C0F8841085
:1012E00002E0D0F88400E060684603F0A5FA0EB092
:1012F000BDE8F087002E7DD02846B0477AE0214631
:1013000028461FF0D3FCF2E705A9284600F02BFC85
:10131000E0680699016007994160E8E7C4F80C901D
:10132000E5E7E0680228E2D10C95E0680D902720FF
:101330000A900AA9A06813F0E5FDD8E7E068012843
:1013400004D00021284600F03EFBD0E7404612F0D2
:10135000D6FC58B1404612F071FF404612F08EFBA9
:1013600088B10121404611F08EFB0CE0484612F096
:10137000B9FF8046284603F0F5F90090C0F8808058
:10138000684603F059FA0121284600F01CFBB8F129
:10139000000FACD100E00EE00020E060A7E75FEABC
:1013A0000A7027D4E068C06820B3007A10B32846DA
:1013B00012F044FF1EE0E668E6B12946706813F0BB
:1013C00070FB20B10121284621F068FA12E00021CB
:1013D000284621F063FA2946306813F051FB48B1E2
:1013E000284603F0BFF903903168C0F8801003A8C5
:1013F00003F022FA2146284611F0B6FA00288CD0D4
:10140000204611F08FFE72E7284603F0ABF90090FA
:10141000703003F0F7F86846EAE7F0B587B0B0F946
:1014200008400DF10C0C0C9E87694568ACE8F00093
:10143000448A0025CDE900150294B0F90C10B0F9EA
:101440001050B0F90E40B0F90A00194410442B4670
:10145000224600F003F807B0F0BD00002DE9F04F80
:101460008BB09846DDE9155691468A468346149F0F
:101470001A9C04F07DFD6034314845F48055CDE977
:101480000204CDE9007543464A465146584611F0DC
:101490008FFD04004DD003F065F9302204901799B8
:1014A00011F0B0FC0498282226493430FEF72CFFB6
:1014B000049819995C30234F8160068400264662A7
:1014C0000661083FC6627968016004A803F0B4F9B8
:1014D00005A9204600F047FB1B4841F282710396A4
:1014E0000094CDE90110BDF91E00BDF91A10BDF937
:1014F0001C20431ABDF918005B1C121A521C11F073
:1015000057FD06467868416820468847204603F024
:1015100029F90490866604A803F08EF942F20400CB
:10152000054202D1204611F09DFE2046189900F098
:10153000C3FA06F017FA0BB02046BDE8F08F0000A2
:101540003712000890090020251D00082DE9F04100
:10155000044694B0006800F0B7F908B1D94D01E035
:10156000D84D2C35606815281ED00CDC0B281FD0F8
:1015700004DC00287ED005287DD12EE10E287BD00A
:101580001228F9D141E1162806D0172808D01828CA
:1015900008D01C28F0D109E0E86914B0BDE8F0815A
:1015A000286AFAE7686AF8E7A86AF6E76869F4E77C
:1015B00020680B901C200C90206803F0D3F8039057
:1015C000016D0BA88847064603A803F035F9022EE3
:1015D0000EDB95E807008DE80700D4E904023346E6
:1015E000A16906F019FE20698719A069801B2BE00C
:1015F000286805F042FD2169E8690A18521E6069F1
:1016000004F0C4F9A269E869111A491C606904F080
:10161000BDF9676920697F1C394604F007FA39462D
:10162000A06904F003FA686805F027FD20693946CF
:10163000401C04F0FBF9A0693946401E04F0F6F99D
:101640002769A069BF1C801E8046286805F015FD2B
:1016500042463946606904F099F9686805F00DFD65
:1016600060694246401C394604F090F9686A0228D5
:101670000FDD02E015E1AFE000E1A86805F0FDFC38
:1016800061696A6A881C8B1801465B1E42463846AF
:1016900027E0296AB14226DD6069022E074600F183
:1016A000020801DB374401E007F10207206901DB92
:1016B000304401E000F1020022693B460A44A2F1F5
:1016C0000102414604F09AFA022E02DBA069821B55
:1016D00001E0A269921EA069E9693B46401A401CDC
:1016E000414604F08BFA022E02DB6069064401E0F9
:1016F0006669B61CE76928687F1E05F0BEFC3A469D
:101700003146206904F0F8F93A463146A06904F000
:10171000F3F9E7696868BF1E05F0AFFC20693A4637
:10172000401C314604F0E8F9A0693A46401E3146B3
:1017300004F0E2F9E869022802DC286A022823DDC5
:10174000A86A022802DDE1690F1A01E0E769BF1EFD
:10175000A86805F092FCE969022909DD20693B4689
:10176000421800F1020C521E3146604604F046FA5F
:10177000286A022808DDA269E8693B46101A401C65
:10178000921E314604F03AFA286805F076FCD4E956
:101790000620216904F0FAF8686805F06EFCA26979
:1017A0002169E069521E491C401E04F0EFF8A86A46
:1017B000022811DD2669A169E469B61C271AA1F186
:1017C00002087F1CA41EA86805F057FC2346424669
:1017D0003946304604F012FA72E0208A06B2ADF8BB
:1017E0001460A08A01B2ADF81610208B02B2ADF8D9
:1017F0001820A08B03B2ADF81A30D5E90304CDE967
:101800000004304604F05CF85AE0208A298B084432
:10181000ADF81400A08AADF81600208B298B401A71
:10182000ADF81800A08BADF81A00206802F09AFFFE
:101830000390006FF0B1022005F0D2FC039991F8FB
:101840007C00C0F3C00001EB8000006C05F015FCCB
:101850000398406B05F03AFC0398006F02F082FF9A
:1018600003990A90B1F95A2005A903F01FFE0AA8AE
:1018700002F0E2FF03A802F0DFFF21E0208AADF8CA
:101880001400A08AADF81600208BADF81800A08BCC
:10189000ADF81A00A86805F0F0FB05A804F0DAF925
:1018A0000EE0206802F05EFF039030F85A1F41F00E
:1018B0000C01018003A802F0BFFF206812F044FD74
:1018C00000206AE6CC09002038B505004FF000047E
:1018D0000FD004F04DFB284602F044FF009090F832
:1018E0007C00000700D50124684602F0A5FF06F041
:1018F00039F8204638BD0000022905D2034A52F8C3
:1019000021102C22FEF700BD704700005803070885
:1019100030B504468BB0006802F024FF009090F8C8
:101920007C10246A006FC1F3C00508B102F01AFFF1
:101930000690E068029020690390A088401EADF8F0
:101940001000E089ADF812002089401CADF81400A9
:10195000608AADF81600BDF80800401CADF808001C
:10196000BDF80A00401CADF80A00BDF80C00401E8E
:10197000ADF80C000098406B05F0A8FB009808AA91
:1019800002A9B0F95A30069806F0A2F8009800EBC8
:101990008500806B0DF02AF9009800EB8500006C43
:1019A0000DF05CF908AB02AA04A9069811F048F9F9
:1019B000684602F041FF069810B106A802F03CFF0D
:1019C0000BB0002030BD70B50D46040009D004F006
:1019D000CFFA2946204620F061FFBDE8704005F0AF
:1019E000C1BF70BD022803D2024A02EB80004160F1
:1019F000704700009009002001490860704700000E
:101A000090090020074A0649054B1160064A083B29
:101A1000D16958601B68C2E906300846704700006B
:101A2000C00900208C09002090090020024AB2F968
:101A30002610D084084670479009002038B50C461F
:101A4000054604F095FA55B1284602F08BFE009049
:101A50000466684602F0F0FE284612F0E3F8BDE89E
:101A6000384005F07FBF000070B50D460146022DDD
:101A70001ED2104C2C2254F82500FEF745FC54F8D9
:101A800025100220CA69022A00DAC86154F825101C
:101A90000A6A022A00DA086254F825104A6A022A01
:101AA00000DA486254F825108A6A022A00DA88624D
:101AB00070BD0000580307087CB50D4604001DD01A
:101AC00004F056FA204602F04DFE0090006F01909F
:101AD000684602F0B1FE294601A806F033FF58B16E
:101AE000204602F03FFE009001990167684602F02F
:101AF000A3FE204612F096F805F034FF7CBD38B501
:101B00000C46050013D004F033FA284602F02AFEF2
:101B10000090B0F95A10A14204D0A0F85A402846CB
:101B200012F080F8684602F087FE05F01BFF38BD12
:101B300038B50C46050015D004F01AFA284602F014
:101B400011FE0022CDF8000000EB8201521C0C6453
:101B5000022AF9D3684602F06FFE284612F062F8B6
:101B600005F000FF38BD2DE9F34F85B000270C4686
:101B7000B846059802F0F6FD0090C06D0121856819
:101B800005982A68904782462A680321059890475D
:101B900004902A6802210598904703902A68002142
:101BA000059890470646009812F017FE8346009865
:101BB00012F01AFE8146009890F83210890601D57D
:101BC000B0F9588000F036F805460098C06E10B1A4
:101BD00011F076FD074625806780A4F804A0049ADA
:101BE000ABEB020006EB0802401E2A4420813A4477
:101BF000E280039BA9EB0302521E6281A4F80CA0B1
:101C000020827019E681401E6082684602F014FE50
:101C1000B4F90C000190B4F91000029002AA01A9D5
:101C2000059800F039F80198A0810298208207B049
:101C3000BDE8F08F10B50146002091F832209206E1
:101C400007D5B1F95400002803D1486B04F033F9EB
:101C5000801C10BD70B58AB00C46054602F082FDAE
:101C60000990C06D866809A802F0E6FD009534B1C0
:101C7000012C06D0022C0BD0032C04D10AE0182032
:101C800000E0162001907168684688470AB070BD70
:101C90001520F7E71720F5E72DE9FC479046894620
:101CA000044602F05FFD0090C16D056868468E68CD
:101CB00002F0C2FD326800212046904706462046C9
:101CC00011F0A3FB2F1404462DB227E002F04AFDC9
:101CD0000190B0F90010B0F90420B0F90230491BAE
:101CE000521BDB1BB34212D190F82800000607D527
:101CF000D8F8000088420ADB491EC8F8001006E048
:101D0000D9F80000904202DC521CC9F8002001A85A
:101D100002F092FD204611F01DFC0446002CD5D1A6
:101D2000BDE8FC872DE9F0430446406885B00646CF
:101D300011F02EFC814602F015FD0090D0F8808055
:101D4000876C456E684602F077FD2068172859D0E9
:101D500008DC0E2837D00F280BD0142852D01528B5
:101D60003AD14FE01E2818D01F2827D0222833D17F
:101D700046E06FF07040874204D038460CF036FFE2
:101D800003F09EF8002D12D0D4E902122068CDE9AC
:101D90000106CDE9031201A822E0E068002806D080
:101DA0005FEA080006D0B04504D012F047FA05B04B
:101DB000BDE8F083304612F095FA16E02146484619
:101DC00010F0D2FDF3E7E0684168002904DD006807
:101DD0000928EFD00A2805D0A5B12046C4F8049000
:101DE000A847E4E7304612F08CFA0446484602F071
:101DF000B9FC0090C0F88040684602F01DFDD6E7AF
:101E0000E760D4E7204611F08DF9D0E770B50446BD
:101E10001D460023B5F5804F13D154F822300C48ED
:101E20000340D1E9000640EA06108E6840EA062029
:101E30008E8940EA06408E693043034344F82230DD
:101E400003E06FF0704044F82200002070BD0000F5
:101E50000000F0CF10B503460022086853F8202098
:101E600012480240D1E901042043CC6820430C69A8
:101E700020434C6920438C692043CC6920430C6A81
:101E800020434C6A20438C6A2043CC6A2043CC6BAD
:101E900020430C6B204302438868082801D142F09C
:101EA0004002086843F82020002010BD8000F0FFA9
:101EB00030B503460024501C53F8204004F0404441
:101EC000D1E9000540EA05108D6840EA05208D89BA
:101ED00040EA0545088A401E45EA0055087D801EF7
:101EE00045EA00608D6928430443501C43F82040B4
:101EF000002030BD2DE9F74F14468A4602FB04F05E
:101F000002EBD47100EB61062649AAEB04080AEB48
:101F100004090868406948B1B0F906204A4500DA6A
:101F20009146B0F90200404500DD80460125274674
:101F30008B4616E0AAEB0501414511DB49450FDC54
:101F400005FB05F007FB0702B24201DD7F1EF9E742
:101F5000DBF800300098DB6EC219C01B1B68984785
:101F60006D1CA542E6DB0025274616E00AEB0501BD
:101F7000414511DB49450FDC05FB05F007FB070276
:101F8000B24201DD7F1EF9E7DBF800300098DB6E1E
:101F9000C219C01B1B6898476D1CA542E6DBBDE853
:101FA000FE8F0000BC07002010B504460A2812D09E
:101FB0000D2C14D003F0DCFF09480068C0690168EB
:101FC000204688470748016809B120468847BDE890
:101FD000104005F0C7BCBDE8104003F08DB910BD3E
:101FE000BC070020E40700202DE9F0430446C56843
:101FF00087B090468946002005F05CF8064625B17A
:10200000287910B146F0020001E026F0020005F048
:1020100051F82069012558B1D4E902128DE8260053
:10202000039563882288046841464846A0471EE01D
:10203000124F134B214638681B68427CE068984772
:1020400030B9E088012801D0002001E03868806BB9
:10205000A288E388A1680095CDE90410CDE9023299
:10206000019563882288414648460BF06BFD07B016
:102070003046BDE8F04305F01DB80000BC07002065
:10208000B40700202DE9F0478146884640F2C3207E
:1020900050434FF47A7190FBF1F502FB02F002EB32
:1020A000D27100EB61066D1C17460023414648467D
:1020B000FFF76AF8012413E004FB04F007FB0700B4
:1020C000B04206DD3B46224641464846FFF75CF8F3
:1020D0007F1E3B46224641464846FFF755F8641CA2
:1020E000AC42E9DDBDE8F0871CB50024019401ACE9
:1020F000009400F0E7F81CBD2DE9FF4F83B0814646
:1021000006988A46A0EB0A08109E00200090A2EBD9
:1021100009043568934654EA080018D02046FEF7B3
:1021200085FD07464046FEF781FD87420BDA2046D3
:10213000444680464846D14682465846DDF818B0A7
:10214000069001200090002C07DD204606E007B035
:102150004846BDE8F04F00F03BB96042A0420AD0CB
:102160004846D9466442C8F1000883464FF0FF371D
:10217000DDF818A000E001275148B8F1000F11D098
:1021800004EBD4714FEA610B01DACBF1000B4C4840
:102190000068807E88B3002F02DA30682044306007
:1021A00000257BE000990029016821D0897E11B1CA
:1021B0000027804615E007B05A4649465046BDE81C
:1021C000F04F0BF08DBE28466D1C20F0C3FD38B9D2
:1021D000D8F8000009EB0701C06E426850469047EE
:1021E0007F1CA742EFDD6D1E356007B0BDE8F08FA4
:1021F0008A7E1AB10027804617E019E0C86E5A4659
:102200005146036807B04846BDE8F04F18472846D6
:102210006D1C20F09FFD38B9D8F8001009EB0700BD
:10222000C96E4A68514690477F1CA742EFDDDAE746
:1022300000250FE008FB05B090FBF4F101EB0A006C
:10224000009951B11E4A09EB05011268D26E52681D
:1022500090476D1CA542EDDDC7E7194909EB050361
:102260000968C96E4A6801461846F1E708FB05B0DF
:1022700090FBF4F101EB0A000190306838443060C3
:1022800020F068FD48B9009890B10D4809EB0501B0
:102290000068C06E4268019890476D1CA542E5DD5C
:1022A0003068002F01DA20443060C01B30609CE7AA
:1022B000034909EB05000968C96E4A680199EBE713
:1022C000BC0700202DE9FF470F46404916468046CF
:1022D00009680C981D460A7E012A1CD0A8EB06004E
:1022E000791B50EA01031CD0A2F1010922F0EAFC9B
:1022F00000F58060824606F04DFC00FB09F4504674
:1023000006F04CFC00FB09F1002C0CDAC4F500705F
:10231000801240420AE00090324639464046FFF7BC
:10232000EBFEBDE8FF8704F50074A012002904DA73
:10233000C1F5007189124C4202E001F500718C1266
:10234000002804DD411C01EBD171491003E000EBD2
:10235000D0714910401E00EBD0704210002C04DDFB
:10236000601C00EBD070401003E004EBD470401010
:10237000641E04EBD47308EB0104ADF800403C1874
:10238000ADF80240A8EB02045B10B21AADF80440AD
:10239000ADF808203144FC1AEA1AADF80C102844B4
:1023A000ADF80A20ADF80E000023ADF806401A463D
:1023B0000421684600F08CF83946404618F0C6FC07
:1023C0002946304618F0C2FCABE70000BC070020ED
:1023D000064A13681A7E012A05D0521E02EBD272F9
:1023E000521000F005B8DA6E52681047BC070020A2
:1023F0002DE9F05F0646884640F2C32050434FF473
:102400007A7190FBF1F702FB02F002EBD27100EB64
:10241000610B254914467F1C09683244301BC96E84
:102420000B684146984701253AE000BF05FB05F0DF
:1024300004FB040159451CDDBC4219DD1A4B06EBB7
:10244000050AA6EB05091B68AAF1010208EB0401C5
:10245000DB6E09F101001B689847134BAAF10102DA
:10246000A8EB04011B6809F10100DB6E1B689847AB
:10247000641E0D4806EB040AA6EB0409006808EB8D
:1024800005015246C06E0368484698470648A8EBC7
:10249000050152460068C06E0368484698476D1CA7
:1024A000BD42C3DDBDE8F09FBC07002070B51446F7
:1024B0000E4605460119001B01F0D0FF22463146A9
:1024C0002846FFF717FDBDE8704001F0EDBE0000A3
:1024D0002DE9FF4F40F6FF740F46664283B09B46DE
:1024E000814600210BE000BF09EB8100B0F902003A
:1024F000A04200DA0446B04200DD0646491CB9425B
:10250000F2DB68480068406900280DD0B0F9061079
:102510001A46A1EB0B01B14200DA0E46B0F90200F7
:10252000801AA04200DD0446B5E0DFF87CA100205F
:102530000546CAF8000089E0781E854201DA6B1C66
:1025400000E0002309EB850C09EB8302BCF90200D3
:10255000B2F90210A04245D1A14215D139F9233078
:10256000059A39F9251003EB020C4E4A05981268BA
:10257000084404EB0B01D26E6045136801DA624631
:102580002BE00246604628E02846A4464FF00008AB
:102590007A1E0BE008B1401E00E0781E09EB8003B4
:1025A000B3F90230634504D108F101089045F1DB2D
:1025B0002346A34249D0A3EB040239F92500A1EB3D
:1025C000040C059B92EA0C0209D4364A184404EB29
:1025D0000B011268D26E13680246984735E012F07C
:1025E000DFFE32E0A14230D001DBA04203DDA04299
:1025F0002BDBA14229DCE04688420ADC0346A042EC
:1026000023DC0846A14220DBB8F900C0B2F9001073
:1026100008E00B46A14218DCA04216DBB2F900C06C
:10262000B8F90010E21AA1EB0C0151430029A0EB0C
:10263000030202DD01EB620102E0A1EB6201491C31
:10264000C01A91FBF0F06044C9E76D1CBD42FFF673
:1026500073AF0598009004EB0B00019000208046BA
:10266000054613E01149B8F1000F31F915A009D062
:10267000009901EB0A0208440A490968C96E0B680F
:102680000199984788F0010850466D1C0649096871
:102690008D42E7DB641CB4427FF747AF07B0BDE86B
:1026A000F08F0000BC070020300D002044F2012014
:1026B00010B5002004F0CAFC6FF07F4004F0DDFC90
:1026C000012004F06FFD002004F07AFD002004F0EA
:1026D00087FD002004F0EEFC0448006804F0F6FCDE
:1026E000BDE81040002004F02FBD0000B807002016
:1026F00033B583B004001BD003F03AFC204602F04F
:1027000031F80190456E01A802F096F8049802F0A5
:1027100029F800908460684602F08EF8042204A92B
:10272000284602F0ADF8204611F07CFA05F01AF9BF
:1027300005B030BD33B583B004001BD003F018FCE6
:10274000204602F00FF80090856E684602F074F89B
:10275000049802F007F80190846001A802F06CF878
:10276000042204A9284602F08BF8204611F05AFAF8
:1027700005F0F8F805B030BD2DE9F041044600251C
:10278000D4E90007B0F5407F00D101252146384645
:1027900010F0EAF8064615B138461CF0D9FE002EB6
:1027A0002FD02068052806D00B280ED00F2806D081
:1027B000262821D10EE038461CF0CAFE1CE038461F
:1027C000E168BDE8F0411DF0D2BC3846BDE8F041FB
:1027D0001DF0E4B9E06805280ED1384610F012FF6C
:1027E000A168884205D0384610F0FCFEA1688842F6
:1027F00002D160681EF00AFA2046BDE8F04110F0F0
:1028000091BCBDE8F081F0B585B00DF1280CBCE8B5
:10281000F0004FF0000C8DE8F01000F003F805B068
:10282000F0BD00002DE9F04F85B09846DDE90E5669
:1028300091468A468346109F129C03F099FB6C34A4
:102840001748CDE90204CDE9005643464A465146B1
:10285000584610F0ADFB04001BD002F04EF80546C0
:1028600002F04BF80646204601F07CFF0490C0E9D8
:1028700019560022119910F0C5FA0498302209491E
:102880003430FDF741FD0498A0F8787004A801F0F9
:10289000D3FF05F067F805B02046BDE8F08F0000D3
:1028A00079270008240A002013B582B0044603F0FB
:1028B0005FFB204601F056FF009060B1406A01F0D6
:1028C00051FF01460190022303AA009800F0C8F9C5
:1028D00001A801F0B1FF684601F0AEFF05F042F833
:1028E0001FBD00002DE9F04385B01D4690460F4600
:1028F000814603F03DFB2C2001F03BFE060024D076
:10290000780001F036FE04000ED0B8F1000F0BD0B5
:1029100055B1204601F026FF6A0041460090FDF7C0
:10292000F3FC684601F088FF304601F01BFF0A49BE
:10293000029000F10C024462A2E8A2020749016081
:102940000749416002A801F077FF05F00BF805B0D8
:102950003046BDE8F08300000DEF010819030208BE
:102960002DFC010810B5044603F002FB20461DF0C3
:102970005DF9BDE8104004F0F5BF2DE9FC4789463C
:1029800007002BD003F0F4FA384601F0EBFE01907B
:10299000466E01A801F050FF304602F006F80546E9
:1029A000002414E02146304602F00BF870B101F02B
:1029B000D9FE0090D0F80080684601F03DFFC84580
:1029C00004D12146304601F0C3FF02E0641CAC4252
:1029D000E8DB384611F026F904F0C4FFBDE8FC87B7
:1029E0002DE9FC47894607002BD003F0C1FA384691
:1029F00001F0B8FE0090866E684601F01DFF30467B
:102A000001F0D3FF0546002414E02146304601F0D2
:102A1000D8FF70B101F0A6FE0190D0F8008001A8A7
:102A200001F00AFFC84504D12146304601F090FF6D
:102A300002E0641CAC42E8DB384611F0F3F804F025
:102A400091FFBDE8FC8700002DE9F8439846154644
:102A50000E46074603F08CFA302001F08AFD040090
:102A600015D001F07FFE0090C0E9057685840A4A02
:102A7000B7EE000AC0F81C8080ED0A0AD2E9001205
:102A8000C0E9031205490160684601F0D5FE04F073
:102A900069FF2046BDE8F883540A0020F1030208CC
:102AA00001F086BDF8B50D4606004FF0000411D0C8
:102AB00003F05EFA304601F055FE0090046AAC4225
:102AC00003D00562806811F0ADF8684601F0B4FEED
:102AD00004F048FF2046F8BDF8B50D4606004FF05B
:102AE000000411D003F044FA304601F03BFE0090A0
:102AF0004469AC4203D04561806811F093F86846A0
:102B000001F09AFE04F02EFF2046F8BD2DE9F843AF
:102B10001D46DDF8208016460F46040015D003F050
:102B200027FA204601F01EFE0090C0F8608047653D
:102B3000C0E91665684601F07FFE20461CF008FDDE
:102B4000204611F06FF804F00DFFBDE8F883F8B5EA
:102B500015460E4607004FF0000415D003F008FAA2
:102B6000384601F0FFFD0090042D08D200EB8500EF
:102B7000446BB44203D04663384611F053F86846BC
:102B800001F05AFE04F0EEFE2046F8BDF8B50D4601
:102B900006004FF0000411D003F0EAF9304601F0CE
:102BA000E1FD0090446CAC4203D04564304611F026
:102BB00039F8684601F040FE04F0D4FE2046F8BD26
:102BC000F8B50D4606004FF0000411D003F0D0F91F
:102BD000304601F0C7FD0090846CAC4203D08564A0
:102BE000304611F01FF8684601F026FE04F0BAFEE8
:102BF0002046F8BDF8B50D4606004FF0000411D090
:102C000003F0B6F9304601F0ADFD0090046DAC4222
:102C100003D00565304600F055F8684601F00CFE1B
:102C200004F0A0FE2046F8BDF8B50D4606004FF0B2
:102C3000000413D003F09CF9304601F093FD00909E
:102C400090F86C40AC4204D080F86C50304610F0E4
:102C5000E9FF684601F0F0FD04F084FE2046F8BD6F
:102C60002DE9F041044680681D4617460E460028AF
:102C700026D0D4E9040290420ED1521E6A43711943
:102C80003046FDF741FB20692A46401E05FB0060E7
:102C90003946FDF739FB0EE005FB0013401C2061AF
:102CA0002A4639461846FDF72FFBE16819B1204640
:102CB000BDE8F0410847A068BDE8F04100F002B867
:102CC000BDE8F08110B58AB0044601F04BFD09A9BA
:102CD00004AACDE9002105AB089006AA07A91BF0BC
:102CE000A0F808A801F0A8FD02A9204610F0E0FB1A
:102CF000BDF8080007990844ADF80800BDF80A00BF
:102D000006990844ADF80A00BDF80C000599401A70
:102D1000ADF80C00BDF80E000499401AADF80E0095
:102D200002A9204610F03EFF0AB010BD70B5024661
:102D3000002300E05B1CD55C002DFBD101240120A9
:102D400003E004EB84056C00401CB1FBF4F50A2D94
:102D5000F7D20025D61835540DE00A25B1FBF5F65B
:102D600005FB16153035D618064406F8015C0A2511
:102D7000B1FBF5F1401E0028EFD170BD10B5024641
:102D80000020002300E0401C145C002CFBD103E079
:102D9000CC5C1454401C5B1CCC5C002CF8D114544B
:102DA00010BD000010B50AA116A000F01BFD012007
:102DB00000F0E0FA012002F0C7FE044618F0D8F94E
:102DC0004FF47A6000F020FF204602F0BDFE10BDF7
:102DD0004F757470757420616E7469616C6961738C
:102DE000656420746578740A6F6E20646966666530
:102DF00072656E74206261636B67726F756E647367
:102E00002E000000416E7469616C69617365642015
:102E100054657874000000002DE9F04100262AA1D5
:102E200033A000F0DFFC0BF0C9FA04460BF0D2FA35
:102E30000546A5F1C400032190FBF1F0314908607B
:102E400031480088401D31490988611AB0EB610F93
:102E500006DB2D484088401D2A490968884200DA6F
:102E600001262BA002F0EDFF28490988611AB0EB7A
:102E7000610F07DB2348006862304100A5F128009C
:102E8000814202DA012026490860264804F01EF932
:102E9000074602F091FF401C1A490968884202DA8D
:102EA000012021490860384604F010F9304616F038
:102EB000CBFE01F0F1F9032001F0DCFA12F0A0FCE6
:102EC00001F0E2F9BDE8F0814578616D706C6573E1
:102ED00020666F72207468650A6175746F6D6F7417
:102EE00069766520696E64757374726965000000A7
:102EF0004175746F6D6F746976652073616D706C68
:102F00006573000054000020A0490508B4AC020815
:102F10006D7365632F706963747572653A0A00009A
:102F200058000020D03B04085C00002010B508A128
:102F300015A000F057FC00F04DFC002000F01AFA3C
:102F400012F094FD4FF47A6000F05EFE10BD0000B8
:102F500053686F77696E670A646966666572656E45
:102F600074206269746D61707320776974680A6196
:102F70006E6420776974686F757420636F6D70720A
:102F8000657373696F6E00004269746D61707300E0
:102F900010B502E00A2002F049F90748006801284C
:102FA000F8D006480068012804D1002003490860D1
:102FB000012010BD0020FCE71C00002020000020A4
:102FC0002DE9F04F99B0502105A8FDF7C4F90BF099
:102FD000F5F982460BF0FEF903908E498EA000F0C1
:102FE00001FC012000F0C6F96FF07F4004F045F8C5
:102FF0008C4804F06BF84FEA6A010C228AA002F0B8
:103000003BFA8C4804F062F82B2201218AA002F0DE
:103010001FFA3F22012189A002F01AFA532201214E
:1030200088A002F015FA6222012188A002F010FAAD
:103030007122012187A002F00BFA8522012187A0CD
:1030400002F006FA9922012186A002F001FA8748CF
:1030500004F03CF80BF002F9049005A80499FFF77E
:1030600065FE83A105A8FFF789FE09200BF012F980
:103070008146B9F1000F0BD07FA105A8FFF77EFEB6
:10308000494605A8FFF752FE7CA105A8FFF776FE8A
:103090000398A0F119020C2105A802F0D9F900F05B
:1030A0007FF90746A6E000F07BF9C01B4FF4FA61F8
:1030B00090FBF1F201FB1206481096FBF0F808EBCA
:1030C0004800C0EBC810A6EBC006B6F5FA7F00DDDD
:1030D00090E0C6EB06204FF4FA7190FBF1F0C8EBDC
:1030E000082180EA010B0BEB0B2000EB0B446FF087
:1030F0007F40051BFF20342352462B21CDE90004DD
:103100003C2002F0A1FBFF203E2352463521CDE9B1
:1031100000053C2002F098FB4FF47F4048235246C4
:103120003F21CDE900043C2002F08EFB4FF47F40AC
:10313000522352464921CDE900053C2002F084FB90
:103140004FF47F005C2352465321CDE900043C201C
:1031500002F07AFB4FF47F00662352465D21CDE9F1
:1031600000053C2002F070FB464870235246672160
:10317000CDE900043C2002F067FB4FF6FF707A2394
:1031800052467121CDE900053C2002F05DFB4FF66F
:10319000FF70842352467B21CDE900043C2002F0DD
:1031A00053FB39488E2352468521CDE900053C204A
:1031B00002F04AFB3448982352468F21CDE900049F
:1031C0003C2002F041FB4FF0FF10A2235246992110
:1031D000CDE900053C2002F037FB4FF0FF10AC2397
:1031E0005246A321CDE900043C2002F02DFB02F061
:1031F000EBFC00BF00F0D4F8C01B41F270718842B4
:1032000004DAFFF7C5FE00283FF44DAF19B0BDE862
:10321000F08F00001C1D0708436F6C6F7220626105
:1032200072000000D03B0408436F6C6F7220626133
:103230007273000040DF06085265640047726565DE
:103240006E000000426C75650000000047726579F1
:103250000000000059656C6C6F7700004379616E67
:10326000000000004D6167656E746100E0BC0608F7
:1032700020627070000000002C20000020636F6C42
:103280006F7273008080800000FFFF0003490160BF
:103290000D2141600521018170470000840000205C
:1032A00010B50CA114A000F09DFA012000F062F806
:1032B00001F0D6FC13F0C0FD4FF47A6000F0A4FCDE
:1032C00001F0B6FD0021084601F06EFD0C4801F04A
:1032D000FBFC10BD5354656D57696E20737570709B
:1032E0006F7274730A736F667477617265206375A9
:1032F00072736F7200000000437572736F7200008A
:103300004CAE06082DE9F04104464FF4047118480C
:10331000006810F069F88046642C01DD20F00AFA9C
:10332000002140460DF05DFA2246002140460DF096
:1033300025FA02F090FD064600BF00F031F8871B29
:10334000642C03DD394640460DF04BFA052001F0B0
:103350006DFFFFF71DFE0546A74201D2002DECD000
:10336000642C01DD1BF0EEF902F02EFCBDE8F081CB
:103370000000002010B5044620460249096888472D
:1033800010BD0000080000200146044800890840E4
:1033900008B1012070470020FCE70000340E002037
:1033A00010B50648006810B10548006810BD02F06D
:1033B00052FD04490968401AF8E700001C0000208B
:1033C000180000201400002010B505A111A000F085
:1033D00009FA00F0FFF91BF017F800F0ABF910BD87
:1033E0004F7074696D697A65642064726177696E83
:1033F0006720726F7574696E650A666F72206472F9
:103400006177696E672067726170682064617461BA
:103410000000000044726177696E67206120677266
:103420006170680010B50548006810F037FB0FF0B8
:10343000C5FF044611F03CF810BD00000400002058
:10344000F0B589B020223A4901A8FCF75DFF0AF0E7
:10345000B5FF05460AF0BEFF04466E100020FFF7D8
:1034600089FF022003F0BCFE6FF07F4003F005FEF1
:10347000304803F02BFE44F3191231462EA001F020
:10348000FBFF2F4803F022FE04EB440000EBC400D6
:10349000821131462BA001F0EFFF384803F0EDFD1B
:1034A000162060438211314635A001F0E5FF404807
:1034B00003F00CFE16206043122101EBA0123146EE
:1034C0003CA001F0D9FF6FF07F4003F0D6FD1C480F
:1034D00003F0FCFD02F0C2FC0746394601A8FCF7E8
:1034E00045FFC4EB44108211314601A801F0C4FF2E
:1034F00026206043821137480088281A4110364838
:1035000002F086F86FF07F4003F0B7FD094803F042
:10351000DDFDC4EBC40040F3D90231462FA001F019
:10352000ABFF41F28830FFF7EDFE09B0F0BD0000BF
:1035300074C00208D03B04085354656D57696E008F
:1035400040DF0608556E6976657273616C2067729C
:10355000617068696320736F6674776172650A666B
:103560006F7220656D626564646564206170706C63
:1035700069636174696F6E7300000000FF88220048
:10358000466F722053544D3332204D4355205072B4
:103590006F6475637473202D20436F727465782097
:1035A0004D33202D20436F72746578204D34000018
:1035B000C8C30608436F6D70696C6564204A756EF8
:1035C00020333020323032302031343A32333A3006
:1035D000300000005C7C0408442305087777772ED0
:1035E00073742E636F6D2F73746D3332000000009F
:1035F00010B506A110A000F0F5F80120FFF7BAFE03
:1036000000F0E8F813F088FA10BD000053686F77F7
:103610007320736F6D6520666561747572657320C4
:103620006F660A746865204C495354564557207795
:1036300069646765740000004C6973747669657726
:103640002064656D6F0000008CB02C492C4803F09D
:10365000ADF80FF0B3FE06462A4910F052FDFDF713
:10366000F3FC002101A8FEF747F900200690002195
:1036700001A8FEF7F9F9012101A8FEF73DF90020A4
:103680000690012101A8FEF7EFF91F48FEF7BAF9ED
:103690001E480DF051F81E48FDF7B6FC1D480DF010
:1036A000EFFB1D480DF0BCFD1C4806F0FBFB0220A3
:1036B00003F096FD1A48FFF7E9FD0AF0CFFD054635
:1036C000102D11DB0420FFF75FFE68B101F02AF82E
:1036D0000446B4F5001F03DD12481349086006E0F4
:1036E00012481149086002E011480F4908600120A2
:1036F00000F046F801E01BF0A9FDFCE724000020E3
:1037000039510208514D0208B3C40108B506010839
:10371000D10D0008C10C0108B91001089D9D0008D9
:10372000340E0020F99C0108080000200D9C0108BF
:10373000359E010810B505480068401C0349086023
:1037400012F02AFE00F0EAF910BD0000100000207F
:1037500010B5FFF767FE064906A000F043F8012008
:1037600010F0DAFA1EF026FE002010F0D5FA10BD97
:103770006C26070852616469616C204D656E7500A6
:1037800008B1012100E00021014A117070470000DA
:103790002800002010B50348006810F071FE02F008
:1037A00013FA10BD0000002070B5044608480068F8
:1037B00010F093FA50B14FF4B071054800680FF063
:1037C00013FE0546214628460DF001FF70BD00009E
:1037D0000400002010B50248006810F051FE10BD32
:1037E000040000202DE9F84F07460C460AF0E6FDDC
:1037F00082460AF0EFFD83464FEA6A0000904FEAE6
:103800006B09FFF70FFEFFF7C5FF02F0DDF901209E
:10381000FFF7B0FD6FF07F4003F02FFC022003F0B4
:10382000DFFC124803F052FC3C223846009901F0BC
:1038300023FE0F4803F04AFC02F0BEFA8046A9EBD3
:10384000080000F10A022046009901F015FE00254B
:1038500000E06D1C605D0028FBD105EB85000601D2
:10386000304600F0D1F9BDE8F88F0000D03B0408E5
:1038700040DF06082DE9F04796B028216846FCF79E
:103880006AFD0AF09BFD05460AF0A4FD04460AF015
:1038900089FD804601F0E4F9A0450DDD0020ADF87A
:1038A0002800ADF82A0028B2ADF82C0020B2ADF8FF
:1038B0002E000AA803F0D5FB5EA16AA0FFF792FFD5
:1038C000002608E06A4951F8260001F045FB0EA9E0
:1038D00041F82600761C082EF4DBFFF761FD074651
:1038E000002667E006F007010EAA52F8210003F057
:1038F000CFFBFCF7F7FC90FBF5F105FB1100A946A7
:1039000005EBD971A0EB610000B2ADF83000FCF717
:10391000E9FC90FBF4F104FB1100A14604EBD97122
:10392000A0EB610000B2ADF83200FCF7DBFC90FBCD
:10393000F5F105FB1101BDF830001430084400B268
:10394000ADF83400FCF7CEFC90FBF4F104FB110160
:10395000BDF832001430084400B2ADF83600BDF9AD
:103960003630BDF93420BDF93210BDF9300002F017
:1039700045F9BDF93400A84203DB681E00B2ADF87A
:103980003400BDF93600A04203DB601E00B2ADF882
:103990003600BDF93000002802DA0020ADF8300012
:1039A000BDF93600002802DA0020ADF8360002F03A
:1039B0000BF9761CFFF7F4FCC01B41F288318842FA
:1039C00003DAFFF7E5FA00288CD0FFF7B3FE1AF010
:1039D0008EFA8246002003F044FB0020FFF7CAFC69
:1039E0006FF07F4003F049FB022003F0F9FB214810
:1039F00003F06CFB052211461F4801F009FE1FA1D0
:103A00006846FFF7BBF951466846FFF78FF902F0A9
:103A1000E1F9201A4FEA600969104A46684601F048
:103A20002BFD4FF47A60FFF76DFC01F001FA16B040
:103A3000BDE8F0874D756C7469206C617965722002
:103A4000636C697070696E670A486967686C792091
:103A50006F7074696D697A656420647269766572E5
:103A60007300000048696768207370656564000032
:103A7000B4490508D03B0408A04905085069786599
:103A80006C732F7365633A200000000010B504A129
:103A90000EA0FFF7A7FEFFF7C5FC20F0C9F810BD88
:103AA0005573657320616C70686120626C656E642B
:103AB000696E670A666F72207472616E73706172EC
:103AC000656E637920656666656374005472616E25
:103AD00073706172656E74206469616C6F67000059
:103AE00010B5094909A0FFF77DFEFFF773FE00201E
:103AF000FFF740FC01F0B4F813F048F801F098F932
:103B0000FFF718FE10BD00004028070854726565D5
:103B1000766965772064656D6F00000010B586B02A
:103B2000142101A8FCF717FC4FF4B071134800688A
:103B30000FF05AFC044612A101A8FFF71FF9124822
:103B40000168491C01A8FFF7F1F810A101A8FFF7CF
:103B500015F90F48016801A8FFF7E8F80DA101A8C1
:103B6000FFF70CF90C484068411E01A8FFF7DEF88A
:103B700001A920460DF02BFD06B010BD000000206D
:103B800044656D6F200000000C0000202E00000036
:103B9000100000202F000000340E002070B50AF045
:103BA00019FC04460AF0FEFB0546B5EB440F00DAAB
:103BB00070BD07A110A0FFF715FE0120FFF7DAFB8B
:103BC00013F068F80021084603F0CCFA00BFEFE7D5
:103BD00044656D6F6E7374726174657320686F777E
:103BE00020746F207573650A7669727475616C2034
:103BF00073637265656E73005653637265656E20FC
:103C000064656D6F0000000010B504462046FFF7A4
:103C100079FBFFF78FFD10BD2DE9F04FDFF828B1DC
:103C200091B04FF0FF35DBF80030B3F92210069168
:103C3000DE69B3F92490F469A189814206D8E2894A
:103C4000824203D3471AD4F8008012E0D4E90181FC
:103C500000296FD00A8882426CD84D88854269D38A
:103C6000801A82B2486800EB8200B0F90070B0F9A7
:103C70000250781C5ED0307EA17C10FB01FA217CC2
:103C8000CDE90801B3F92A6030460BF0CDF8C0B297
:103C90000E90DBF8000007FB0A81A37C826B0127F2
:103CA000CDE90412CDE90273C069DDE90832C17EB5
:103CB000807ECDE900014946069809F043FF681C63
:103CC00018D046F002000BF0AFF8DBF80000A37C40
:103CD00005FB0A81826BCDE90273CDE90412C0694C
:103CE000DDE90832C17E807ECDE9000149460698B3
:103CF00009F028FFDBF800005D46C069417E007EC8
:103D0000814214D9022E12D086F004000BF08CF8F8
:103D10002868C069027EC37E12FB0391437E857EC4
:103D2000099A06984B4402FB05020AF06BFA0E98BA
:103D30000BF07AF8DBF80000627C418C114441847E
:103D400011B0BDE8F08F0000BC07002004480068F7
:103D5000C069C06909B1027C0A60407C70470000FC
:103D6000BC070020022008807047C06982898A420F
:103D700002D8C2898A4210D2806880B102888A4201
:103D80000DD843888B420AD3406800EB8100A0EB3A
:103D90008200B0F90000002801DB012070470020FC
:103DA00070470000F0B52B4D044687B028682146C7
:103DB000B0F92A60C069C06900F0E0F9002847D076
:103DC00041680088201A00EB400001EB8004207855
:103DD000C01C870830460BF027F806461E48D0F86E
:103DE00000C0BCF1000F19D00021A068CDE904018A
:103DF0000222012001A9009085C1286894F90320BE
:103E0000DCF80070B0F92410B0F92200114494F9E4
:103E10000220637810442278B84711E0A068CDE909
:103E20000070286894F903206378B0F92410B0F981
:103E30002200114494F902201044227800F022FB61
:103E400030460AF0F1FF28682279418C1144418400
:103E500007B0F0BDBC070020E8070020F0B52B4DEF
:103E6000044687B028682146B0F92A60C069C06955
:103E700000F084F9002847D041680088201A00EB40
:103E8000400001EB80042078401C470830460AF0CF
:103E9000CBFF06461E48D0F800C0BCF1000F19D079
:103EA0000021A068CDE904010422012001A90090AD
:103EB00085C1286894F90320DCF80070B0F924105B
:103EC000B0F92200114494F902206378104422785A
:103ED000B84711E0A068CDE90070286894F9032084
:103EE0006378B0F92410B0F92200114494F902204B
:103EF0001044227800F0EAFA30460AF095FF28686C
:103F00002279418C1144418407B0F0BDBC070020E8
:103F1000E80700202DE9F0432F4C034687B02068C6
:103F20001946B0F92A80C069C06900F060F900281C
:103F30004ED041680088181A01EBC0054046AE78A3
:103F40000AF072FF814620686A680123816BCDE91F
:103F50000236CDE90421C169CB7E8A7ECDE90023FA
:103F60000B7EB0F924102A78B0F9220009F0EAFD9E
:103F70002068C069477E067EB7421DD9C07E474390
:103F80004643B8F1020F17D001F0FFFE804601F062
:103F9000C5FE03F072F821682A78CB69B1F92200D6
:103FA000DB7E12FB0302B1F92410CB1931440AF075
:103FB00029F9404603F061F848460AF035FF2068C9
:103FC0006A78C369B0F922109B7E12FB0311418409
:103FD00007B0BDE8F0830000BC07002030B5104CEE
:103FE00005460B4620682946C069C06900F0C6F83E
:103FF000002813D0416800882468281A00EB40028A
:104000000420E46900EB8200085CA47E10FB04F04D
:10401000002B03D011F822106143196030BD00005D
:10402000BC07002003460D4810B500680C46194631
:10403000C069C06900F0A2F870B141680088181A20
:1040400000EB400001EB8000D0E9001280682160A5
:10405000C4E90120002010BD012010BDBC070020D4
:1040600001200880704700B5C06900F087F800287B
:1040700000D0012000BD00002DE9F35F0E460025B1
:1040800001F083FEDFF8A8808346D8F8000090F89E
:104090002A00400702D501F078FE01E001F03EFE63
:1040A00002F0EBFFD8F800000024C1694A7EC97E07
:1040B00012FB01FAB0F92290B0F924701FE06846B3
:1040C00003F016FB0546D8F800002946C069C06910
:1040D00000F054F898B141680088281A00EB4000BD
:1040E00001EB800090F9021000790144D8F800003B
:1040F000C069807E11FB00F0002800DD0444761EBC
:10410000DDD51DB1284604F0B9FA044407EB0A03D3
:1041100009EB04025B1E4846521E39460AF072F84B
:10412000584602F0AAFF034901200870BDE8FC9F31
:10413000BC070020280800202DE9F3410D4D0E4F4B
:104140000E462868B0F92A40A0070AD17A6800987C
:10415000904706E0684603F0CBFA2968C969096808
:104160008847761EF6D50020387028684485BDE85B
:10417000FC810000BC0700202808002006E002881F
:104180008A4202D842888A4202D280680028F6D148
:104190007047000030B50F4C05460B462068294695
:1041A000C069C06900F023F8002811D04168008878
:1041B00024682A1A0120E46900EBC200085CA47E8E
:1041C00010FB04F0002B03D011F83210614319608A
:1041D00030BD0000BC07002001200880704700B5FA
:1041E000C06900F004F8002800D0012000BD06E0FE
:1041F00002888A4202D842888A4202D28068002815
:10420000F6D1704770B500240E4D16E028690E49AE
:1042100000EBC410001D78220968FCF775F82869C6
:10422000002100EBC410016000F10C018161011D4F
:104230000A1DC0E90F12641C4164A8688442E5DBD2
:1042400070BD0000480D0020BC07002070B50D496E
:104250000B480860084604F035FB0A4C143CA06883
:10426000C501284600F0EAF92A460021206104F041
:1042700015FC4FF0FF302060BDE8704003F0AEBB8E
:1042800091FD01085C0D002002490020096881F8B9
:1042900071007047BC07002002490120096881F8BD
:1042A00071007047BC07002010B518F013FD0448DA
:1042B000016A04480068C16600F10801416110BD4F
:1042C00064070020BC0700207CB514460D46064656
:1042D00001F04EFE10F02AFA064410F035FA0544BB
:1042E0001648006890F8711021B990F870104E438C
:1042F0004D434C43301B00F05DF8ADF80000301921
:1043000000F058F8ADF80400281B00F053F8ADF8A1
:104310000200281900F04EF8ADF80600684610F0CB
:104320006BFA06E0224629463046FEF7BFF810F049
:10433000DDF90028F6D103F015FB7CBDBC07002099
:104340002DE9FC471C4615468846814601F010FEC3
:1043500010F0ECF9054410F0F7F90444002010F0D7
:104360004BFAF8B1114E124F12213068407C57F8C9
:1043700020000190C068426A01A890475FEA000CE3
:1043800006D02B464246494600940198E04705E096
:1043900023462A464146484618F0B6F810F0A6F9DA
:1043A0000028E1D103F0DEFABDE8FC87BC0700205D
:1043B000D40700200449096891F8701009B190FBF6
:1043C000F1F000B270470000BC0700202DE9F04179
:1043D0001E4C05460E462068002768B909F0DFFF2D
:1043E000E06100F02BF9206068B304F12401184863
:1043F0000860084604F066FA002D00DA0025E1693D
:10440000731B4A1E2046934201DD6E18761EAE4293
:1044100001DA2E4601270F4C2268D16E4B68836368
:1044200001620A490C4B34310B60D16602C862C08C
:1044300011F09EFFFCF78AFE044821682C30486189
:104440003846BDE8F0810127D6E700006407002068
:1044500055FC0108BC070020A5AA0108044A1268FF
:1044600092F8702090FBF2F091FBF2F1FFF7AEBFF3
:10447000BC0700200249096881F87000FCF766BE9D
:10448000BC070020FEB50E4EDDE908543668367CC8
:1044900016F003060CD0012E03D0022E0DD0032EF1
:1044A00005D1084ECDE90054029615F0CBFDFEBDB6
:1044B000CDE9005415F074FDFEBD034EF2E7000097
:1044C000BC070020E9EE000861EE0008FEB50E4EC4
:1044D000DDE908543668367C16F003060CD0012E50
:1044E00003D0022E0DD0032E05D1084ECDE9005485
:1044F000029615F055FEFEBDCDE9005415F000FE04
:10450000FEBD034EF2E70000BC070020E9EE000804
:1045100061EE0008F8B50C0005460FD001F028FD4B
:10452000204600F017F8060010D000F01BF92246D4
:1045300000902DB12946FBF7E7FE04E00020F8BD0E
:10454000002104F0ABFA684600F076F903F00AFAAD
:104550003046F8BD10B5040009D001F009FD204631
:1045600011F0F0F8044603F0FDF9204610BD0020DC
:1045700010BD38B5054601F0FBFC2846FFF7EAFF01
:10458000040009D000F0EEF82A460021009004F063
:1045900085FA684600F050F903F0E4F9204638BD8A
:1045A000024A106021F00300506070473CF0012087
:1045B00010B5040016D001F0DBFC0B48006B10F8BE
:1045C000341059B1022909D2042101EBC401415828
:1045D000486810F057FF20461DF0DAFEBDE8104095
:1045E00003F0C0B910BD000080EF0120002805D005
:1045F000034A916B016001B148609063704700000D
:1046000080EF012010B5044601F0B2FC2068FFF7EE
:10461000CFFF00202060BDE8104003F0A3B90000E8
:1046200070B50D460646002405E000BF06EB840089
:10463000FFF7E8FF641CAC42F8DB70BD2DE9F041E8
:1046400004461AF06FFA2648E41C24F00305C16BF7
:104650002D1DA94200D90D46846B13E054F8042C9B
:10466000AA420ED184B1216809B162684A606168CA
:1046700009B122680A60826BA2422ED1216881634F
:104680002BE02468002CE9D18046416B80680F182C
:1046900057F8040C3E1A306838B100201EF01CF8A0
:1046A00057F8040C3E1A3068B8B97068A84214DB99
:1046B0003044441B30461DF0C7FFD8F80810491B92
:1046C000C8F80810D8F810102944C8F810107068FD
:1046D0003146401B10F0D6FE20C42046BDE8F081D4
:1046E00080EF012010B500241AF01CFA0C490F20AD
:1046F00001EBC002126C1AB101EBC000006C08E0C3
:10470000401EF5D508E04168A14200D90C468068FA
:1047100010B180680028F6D1A4F10C0010BD000093
:1047200080EF0120034800680C38002800DC0020DE
:104730007047000080EF0120002138B104490422B5
:1047400002EBC000096B085841680C3908467047F5
:1047500080EF012002484169491C41617047000017
:1047600080EF012005498A69521C8A61096B01EBBF
:10477000C0010A78521C0A7000F076B880EF012060
:104780007CB506460C460846FFF7E4FE050020D03F
:10479000FEB13046FFF7D0FFA04200DA044601F038
:1047A000E7FB2846FFF7DEFF00903046FFF7DAFF11
:1047B0000146019022460098FBF7A6FD684600F0EE
:1047C0003BF801A800F038F83046FFF7F1FE03F09F
:1047D000C9F828467CBD000010B501F0C9FBFFF701
:1047E00081FF64220849B0F5800F04D990FBF2F4F0
:1047F000C869444303E0C9694143B1FBF2F403F0E3
:10480000B1F8204610BD000080EF012005491028B6
:1048100005D94A68B0EB520F02D3500800E01020CF
:10482000886070473CF0012002484169491E41619F
:104830007047000080EF01200A4902680B6B52F8B4
:10484000082C03EBC2021378022B03D38B690BB144
:104850005B1E8B611178491E1170002101600846B2
:104860007047000080EF0120002806D00349042291
:1048700002EBC000096B08580830704780EF012038
:104880002DE9FC414FF000060B465FEA0008344674
:104890002BD032B111461846FFF73CFE060000D17E
:1048A00001244046FFF75EFF009007884568684690
:1048B000FFF7C2FFCCB9B900091D2846FFF760FF1A
:1048C000050015D0FFF74EFF019040F8276001A8C2
:1048D000FFF7B2FF4046FFF745FF009045600188B3
:1048E000491C01806846FFF7A7FF2046BDE8FC8110
:1048F0003046FFF75DFE0124F7E70820FFF739BED9
:104900007CB5050023D0FFF72DFF00904068C0B1B3
:10491000FFF728FF0024019005E0019800EB8400D8
:10492000FFF770FE641C00980088A042F5DC01A827
:10493000FFF782FF0098001DFFF764FE009900203A
:1049400008806846FFF778FF2846FFF731FE7CBDF8
:104950007CB50C46FFF706FF00900188A14220D9E4
:104960004568F5B101F004FB2846FFF7FBFE019016
:1049700000EB8400FFF746FE00990888401E80B2D5
:104980000880401E019905E001EB8402526841F85D
:104990002420641C8442F7DD01A8FFF74DFF02F0DC
:1049A000E1FF6846FFF748FF7CBD38B5002430B111
:1049B000FFF7D8FE009004886846FFF73DFF2046C9
:1049C00038BD38B50D46002448B1FFF7CBFE294667
:1049D000009000F0B4F804466846FFF72DFF20462B
:1049E00038BD38B50D46002448B1FFF7BBFE294657
:1049F000009000F0B6F804466846FFF71DFF204619
:104A000038BD2DE9FE430C465FEA00083DD0FFF7B4
:104A1000A9FE0090068847686846FFF70DFFB4427C
:104A200033D2B000001DFFF7A4FD05002DD0FFF725
:104A300099FE01903846FFF795FE01460290A200CC
:104A40000198FBF761FC301B8200029800EB8401A7
:104A5000019800EB8400001DFBF756FC01A8FFF74E
:104A6000EBFE02A8FFF7E8FE3846FFF7A1FD40463F
:104A7000FFF778FE009045600188491C0180684678
:104A8000FFF7DAFE0120BDE8FE830020FBE72DE9F9
:104A9000F04115460E4607460024FFF7B2FF30B13D
:104AA0002B4600223146384600F004F804462046E2
:104AB000BDE8F0812DE9FE43984691460D4600245D
:104AC000D0B3FFF74FFE01900788466801A8FFF7B3
:104AD000B3FEBD4230D27EB33046FFF743FE0090B6
:104AE00050F825406846FFF7A7FE24B12046FFF79F
:104AF00023FE404511D04046FFF73BFD04000CD09B
:104B00003046FFF72FFE00EB850500902846FFF7A3
:104B100079FD68462C60FFF78FFEB9F1000F0BD0CE
:104B200054B12046FFF71EFE424649460290FBF76D
:104B3000EBFB02A8FFF780FE2046BDE8FE8338B5F8
:104B40000D4601880024A94209D9406838B1FFF711
:104B500009FE009050F825406846FFF76DFE20469C
:104B600038BD10B50024FFF7EAFF10B1FFF7FAFDDA
:104B70000446204610BD70B50C46054601F03CFACF
:104B8000C1B223462846BDE870400022AFF3008042
:104B9000F0B52D271C68B0F1004F08D00025002883
:104BA0000DDA661C1E6027704042012408E0661C76
:104BB00001251E606FF000402770491E01E00024AF
:104BC000091BC9B22AB3491EC9B222E00C46491ECC
:104BD000C9B2944205D1124C27781C68661C1E602D
:104BE0002770104C54F8216090FBF6F4E4B20A2CC4
:104BF00011D804FB160011B90DB1641CE4B20A2CE3
:104C000002D10124491CC9B21E683034771C1F60D0
:104C100034700029DAD1196800200870F0BD000056
:104C2000B0070020E405070810B5002807DD0A6872
:104C30002B24531C0B601470096800220A7010BDED
:104C400010B5044601F094F9044904EB840001EB2B
:104C50008000447902F086FE204610BDC0F001209D
:104C600002480068407C00F003B80000BC07002048
:104C700070B5054601F07CF9124805EB850100EBA3
:104C8000810400266671236953B150F82100E2685F
:104C900081684068521AA168091A184602F0DDF8C6
:104CA000284601F07FF818B1002102F03FFA04E035
:104CB000207918B1206902F07EF82671BDE87040B5
:104CC00002F050BEC0F0012002490968497C00F0A2
:104CD00003B80000BC0700202DE9FC5F89460446AC
:104CE00001F046F9484601F05DF82C4E09EB8907C2
:104CF000824656F82700019029484FF001080168C4
:104D000041B92749C0F80080091D264808600846B7
:104D100003F0D8FD214A09EB89015FEA0A0002EBA2
:104D200081051BD002F03EF983464FF07F4002F030
:104D30008DF900F0C5F800221146206800F068FCEB
:104D4000206842880188504602F0E0F946F8274082
:104D500085F80580584602F025F917E046F8274007
:104D600085F805802869464618B101F0FFFF00204C
:104D7000286174B10096E868A1684B46421AA86899
:104D80006168411A206802F09DF8286148461EF0CB
:104D9000B1FB02F0E7FD0198BDE8FC9FC0F00120E7
:104DA000F0070020C9FC0108024A1268527C00F09A
:104DB00003B80000BC07002070B514460D46064637
:104DC00001F0D6F8204600F0EDFF0300174804EB91
:104DD000840109D050F8210041688068711A2A1AAC
:104DE000184602F083F91CE000EB8104A268B2428D
:104DF00001D0012200E00022E368AB4201D0012390
:104E000000E000231A430CD0236943B150F821007D
:104E1000816840686A1A311A184602F01EF8C4E91F
:104E20000265BDE8704002F09DBD0000C0F00120A9
:104E300002480068407C00F003B80000BC07002076
:104E400010B5044601F094F80A4804EB840100EB25
:104E5000810301225A7150F8210030B120461EF022
:104E600049FBBDE8104002F07DBD21460248FFF736
:104E700033FFF6E7C0F001204CAE060810B5C2B211
:104E8000CBB2D21A02D5C2F1000212B293B2C0F371
:104E90000722C1F3072403FB03F3121B01D552427F
:104EA00012B2000C92B2A0EB114002FB023200B22F
:104EB000002801DA404200B280B200FB002010BDA1
:104EC00010B50021084601F00BF840F6FF72504281
:104ED000BDE8104013460146AFF300802DE9FC41C8
:104EE0001C4615460E46074601F042F8042009F01C
:104EF0009BFF80461248C068C16C006D0F44064499
:104F00000D440444ADF80070ADF80450ADF80260F3
:104F1000ADF8064068460FF06FFC07E023462A46CE
:104F20003146384609F06EF90FF0E0FB0028F5D164
:104F3000404609F079FF02F015FDBDE8FC81000054
:104F4000B0070020B0F90630B0F90420B0F9021023
:104F5000B0F90000FFF7C2BF10B5044601F008F831
:104F6000204605F0D7F9044602F0FCFC204610BDAF
:104F70002DE9F8431C00DDE9089816460F46054662
:104F800002D10EF01BFA044600962E6843464A46AC
:104F900021462846B047060039D00EF004FA814673
:104FA000698A30460DF06FFD30460FF069FA4846C9
:104FB0000FF066FA4FF000080CE000BFCDF800805B
:104FC00055F81CCF00231A4649462846E04700B34F
:104FD0000FF056FA7F1E002FF0DC1D2148460FF01F
:104FE00070F8601C12D000F0C3FF0EF02BFA30B145
:104FF000FFF73AFC8469B44201D02000F8D1B442F2
:1050000002D030460FF06EF902F0ACFC3046BDE83D
:10501000F88330460EF0BEF80020F8E72DE9F041A5
:105020001C4616460D460746022B02DB0020BDE853
:10503000F0811C20FFF702FB0028F8D00DB10561BC
:105040000AE0094A52F8241009B905E011460A6835
:10505000002AFBD109690161846186820021016017
:105060004160C0E90217E2E7D407002070B51D4691
:10507000FFF7D4FF040001D000F00EF8E0680068EC
:1050800020B90348006800EB85008465204670BDA8
:10509000BC070020FFF7AABA70B590B38269022A54
:1050A00030DA1C4C54F8221019B944F822002FE0D1
:1050B00019464B68002BFBD106E0CB68C5681B681E
:1050C0002D68AB4203DD09680029F6D11AE0C1B1B1
:1050D000CB68C6681B683668B3420CD1838A012B43
:1050E00005D008E01946DB681B68AB4203DB0B68A0
:1050F000002BF7D129B14B6833B118604A68426080
:1051000004E0FFE7012070BD44F822004860016020
:10511000002070BDD407002010B503E00468FFF73D
:10512000BBFF20460028F9D110BD1EF005BF0000CE
:105130002DE9F0410026DFF834800D4F354600BFE1
:1051400058F8254009E0E0680068385C20B1204646
:105150001EF0F2FE266026462468002CF3D16D1C5A
:10516000022DEDDB3046BDE8F0810000D4070020C1
:1051700078AF0608022801DB00207047054A52F884
:10518000200004E0C26812688A42F6D00068002855
:10519000F8D17047D4070020022801DB00207047B7
:1051A000054951F8200004E0C16809680029F6D0DB
:1051B00000680028F8D17047D40700202DE9F84393
:1051C0001D461646884604000CD0FFF7CBFA009027
:1051D000006807686846FFF72FFB2B4632464146BA
:1051E0002046B847BDE8F88338B504004FF000000A
:1051F0000AD02046FFF7B6FA009000684568684676
:10520000FFF71AFB2046A84738BD38B504004FF019
:1052100000000AD02046FFF7A5FA009000688568D4
:105220006846FFF709FB2046A84738BD2DE9F04145
:10523000044602F0CEFB06191EE000BF00F0C4FCDD
:10524000052F00DD052700F093FE11480568FFF7E4
:1052500081FA2C0017D000BF02F084FB641EFBD142
:10526000384602F0ABFB1DB100F082FE6D1EFBD193
:10527000FFF7DAFA02F076FB02F0ABFB371A002FE9
:10528000DCDCBDE8F081384602F098FBF0E7000076
:10529000540D002070B514460D46064600F068FE19
:1052A0000548016830464D848C84FBF709FFBDE852
:1052B000704002F057BB0000BC0700207FB51E46BF
:1052C00014460D46CDF80CD003AB00223146FFF753
:1052D0005FFC22462946684600F0BAF87FBD1FB53C
:1052E00003ABCDF80CD0FFF753FC684600F02CF868
:1052F0001FBD002111F014BE10B500F039FE00F002
:105300005BFD054909688A8C10448884088C4884B0
:10531000BDE8104002F026BBBC0700207FB50C465C
:105320001546CDF80CD003A9FFF77EFC002801DD5F
:10533000641EE4B203AB2A462146FFF729FC684607
:1053400000F002F87FBD00002DE9FC4706005FD0A9
:1053500000F00EFE00F030FD3C4C81462068B0F9B4
:10536000228000F085FD216807468A8CD01B888446
:1053700041E000BF47F6FF71304603F047F982462F
:105380000146304603F018F92168054691F82C00D3
:1053900000F00300012841D002283BD000204A8CB5
:1053A000101A4884ADF800006A1E1044ADF80400DD
:1053B000888CADF80200A9F101010844ADF806009F
:1053C0006A465146304602F041FD2168BDF80200B0
:1053D00088845146304602F0A1F9064430780A2804
:1053E0001ED00D281CD0BDF8000021682844488438
:1053F000307818B1761C30780028BBD12068818CB9
:1054000039448184818D21F00301818502F0AAFA5B
:10541000BDE8FC8705EBD5704010C0E72846BEE725
:10542000206890F82C1001F0030101290BD002290B
:1054300009D0018C418431780A29D9D1828C02EBC0
:1054400009018184D4E7A0F82280F4E7BC0700209A
:1054500070B514460D46064600F08AFD0548006802
:10546000458484843046FFF76FFFBDE8704002F04A
:1054700079BA0000BC0700202DE9F04107460A4830
:1054800015460E460068B0F92C0040F0020001F00D
:1054900097FE04462A4631463846FFF7D9FF204694
:1054A000BDE8F04101F08CBEBC07002047F6FF7359
:1054B000AFF300802DE9FC411F4690460D460600E3
:1054C0004FF000041AD000F053FD65B128460EF0ED
:1054D000B5FF040007D002462946684603F003F9E9
:1054E00068460EF0ABFF3B4642462946304602F086
:1054F00005FD20460EF0A2FF02F034FABDE8FC8163
:105500002DE9FF4F85B090468A4607007DD000F018
:105510002FFDDAF80040DAF8046021B230B2401A08
:10552000401C029000F048FC054618F00C0F1ED0FD
:105530003846089A029902F01FFA08F00C01042973
:1055400004D0082902D00C2911D104E0311400FB49
:105550001510401C09E02114C1EB264200FB152068
:10556000401C00EBD07001EB600060F31F4450461C
:1055700001F077FDA5F1010B04903846089A0299D5
:1055800003F05AFA03904FEA244909EB0B0060F349
:105590001F46CDE900463846039903F00DF818F090
:1055A00003010ED001292AD002290ED1BAF9042014
:1055B000BAF90010521A101A00EBD07001EB60001B
:1055C00001E0BAF80000ADF800006A4638460399D9
:1055D00002F03CFC3846089A029903F023FA07448B
:1055E00009EB050060F31F4438780028C5D1049802
:1055F00001F037FD09B0BDE8F04F02F0B3B9BAF8D9
:105600000410081A401CDEE7FFE709B0BDE8F08F80
:105610007CB514460D46064600F0AAFC1148006809
:10562000C16C006D0D4404443188681E0844ADF817
:105630000400ADF800507188601E0844ADF8060003
:10564000ADF8024068460FF0D7F806E0224629463A
:105650003046FCF7C9FC0FF049F80028F6D102F0FB
:1056600081F97CBDBC0700202DE9FF4F89B0984629
:105670000446DDF8589000F07BFC314F314BE66872
:1056800038681B68B4F800B0427CB4F802A0214628
:1056900030469847050005D1E088012800D001E098
:1056A0003868856B1EB1307908B1022000E0002017
:1056B00001F000FD069038680A99C26C5718016D18
:1056C0000B98ADF81C700E18781E0BFB0800ADF897
:1056D0002000701E0AFB0900ADF82200ADF81E6024
:1056E00007A80FF089F820E0206968B1D4E9023CEE
:1056F000CDE9003CCDE90289D0F800C0638822885A
:1057000031463846E0470EE0A188E288A068CDE93E
:105710000221CDE9040553465A4631463846CDE9C3
:10572000008908F00FFA0EF0E1FF0028DCD106989E
:1057300001F0C0FC0DB0BDE8F04F02F013B900005D
:10574000BC070020B40700207CB514460D46064671
:1057500000F00EFC10480068C16C006D0E4405445A
:10576000301BADF800003019ADF80400281BADF86F
:1057700002002819ADF8060068460FF03DF806E073
:10578000224629463046FCF77DFC0EF0AFFF00288C
:10579000F6D102F0E7F87CBDBC0700201CB50A4634
:1057A0000146684603F080F800F0E2FB2548BDF8AA
:1057B0000010006830F84C2F1144ADF80010BDF80F
:1057C000021082881144ADF80210BDF8041002885E
:1057D0001144ADF80410BDF8061080880844ADF8F7
:1057E000060068460FF008F827E000BFBDF900404A
:1057F0000BE000BFBDF90210204608F02BFBBDF9FD
:105800000610204608F026FBA41CBDF90400A042A7
:10581000F0DABDF902400AE0BDF90000214608F0C7
:1058200019FBBDF90400214608F014FBA41CBDF9C6
:105830000600A042F0DA0EF059FF0028D6D102F09F
:1058400091F81CBDBC0700202DE9F04F87B09B46A6
:10585000DDE9109892460C46054600F089FB164893
:105860000168C86C096D47190E1900EB0A0501EBB8
:105870000B04ADF81070ADF81450ADF81260ADF82F
:10588000164004A80EF0B8FF88B1DFF830B04FF032
:10589000000ACDE90098CDE902BA2B4622463946E6
:1058A000304614F055FE0EF021FF0028F1D102F031
:1058B00059F807B0BDE8F08FBC070020E1DE000812
:1058C0002DE9F04F87B09B46DDE9109892460C46D3
:1058D000054600F04DFB16480168C86C096D471974
:1058E0000E1900EB0A0501EB0B04ADF81070ADF8D2
:1058F0001450ADF81260ADF8164004A80EF07CFF0D
:1059000088B1DFF830B04FF0010ACDE90098CDE959
:1059100002BA23462A463146384614F019FE0EF0E4
:10592000E5FE0028F1D102F01DF807B0BDE8F08FC8
:10593000BC0700204DDD00082DE9FE4F9846DDE94B
:105940000D6514468A4683460C9F00F011FB0E48F5
:105950000068C16C01EB0409016D002001EB080433
:105960000EF04AFF0AE00097CDE9016523464A465A
:105970005146584614F0AAFE0EF0B8FE0028F2D1A7
:10598000BDE8FE4F01F0EEBFBC0700202DE9FC4151
:1059900014460D46064600F0EBFA114F3968C86C04
:1059A000096D054404440E44ADF80050ADF80440C0
:1059B000ADF80260ADF8066068460EF01DFF08E025
:1059C000386822463146C06E0368284698470EF074
:1059D0008DFE0028F4D101F0C5FFBDE8FC81000078
:1059E000BC0700202DE9F0411C4615460E4607462F
:1059F00000F0BEFA0C480168C86C096D0744054404
:105A00000E440C4400200EF0F7FE07E023462A4621
:105A100031463846FCF768FB0EF068FE0028F5D1E9
:105A2000BDE8F04101F09EBFBC0700207CB50C46EC
:105A3000064600F09DFA0F4D2868C16C006D0E44BB
:105A40000444ADF80460ADF80060ADF80640ADF870
:105A5000024068460EF0D0FE07E028682146C06E7E
:105A60004268304690470EF041FE0028F5D101F023
:105A700079FF7CBDBC0700202DE9FC411C46164681
:105A80000D46074600F074FA1A480168087ECA6C91
:105A9000096D401E17440D440C44391A1644ADF8E4
:105AA00000103118ADF80410291A2044ADF8060092
:105AB000ADF8021068460EF09FFE15E0324629460A
:105AC000384608F043F932462146384608F03EF998
:105AD000621E691C384608F003FA621E691C3046D3
