:020000040800F2
:10000000D0F70020E10200086DEC0008BDB7000841
:100010006BEC00086B100008713C01080000000048
:10002000000000000000000000000000F1FD0008DA
:10003000C51300080000000021F4000879FE000844
:10004000FB020008FB020008FB020008FB0200089C
:10005000FB020008FB020008FB020008FB0200088C
:10006000FB020008FB020008FB020008FB0200087C
:10007000FB020008FB020008FB020008FB0200086C
:10008000FB020008FB020008FB020008FB0200085C
:10009000FB020008FB020008FB020008FB0200084C
:1000A000FB020008FB020008FB020008FB0200083C
:1000B000FB020008ED24010825250108FB020008C9
:1000C000FB020008FB020008FB020008FB0200081C
:1000D000FB020008053C0108FB020008FB020008C7
:1000E000FB020008FB020008FB020008FB020008FC
:1000F000FB020008FB020008FB020008FB020008EC
:10010000FB020008FB020008FB020008FB020008DB
:10011000FB020008FB020008FB020008FB020008CB
:10012000FB020008FB020008FB020008FB020008BB
:10013000FB020008FB020008FB020008FB020008AB
:10014000FB020008FB020008FB020008FB0200089B
:10015000FB020008FB020008FB020008FB0200088B
:10016000FB020008FB020008FB020008FB0200087B
:10017000FB020008FB020008FB0200080000000070
:10018000FB020008FB020008FB020008FB0200085B
:10019000FB020008FB020008FB020008FB0200084B
:1001A000FB020008FB020008FB02000800F002F856
:1001B00000F06CF80AA090E8000C82448344AAF195
:1001C0000107DA4501D100F061F8AFF2090EBAE893
:1001D0000F0013F0010F18BFFB1A43F0010318477B
:1001E0008C2D0C00AC2D0C000A444FF0000C10F8C4
:1001F000013B13F0070408BF10F8014B1D1108BFA5
:1002000010F8015B641E05D010F8016B641E01F844
:10021000016BF9D113F0080F1EBF10F8014BAD1C94
:100220000C1B09D16D1E58BF01F801CBFAD505E0B2
:1002300014F8016B01F8016B6D1EF9D59142D6D30C
:10024000704700000023002400250026103A28BF34
:1002500078C1FBD8520728BF30C148BF0B60704738
:10026000692900F0DD80642900F0DA80782900F047
:100270001381732900F0B783002070471FB527F062
:10028000D0FE00F04AF91FBD10B510BD00F00CFC07
:100290001146FFF7F3FF26F075FF00F02AFC03B4C8
:1002A000FFF7F2FF03BC26F02FFF00000B49D1F847
:1002B00000C04A685CF8043B1068184442F8040B1C
:1002C0008C4528BFA1F1DC0C8A4228BFA1F1DC02D9
:1002D000C1F800C04A6020F00040704764EB002085
:1002E0000948804709480047FEE7FEE7FEE7FEE7CA
:1002F000FEE7FEE7FEE7FEE7FEE7FEE70448054906
:10030000054A064B704700007DFE0008AD0100085D
:10031000D0EB0020D0F70020D0ED0020D0ED002061
:10032000704700000FB4044910B503AA029800F00A
:100330005FFB10BC5DF814FB200000200FB41CB55F
:10034000074B06AA7B4469460090059800F021FB04
:100350000020694600F030FB1CBC5DF814FB000077
:10036000710600002DE9F0410E460446002020628F
:100370002046E168884730B3252805D0D4E901211B
:100380009047206A401CF2E7E16820460027884732
:10039000050018D0A5F14100192802D820354FF4E6
:1003A00000673246294620462760FFF759FF40B1D3
:1003B000012804D0F61D26F007060836D8E7361DBA
:1003C000D6E72846DAE7206ABDE8F08170B50C462A
:1003D0000546012A05D02878800600D5EA69002361
:1003E00002E0012305E05B1C934202D2E05C00289E
:1003F000F9D1A869E618C01AA861286A18442862C9
:100400002846AFF3008004E0D5E9012114F8010B80
:100410009047B442F8D32846AFF3008070BD000087
:100420002DE9F0410646002410687529314616A5CD
:1004300010D0AFF30080002802DA404213A507E095
:1004400031688A0701D512A502E0490704D511A534
:10045000012401E0AFF3008000210A2206F1240705
:1004600009E0B0FBF2FCB0FBF2F302FB1C00303001
:1004700078541846491C0028F3D123462A463046B2
:10048000BDE8F04100F027BA000000002D00000098
:100490002B0000002000000070B504460D462146E8
:1004A0001068AFF300802188090502D50F4A7A440D
:1004B00002E00E4A7A440E32002104F1240305E0E2
:1004C00000F00F060009965D5E54491C0028F7D124
:1004D00020780023000704D5702D02D009B1022333
:1004E00011322046BDE8704000F0F5B9271E0C001F
:1004F0000B4910B5A1F17C020A4CC2E93712372131
:1005000006E000EB104342F82130074B00FB0340AC
:100510000B1EA1F10101F4DC10BD0120E8E7000091
:1005200004EB0020E119D666CD0D010040EA01037D
:1005300010B59B070FD1042A0DD310C808C9121F8C
:100540009C42F8D020BA19BA884201D9012010BDC6
:100550004FF0FF3010BD1AB1D30703D0521C07E093
:10056000002010BD10F8013B11F8014B1B1B07D1F7
:1005700010F8013B11F8014B1B1B01D1921EF1D168
:10058000184610BD40EA0103024630B59B0710D162
:100590004FF0013400E008C208C91D1B9D4315EA55
:1005A000C41FF8D013F0FF0102F8011B0DD01B0A85
:1005B000F8E711F8013B002B02F8013B05D011F8D8
:1005C000013B002B02F8013BF3D130BD10B5431CB9
:1005D00002E010F8011B71B18107FAD14FF001322E
:1005E00002C88C1A8C4314EAC211F9D0C01A0A0648
:1005F00003D0C01E10BDC01A10BD0A0401D0801E59
:1006000010BD0902FCD0401E10BD421E12F8013F71
:10061000002BFBD111F8013B002B02F8013BF9D173
:100620007047032A40F2308010F0030C00F0158070
:1006300011F8013BBCF1020F624498BF11F801CBE5
:1006400000F8013B38BF11F8013BA2F1040298BF4A
:1006500000F801CB38BF00F8013B11F0030300F0B4
:100660006780083AC0F0088051F8043B083A51F816
:1006700004CBA0E80810F5E7121D5CBF51F8043B5D
:1006800040F8043BAFF30080D20724BF11F8013BD0
:1006900011F801CB48BF11F8012B24BF00F8013B32
:1006A00000F801CB48BF00F8012B7047431A28BF60
:1006B0009A427FF6B6AF032A1044114440F22680D6
:1006C00010F0030F1EBF11F8013D521E00F8013D4E
:1006D00010F0030F7FF4F6AF11F0030300F0AD81CB
:1006E000083AC0F00B8051F8043D083A51F804CDA7
:1006F00040F8043D40F804CDFFF7F3BF121D5CBF86
:1007000051F8043D40F8043DAFF30080D20724BF08
:1007100011F8013D11F801CD48BF11F8012C24BF9B
:1007200000F8013D00F801CD48BF00F8012C7047EA
:1007300010B5203AC0F00B80B1E81850203AA0E87C
:100740001850B1E81850A0E81850BFF4F5AF5FEAB0
:10075000027C24BFB1E81850A0E8185044BF18C963
:1007600018C0BDE810405FEA827C24BF51F8043B0A
:1007700040F8043B08BF7047D20728BF31F8023B5E
:1007800048BF11F8012B28BF20F8023B48BF00F8F2
:10079000012B704702F0FF0343EA032242EA0242C0
:1007A00000F002B84FF000020429C0F0128010F0EF
:1007B000030C00F01B80CCF1040CBCF1020F18BF3D
:1007C00000F8012BA8BF20F8022BA1EB0C0100F0D0
:1007D0000DB85FEAC17C24BF00F8012B00F8012BA3
:1007E00048BF00F8012B70474FF0000200B51346D8
:1007F00094469646203922BFA0E80C50A0E80C5041
:10080000B1F12001BFF4F7AF090728BFA0E80C50F1
:1008100048BF0CC05DF804EB890028BF40F8042BEA
:1008200008BF704748BF20F8022B11F0804F18BF57
:1008300000F8012B704700004FF0013C50F8042BEA
:1008400051F8043B9A4221D1A2EB0C03934313EAE3
:10085000CC1317D150F8042B51F8043B9A4215D110
:10086000A2EB0C03934313EACC130BD150F8042BE7
:1008700051F8043B9A4209D1A2EB0C03934313EACB
:10088000CC13DBD04FF00000704700BFD01A01BA84
:10089000B1FA81F101F0180122FA01F0CB40C1F167
:1008A0002001DBB2C0B2C01A2CFA01F3D11A914375
:1008B00011EAC311E6D1704770477047704770471F
:1008C00010B500F0E5F8006810BD10B5044600F062
:1008D000DFF8046010BD2DE9F0470D4699469246B9
:1008E000044600F124080168880604D5E06921F077
:1008F0001001216000E00120A84201DD471B00E05B
:100900000027A1697A1902EB0900081AA061207872
:10091000C00602D42046AFF30080002608E0D4E9E8
:1009200001211AF806009047206A401C761C2062BC
:100930004E45F4DB2078C0060AD52046AFF3008090
:1009400006E0D4E9012130209047206A401C206253
:10095000381EA7F10107F4DC07E0D4E9012118F8FB
:1009600005009047206A401C2062281EA5F1010561
:10097000F3DC2046AFF300802078000602D5022089
:10098000BDE8F0870120FBE701694A1C0261087895
:10099000704700B58FB0CDE90131002105910549BF
:1009A0007944CDE9031011466846FFF7DBFC0FB030
:1009B00000BD0000E5FFFFFF0A6802F8010B0A60B6
:1009C000704710B5436913B1AFF3008001E0FFF742
:1009D000FDFC012010BD127800F124010A700022F4
:1009E0004A700122EDE711684FF0FF32E9E700009D
:1009F000074B70B50D467B44FFF7CBFF04462846F6
:100A000000F04AF810B14FF0FF3070BD204670BDC5
:100A100077670200431A28BF9A427FF689AE1044D6
:100A200010F0030F11441EBF11F8013D521E00F8D3
:100A3000013D10F0030F7FF4F6AF103AC0F00A80CA
:100A400010B531E91850103A20E91850BFF4F9AF49
:100A5000BDE81040530724BF31E9081020E9081011
:100A600044BF51F8043D40F8043D12F0030F08BFA5
:100A70007047D20728BF31F8023D48BF11F8012C5A
:100A800028BF20F8023D48BF00F8012C7047000045
:100A9000004870476CEB0020007B00F0800070473E
:100AA000004870476CEB00207546FFF7F9FFAE4633
:100AB00005006946534620F00700854618B020B56A
:100AC000FFF71CFCBDE820404FF000064FF0000788
:100AD0004FF000084FF0000B21F00701AC46ACE8E6
:100AE000C009ACE8C009ACE8C009ACE8C0098D4653
:100AF000704710B50446AFF300802046BDE81040B3
:100B0000FFF7CDBB0BF07EB82DE9F0410D46014655
:100B1000002004464E1908E00702301B401E80B238
:100B200000F007F8641C3844E4B2AC42F4D3BDE8EA
:100B3000F08110B504460BF00DF9200AA02101EB5D
:100B40004000C0B20BF0D6F80BF046F9E0B20BF063
:100B5000D1F80BF041F90BF0FDF8A1200BF0CAF829
:100B60000BF03AF900200BF091F804460BF012F963
:100B7000204610BD2DE9F04116460D4607460024DB
:100B800009E0E00025FA00F0C1B2381980B200F0A7
:100B900006F8641CE4B2B442F3D3BDE8F08170B54A
:100BA0000D4604460BF0D6F8200AA02101EB4000C8
:100BB000C0B20BF09FF80BF00FF9E0B20BF09AF80F
:100BC0000BF00AF928460BF095F80BF005F90BF03D
:100BD000E1F8BDE870400A2026F0A2BA002800DC47
:100BE0004042704738B5456804460146284613F030
:100BF0005FF800282BD02068304A11280DD006DC81
:100C00000B2825D00E2833D00F2852D112E02828E7
:100C100049D0B0F5107F4CD108E09268002A16D078
:100C20002146284601B0BDE83040104721462846FD
:100C30005268F7E7284604F0FBFA0090406E04681B
:100C4000684604F05FFB002C01D02846A04738BD61
:100C5000284604F0EDFA0090683004F035FA009868
:100C600003216C3004F03EFA684604F04BFB20E0B0
:100C7000E168486809680D2902D0202913D105E0F0
:100C8000002810DD284620F010FD06E0002804DDD5
:100C90002846BDE8384020F008BD2846BDE8384069
:100CA000022120F018BDE06818B90021284600F0A4
:100CB00099F92046BDE8384013F0DCBAFC08002062
:100CC000F0B5044685B08069B4F90850668A0027FB
:100CD000CDE90265CDE900170490B4F90C00B4F930
:100CE0001060C118B4F90A00B4F90E50104433462C
:100CF0002A4600F007F80546616800F089F905B05A
:100D00002846F0BD2DE9F04F85B01F46DDE911B44E
:100D1000DDE90E5690468946824605F04BFF16489F
:100D20004C34CDE90204CDE900563B4642464946E3
:100D3000504613F0E7F9040018D004F079FA1022B5
:100D40005946049013F008F9049830220B493430C6
:100D5000FFF7EEFC094D04990C3D2868486604A88D
:100D600004F0D0FA286841682046884707F0C4FD9F
:100D700005B02046BDE8F08FE50B0008080900200B
:100D8000F0B5044680688B4989B051F820506068FE
:100D900000287DD0052804D006287AD0122879D1E1
:100DA000AEE0E86900284FD095E80E008DE80F000E
:100DB00004F110010FC908F01FFA002655F82600AB
:100DC00007F0FDF8A169E8690A1A21690144606920
:100DD000304405F053FBA169E8690A1A216901440E
:100DE000E069801B05F04AFBE169E8690A1A61695C
:100DF00001442069304405F049FCE169E8690A1AB8
:100E000061690144A069801B05F040FC761C022E3C
:100E1000D4DBA86807F0D3F8E069E9696669431A8A
:100E2000206942183144801C521E05F0B9FCE1696A
:100E3000E869A2690B1A61690144101A401C921EEC
:100E400005F0AEFCEE6913E05FF0000655F82600F1
:100E500007F0B5F8E069831BA069821B60698119FE
:100E60002069304405F080FB761C022EEEDB022662
:100E7000D5E90301CDE900016169E0690844431047
:100E8000A069891C821B2069304405F091FA02E0B8
:100E900089E012E08AE0D5E90501CDE90001E369C6
:100EA00060690121184401EB6001A0699B1E821B4F
:100EB0002069304405F07CFA78E0206804F0B8F945
:100EC0000490206814F0F4FE40B1A06808B100203E
:100ED00008E00498006F28B1012003E00498406FF7
:100EE00000B10220049901EB8000C56E04A804F053
:100EF00009FA00231A462846216804F0C5FE55E089
:100F0000206804F095F90490866EEEB3B0F95C7039
:100F1000A168D1B3032942D05FF0000100EB810149
:100F2000406D0C6C07F07AF8204607F048F805A8E9
:100F300005F062FDBDF81410A88B0144ADF8141043
:100F4000BDF81810081AADF81800BDF81600801C7E
:100F5000ADF81600BDF81A00801EADF81A0004980E
:100F6000B0F96020B0F95E1005A806F0E7FC04A80F
:100F700004F0C8F9022007F0DBF8304604F058F915
:100F80003A4605A9079001E00BE006E004F0FEFFF9
:100F90000DF11C0004F0B6F908E00121BEE70221C2
:100FA000BCE704A8F6E7206814F0B6FA09B0002000
:100FB000F0BD0000A8100C08044A03491160044960
:100FC0004A6A48621046704738090020FC08002031
:100FD0000809002000294FF0100101D012F0FCBEDA
:100FE00012F047BE4FF480720029114601D012F072
:100FF000F3BE12F03EBE00000348024941600349BF
:1010000081607047AF300208FC0800209D2A02086A
:101010002DE9FF410E4605004FF0010421D005F0F7
:10102000C9FD284604F004F90190876E01A80097D5
:1010300004F068F93146684608F08AFC78B10098F7
:101040000024B84208D0284604F0F2F80190009934
:10105000816601A804F056F9284613F0A5FE07F0B2
:101060004BFC04B02046BDE8F081FEE77CB5214C86
:101070000546216831F8220F4A8D104408804888BF
:10108000CA8D10444880284605F090FC2168498CA0
:10109000ADF800104618284608F0AAFA3044401E61
:1010A000ADF8040005F0D2FC2168898CADF802107F
:1010B0000844401EADF80600684614F085FC04E0C4
:1010C000284601F0AFF914F0F9FB0028F8D10A2DF9
:1010D00004D0BDF804002168401C4884206830F822
:1010E000221F428D891A01804188C28D891A418050
:1010F0007CBD0000D007002070B50E4C0025C4F860
:1011000098520D48016821F0C0010160016841F06A
:10111000400101600948C0F88C52022004F5267491
:1011200026F00CF801202060022026F007F8256048
:1011300070BD000000804342002002400000444295
:10114000154810B5016886B041F080010160016862
:1011500001F080010591016841F48071016000682F
:10116000012400F4807005904020CDE900040320A4
:10117000CDE902406946094808F044FD0820009086
:101180006946074808F03EFD0648C0F88C4206480C
:10119000C0F8984206B010BD30380240001C024032
:1011A00000200240000044420080434270B50E4CD3
:1011B0000026C4F898620D48016821F0C001016062
:1011C000016841F04001016009480125C0F88C52D6
:1011D000022004F5267425F0B1FF2560022025F0D9
:1011E000ADFF266070BD0000008043420020024039
:1011F000000044422DE9F047824619480024016866
:1012000021F0C0010160016801601E2025F096FFF9
:101210000025144EDFF850902F464FF00108C6F815
:101220009872022025F08AFFC6F898826006040EA4
:10123000D9F80C0208B1641CE4B2022025F07EFF4C
:101240006D1CEDB2082DEAD3BAF1000F04D0FFF700
:1012500053FF2046BDE8F087FFF7A8FFF9E700003D
:101260000020024000804342000044422DE9F04744
:1012700005461648016821F0C0010160016841F08F
:1012800040010160124E0027C6F89872022025F036
:1012900055FFDFF8408000244FF00109E909C8F844
:1012A0008C126806050E022025F048FFC6F89892B9
:1012B000022025F043FFC6F89872022025F03EFF79
:1012C000641CE4B2082CE9D3BDE8F087002002409A
:1012D000008043420000444270B50F48016821F08D
:1012E000C0010160016841F0400101600B4E012026
:1012F000C6F88C020A4DC5F898021E2005F5267521
:1013000006F5237625F01AFF00243460022025F02C
:1013100015FF2C6070BD0000002002400000444218
:101320000080434270B50F48016821F0C0010160A0
:10133000016841F0400101600B4E0020C6F89802A0
:101340000A4DC5F88C021E2005F5237506F5267694
:1013500025F0F4FE01243460022025F0EFFE2C601D
:1013600070BD000000200240008043420000444263
:1013700070B511480024016821F0C00101600168C6
:1013800001600E4D0120C5F88C020D4EC6F8980282
:1013900007E0641CE4B2FA2C03D9FFF7C3FF012075
:1013A00070BD022025F0CAFED5F80C020028F0D14D
:1013B000C6F8980270BD00000020024000004442C0
:1013C00000804342704700002DE9FC5F1546074648
:1013D000DFF8908028440190D8F800201C460E4683
:1013E000526E2144894652689047D8F80020781BF5
:1013F0004946526E824652689047711938190090DA
:10140000D8F800208946526E52689047D8F80020DC
:10141000711B8B46526E009852689047002C1ED06C
:10142000D8F80010361B4546496E01984A68314687
:1014300090472A6831465046526E52689047286855
:101440003C1B4946406E4268204690472A685946F0
:101450002046526E526802B0BDE8F05F1047BDE80A
:10146000FC9F0000D007002070B5B3F5804F05D079
:101470006FF0704140F82210002070BD50F822300B
:10148000084C2340D1E9004544EA05148D688E8953
:101490002D0245EA064589692C430C431C4340F85C
:1014A0002240E9E70000F0CFF0B50C6850F8245076
:1014B000194A1540D1E90123D1E903671A433E4394
:1014C00032434E6932438E693243CE6932430E6AEB
:1014D00032434E6A32438E6A3243CE6A3243CE6B17
:1014E00032430E6B32434E6B32432A43082B01D1F9
:1014F00042F0400240F824204A6BB2F5801F08D128
:101500000A6832B14FF480720A61044902681143DB
:1015100001600020F0BD00008000E0FF000110002D
:10152000F0B500EB820253688E8903F04044D1E9A4
:10153000003543EA05138D682D0245EA06452B4325
:101540000E8A0D4D05EB065633430E7D6F0107EBFA
:10155000066633438E693343234353600268D202E5
:1015600007D54268098A22F4700205EB0151114344
:1015700041600020F0BD00000000F0FF30B5D1E96F
:1015800001231A43D1E9033423431A434B690D68FD
:101590001A438B691A43D1E90734012D496A05685A
:1015A0006FF30E0505D01A4322430A432A43026013
:1015B00008E0234329430B43416803606FF30E01A6
:1015C0000A434260002030BD426942EA4101416164
:1015D00000207047F8B514460546D1E900021043D3
:1015E0008A686FF01F03C96803EB421242EA412187
:1015F00008430090286108F0FDFB064609E0601CE6
:1016000007D024B108F0F6FB801BA04201D90320CB
:10161000F8BDA8698006F2D40020F8BDF0B56FF0DF
:101620000F05D1E9003405EB04145B1E2E012343A2
:101630008C682F0306EB04244FEA054C23430D8AE4
:101640008E8ACC68097E4FF07F4E07EB05450CEB88
:1016500006560EEB0161012A0CD082683F1107EBA0
:10166000043423432B43334302F070420B431343B0
:1016700083600FE0C2682B430B4302F07042816825
:10168000134301F070422103A1F58051314311430E
:10169000C36081600020F0BD2DE9F047044640683A
:1016A0008EB00027804603F0C3FD0090B0F87CA008
:1016B000D0F86890D0F88060D0F88850C06D00B144
:1016C0000768684603F01EFE05E069682046884703
:1016D000002843D12D68002DF7D12068172853D05A
:1016E0000CDC0F283DD004DC0B2877D00D2825D149
:1016F0008BE0112810D0142820D13BE0262846D0BA
:1017000004DC1E2851D0202818D18AE02A2816D0BF
:10171000B0F5107F12D128E04046E56803F088FD5F
:101720000290697A39B9297A012904D130F87C1FED
:1017300041F48071018002A803F0E4FD75E04046A9
:1017400003F076FD0090E16811B1C0F8841002E06A
:10175000D0F88400E060684603F0D4FD0EB0BDE828
:10176000F087D7B34046B8475FE02146404621F0B6
:1017700007FAF3E705A9404600F0A1FBE0680699E7
:10178000016007994160E9E7C4F80C90E6E7E0687A
:101790000228E3D1CDF83080E0680D9027200A9030
:1017A0000AA9A06814F094FCD8E7E068012804D0E6
:1017B0000021404600F0C8FAD0E7304613F06FFB36
:1017C00068B1304613F022FE304613F019FA98B192
:1017D0000121304612F000FB0EE026E02FE04846E3
:1017E00013F068FE0646404603F022FD0090C0F864
:1017F0008060684603F086FD0121404600F0A4FAAF
:10180000002EABD10020E060A8E75FEA0A700CD49C
:10181000E068C06848B1007A38B1404613F0F6FD80
:1018200003E0214640461FF073FF2146404612F078
:101830003FFA002892D0204612F01CFD8EE7404669
:1018400003F0F6FC0090703003F03EFC684673E74E
:10185000F0B587B0B0F908400DF10C0C0C9E87690B
:1018600045688CE8F000448A0025CDE90015029413
:10187000B0F90C10B0F91050B0F90E40B0F90A00F0
:10188000194410442B46224600F002F807B0F0BD80
:101890002DE9F04F8BB09846DDE9155691468A4602
:1018A0008346149F1A9C05F085F93348603445F44B
:1018B0008055CDE90204CDE9007543464A465146BC
:1018C000584612F01FFC04004FD003F0B1FC302248
:1018D0000490179912F040FB0498282227493430CD
:1018E000FEF726FF04981999244F4166A0F87C6002
:1018F0000026C0F88060C666083FC0F88860796836
:10190000C16504A803F0FEFC05A9204600F0D7FA43
:101910001B4841F2827103960094CDE90110BDF994
:101920001E00BDF91A10BDF91C20431ABDF918009C
:101930005B1C121A521C12F0E5FB064678684168DF
:1019400020468847204603F073FC0490866604A86E
:1019500003F0D8FC42F20400054202D1204612F006
:1019600039FD2046189900F053FA06F0C5FF0BB078
:101970002046BDE8F08F000099160008CC09002031
:10198000772000082DE9F041044694B0006800F08B
:10199000B7F908B1D94D01E0D84D2C35606815284C
:1019A0001ED00CDC0B281FD004DC00287ED00528BC
:1019B0007DD12FE10E287BD01228F9D141E11628E4
:1019C00006D0172808D0182808D01C28F0D109E024
:1019D000E86914B0BDE8F081286AFAE7686AF8E7B8
:1019E000A86AF6E76869F4E720680B901C200C9061
:1019F000206803F01DFC0390016D0BA88847064684
:101A000003A803F07FFC022E0FDB95E807008DE8AA
:101A10000700D4E904023346A16907F0B3FB20694B
:101A20008719A069A0EB06082CE0286806F0C7FA21
:101A30002169E8690A18521E606904F01FFDA26955
:101A4000E869111A491C606904F018FDD4E904071B
:101A50007F1C394604F062FD3946A06904F05EFD42
:101A6000686806F0ACFA20693946401C04F056FD5F
:101A7000A0693946401E04F051FDA0692769A0F114
:101A80000208BF1C286806F09AFA42463946606987
:101A900004F0F4FC686806F092FA60694246394640
:101AA000401C04F0EBFC686A022802E015E1B0E09B
:101AB00000E10BDDA86806F082FA61696A6A881C99
:101AC0008B180146424638465B1E27E0296AB14220
:101AD00026DD6069022E074600F1020801DB37446B
:101AE00001E007F10207206901DB304401E000F169
:101AF000020022693B460A444146A2F1010204F079
:101B00004FFE022E02DBA069821B01E0A269921E39
:101B1000A069E9693B46401A4146401C04F040FE7A
:101B2000022E02DB6069064401E06669B61CE769C3
:101B300028687F1E06F043FA3A463146206904F0D1
:101B4000A5FD3A463146A06904F0A0FDE769686842
:101B5000BF1E06F034FA20693A463146401C04F0B4
:101B600095FDA0693A463146401E04F08FFDE869B4
:101B7000022802DC286A022823DDA86A022802DD86
:101B8000E1690F1A01E0E769BF1EA86806F017FABD
:101B9000E969022909DD20693B46421800F1020C7F
:101BA00031466046521E04F0FBFD286A022808DD1B
:101BB000A269E8693B46101A3146401C921E04F0A7
:101BC000EFFD286806F0FBF9D4E90620216904F04E
:101BD00055FC686806F0F3F9D4E906202169401E37
:101BE000491C521E04F04AFCA86A022811DDA169B2
:101BF0002669E469A1F10208271AA41EB61C7F1CFD
:101C0000A86806F0DCF9234642463946304604F01F
:101C1000C7FD71E0208A00B2ADF81400A18A09B2B4
:101C2000ADF81610228B12B2ADF81820A38B1BB2A0
:101C3000ADF81A302C69ED68CDE9005404F0B8FB1A
:101C40005AE0208A298B0844ADF81400A08AADF828
:101C50001600208B298B401AADF81800A08BADF828
:101C60001A00206803F0E4FA0390006FF0B102203C
:101C700006F05EFA039890F87C10C1F3C00100EB07
:101C80008100006C06F09BF90398406B06F0C6F9E2
:101C90000398006F03F0CCFA03990990B1F95A2028
:101CA00005A904F073F909A803F02CFB03A803F0BD
:101CB00029FB21E0208AADF81400A08AADF81600B7
:101CC000208BADF81800A08BADF81A00A86806F0BC
:101CD00076F905A804F090FD0EE0206803F0A8FA5C
:101CE000039030F85A1F41F00C01018003A803F063
:101CF00009FB206813F010FC00206AE6080A0020A7
:101D000038B505004FF000040FD004F053FF28460B
:101D100003F08EFA009090F87C00000700D50124B3
:101D2000684603F0EFFA06F0E7FD204638BD0000F4
:101D3000022905D2034A52F821102C22FEF7F8BCE2
:101D400070470000B8100C0870B50D46040009D0AB
:101D500004F030FF2946204622F070F8BDE87040BC
:101D600006F0CABD70BD0000022803D2024A02EB91
:101D70008000416070470000CC09002001490860E4
:101D800070470000CC090020074A0649054B116046
:101D9000064A083BD16958601B68C2E9063008460C
:101DA00070470000FC090020C8090020CC09002071
:101DB000024AB2F92610D08408467047CC090020A8
:101DC00070B50D460146022D1ED2104C2C2254F83F
:101DD0002500FEF7ADFC54F825100220CA69022A3E
:101DE00000DAC86154F825100A6A022A00DA08628B
:101DF00054F825104A6A022A00DA486254F825107D
:101E00008A6A022A00DA886270BD0000B8100C08E5
:101E10007CB50D4604001DD004F0CCFE204603F036
:101E200007FA0090006F0190684603F06BFA2946AC
:101E300001A807F08DFD58B1204603F0F9F9009094
:101E400001990167684603F05DFA204612F0ACFF85
:101E500006F052FD7CBD38B50C46050013D004F0E9
:101E6000A9FE284603F0E4F90090B0F95A10A14207
:101E700004D0A0F85A40284612F096FF684603F0B6
:101E800041FA06F039FD38BD38B50C46050015D0CD
:101E900004F090FE284603F0CBF90022CDF80000B4
:101EA00000EB8201521C0C64022AF9D3684603F04D
:101EB00029FA284612F078FF06F01EFD38BD2DE9FC
:101EC000F34F85B000270C46B846059803F0B0F9EB
:101ED0000090C06D0121856805982A689047824668
:101EE0002A6803210598904704902A6802210598E2
:101EF000904703902A68002105989047064600986D
:101F000013F053FD8346009813F056FD8146009868
:101F100090F83210890601D5B0F9588000F036F8F3
:101F200005460098C06E10B112F086FC0746258069
:101F30006780A4F804A0049AABEB020006EB080249
:101F4000401E2A4420813A44E280039BA9EB03020D
:101F5000521E6281A4F80CA020827019E681401EF6
:101F60006082684603F0CEF9B4F90C000190B4F930
:101F70001000029002AA01A9059800F039F8019812
:101F8000A0810298208207B0BDE8F08F10B501460D
:101F9000002091F83220920607D5B1F954000028AC
:101FA00003D1486B04F0C3FD801C10BD70B58AB02E
:101FB0000C46054603F03CF90990C06D866809A8F7
:101FC00003F0A0F9009534B1012C06D0022C0BD0FF
:101FD000032C04D10AE0182000E01620019071685B
:101FE000684688470AB070BD1520F7E71720F5E767
:101FF0002DE9FC4117468846044603F019F9009084
:10200000C16D056868468E6803F07CF9326800216E
:10201000204690470646204612F0B3FA27E000BF5C
:1020200003F006F90190B0F900102AB2B0F90430BB
:10203000891A9A1AB0F90230A3EB2543B34210D1A2
:1020400090F82800000605D53868884209DB491E4B
:10205000396006E0D8F80000904202DC521CC8F853
:10206000002001A803F04EF9204612F02FFB0400D7
:10207000D6D1BDE8FC812DE9F0430446406889B023
:10208000054612F041FB814603F0D2F80290D0F8E9
:102090004880D0F88070466E02A803F033F92068BB
:1020A000172853D008DC0E283AD00F2811D0142856
:1020B0004CD015283DD149E01E281ED01F282AD01B
:1020C000222840D0312834D10020E06009B0BDE89A
:1020D000F0836FF070414046884503D00AF0F0FE6F
:1020E00003F050FC002EF1D0D4E902122068CDE9B3
:1020F0000405CDE9061204A81FE0E0680028E5D039
:102100002FB1AF4203D0384613F080F9DEE72846FE
:1021100013F0D0F9DAE72146484611F0C9FDD5E7BA
:10212000E0684168002904DD00680928EFD00A282A
:1021300005D05EB12046C4F80490B047C6E72846F3
:1021400013F0C7F9C2E7C4F80C80BFE7204612F0CD
:1021500091F8BBE770B5364888B00024016841F0BB
:1021600080010160016801F080010691016841F47D
:1021700080710160006801A900F4807006908020E1
:10218000012581E83100032004902A4807F03AFD38
:102190002802CDE9010501A9274807F033FDFEF724
:1021A000CFFF264EC6F8A042142006F5287624F06C
:1021B000B7FF3560322024F0B3FF8DF800400122D4
:1021C0006946002000F00AF901226946A42000F0C7
:1021D00005F916208DF8000001226946802000F0E4
:1021E000FDF80C208DF8000001226946882000F0DF
:1021F000F5F802226946A12000F028F89DF80000B9
:10220000302803D19DF80110032908D09DF8011052
:10221000012904D0022902D0012008B070BDC9B242
:1022200001EB002106A0FEF77DF80020F5E7000095
:1022300030380240001C02400020024000004442AE
:102240004354502049443A25780D0A002DE9F041C5
:1022500015460F460446FFF73FF87020FFF706F8D3
:10226000FFF786F8E0B2FFF701F8FFF781F8FFF714
:1022700033F87120FEF7FAFFFFF77AF800246E1E9C
:1022800009E0B44201D0012000E00020FEF7B2FFD7
:102290003855641CE4B2AC42F3D3BDE8F041FFF71B
:1022A00041B800002DE9F143484F00244FF00A09DE
:1022B000387882B0401CC0B2B0FBF9F209FB1201C1
:1022C000434DA046387009B10A2864D2012202A900
:1022D0000220FFF7BBFF9DF8080001075BD000F06C
:1022E0000F00062857D2FF218140C84340F0C000AC
:1022F00085F820004FF00108002695F8201008FA14
:1023000004F001423AD033480422694630F8140000
:10231000FFF79CFF95F830009DF80010C0079DF86E
:10232000010001F00F010ED000EB012105EB44008C
:10233000C1829DF802209DF8031002F00F0201EB0C
:102340000221818110E000EB012023490988091A4C
:1023500005EB440081819DF802209DF8031002F0F6
:102360000F0201EB0221C1829DF800000821B1EBB0
:10237000101F03D005EB4400C6828681641CE4B2C2
:10238000052CBAD3A9894FF0010819B9E88A08B910
:102390008DF808603E709DF80800C0060ED195F8D3
:1023A0002000010602D520F0800005E04FF6FF7105
:1023B000A981E98200F0E00085F820003878F02853
:1023C00001D987F800904046BDE8FE833400002024
:1023D0003C00002086C70208401000202DE9F04193
:1023E00015460E4604460027FEF776FF7020FEF7DE
:1023F0003DFFFEF7BDFFE0B2FEF738FFFEF7B8FF86
:10240000002408E0305DFEF731FFFEF7B1FF070062
:1024100003D1641CE4B2AC42F4D3FEF783FF384628
:10242000BDE8F08110B504460A2812D00D2C14D056
:1024300004F0C0FB09480068C0690168204688476D
:102440000748016809B120468847BDE8104006F0FA
:1024500053BABDE8104003F0BFBC10BDD007002048
:10246000FC0700202DE9F0430446C56887B090467C
:102470008946002005F0C6FD064625B1287910B131
:1024800046F0020001E026F0020005F0BBFD2069E5
:10249000012558B1D4E902128DE82600039563881E
:1024A0002288046841464846A0471EE0124F134B5D
:1024B000214638681B68427CE068984730B9E0885C
:1024C000012801D0002001E03868806BA288E388F1
:1024D000A1680095CDE90410CDE902320195638829
:1024E00022884146484609F0C7FD07B03046BDE89E
:1024F000F04305F087BD0000D0070020C80700208A
:102500002DE9F0478146884640F2C32050434FF4FE
:102510007A7190FBF1F502FB02F002EBD27100EB55
:10252000610617460023414648466D1CFEF74CFFE6
:10253000012413E004FB04F007FB0700B04206DDB2
:102540003B46224641464846FEF73EFF7F1E3B463D
:10255000224641464846FEF737FF641CAC42E9DD9F
:10256000BDE8F0871CB50024019401AC009400F094
:10257000E7F81CBD2DE9FF4F83B0814606988A46D7
:10258000A0EB0A08109E00200090A2EB0904356819
:10259000934654EA080018D02046FEF71FFB074672
:1025A0004046FEF71BFB87420BDA20464446804636
:1025B0004846D14682465846DDF818B006900120BC
:1025C0000090002C07DD204606E007B04846BDE835
:1025D000F04F00F03BB96042A0420AD04846D946CD
:1025E0006442C8F1000883464FF0FF37DDF818A0B9
:1025F00000E001275148B8F1000F11D004EBD4716D
:102600004FEA610B01DACBF1000B4C480068807E89
:1026100088B3002F02DA30682044306000257BE068
:1026200000990029016821D0897E11B100278046D8
:1026300015E007B05A4649465046BDE8F04F09F04C
:10264000E1BE28466D1C21F045FF38B9D8F80000DE
:1026500009EB0701406E4268504690477F1CA74235
:10266000EFDD6D1E356007B0BDE8F08F8A7E1AB1D0
:102670000027804617E019E0486E5A465146036825
:1026800007B04846BDE8F04F184728466D1C21F0BA
:1026900021FF38B9D8F8001009EB0700496E4A68E5
:1026A000514690477F1CA742EFDDDAE700250FE097
:1026B00008FB05B090FBF4F101EB0A00009951B161
:1026C0001E4A09EB05011268526E526890476D1C54
:1026D000A542EDDDC7E7194909EB05030968496E15
:1026E0004A6801461846F1E708FB05B090FBF4F193
:1026F00001EB0A00019030683844306021F0EAFEB6
:1027000048B9009890B10D4809EB05010068406E8A
:102710004268019890476D1CA542E5DD3068002FA6
:1027200001DA20443060C01B30609CE7034909EBAC
:1027300005000968496E4A680199EBE7D007002057
:102740002DE9FF470F4640491646804609680C9818
:102750001D460A7E012A1CD0A8EB0600791B50EA10
:1027600001031CD0A2F1010924F050F800F58060AB
:10277000824607F016FA00FB09F4504607F016FAF5
:1027800000FB09F1002C0CDAC4F500708012404205
:102790000AE00090324639464046FFF7EBFEBDE8BE
:1027A000FF8704F50074A012002904DAC1F5007156
:1027B00089124C4202E001F500718C12002804DD00
:1027C000411C01EBD171491003E000EBD0714910BD
:1027D000401E00EBD0704210002C04DD601C00EBAA
:1027E000D070401003E004EBD4704010641E04EB82
:1027F000D47308EB0104ADF800403C18ADF802407A
:10280000A8EB02045B10B21AADF80440ADF8082042
:102810003144FC1AEA1AADF80C102844ADF80A202D
:10282000ADF80E000023ADF806401A4604216846B4
:1028300000F08CF83946404619F0F2FE2946304641
:1028400019F0EEFEABE70000D0070020064A13683F
:102850001A7E012A05D0521E02EBD272521000F0ED
:1028600005B85A6E52681047D00700202DE9F05F76
:102870000646884640F2C32002FB00F14FF47A700E
:1028800091FBF0F702FB02F102EBD27001EB600B5F
:102890001446B118234A301B7F1C1268526E13680D
:1028A0000A4641469847012538E000BF05FB05F080
:1028B00004FB040159451CDDBC4219DD194B06EB34
:1028C000050AA6EB05091B68AAF1010208EB040141
:1028D0005B6E09F101001B689847124BAAF10102D7
:1028E000A8EB04011B6809F101005B6E1B689847A7
:1028F000641E0C4B3219301B1B68924608EB050115
:102900005B6E81461B689847064B5246A8EB050153
:102910001B6848465B6E1B6898476D1CBD42C5DD51
:10292000BDE8F09FD007002070B514460E4605465E
:102930000119001B02F014FB2246314628461BF009
:10294000BFFABDE8704002F025BA00002DE9FF4F44
:1029500043F6FF740F46664283B09B4681460021D2
:102960000BE000BF09EB8100B0F90200A04200DAE1
:102970000446B04200DD0646491CB942F2DB674816
:102980000068406900280DD0B0F906101A46A1EB86
:102990000B01B14200DA0E46B0F90200801AA042E3
:1029A00000DD0446B4E0DFF878A100200546CAF84F
:1029B000000088E0781E854201DA6B1C00E00023ED
:1029C00009EB850C09EB8302BCF90200B2F9021095
:1029D000A04244D1A14215D139F92330059A39F9E1
:1029E000251003EB020C4D4A05981268084404EBCD
:1029F0000B01526E6045136801DA62462AE0024616
:102A0000604627E02846A4464FF000087A1E0BE0F7
:102A100008B1401E00E0781E09EB8003B3F90230D4
:102A2000634504D108F101089045F1DB2346A34238
:102A300048D01A1B39F92500A1EB040C059B92EA3A
:102A40000C0F09D4354A184404EB0B011268526E7E
:102A500013680246984735E013F04CFD32E0A1427E
:102A600030D001DBA04203DDA0422BDBA14229DCF8
:102A7000E04688420ADC0346A04223DC0846A14225
:102A800020DBB8F900C0B2F9001008E00B46A14203
:102A900018DCA04216DBB2F900C0B8F90010E21A47
:102AA000A1EB0C0151430029A0EB030202DD01EB75
:102AB000620102E0A1EB6201491CC01A91FBF0F037
:102AC0006044C9E76D1CBD42FFF674AF05980090E5
:102AD00004EB0B00019000208046054613E01149ED
:102AE000B8F1000F31F915A009D0009901EB0A02E5
:102AF00008440A490968496E0B680199984788F0AB
:102B0000010850466D1C064909688D42E7DB641CCC
:102B1000B4427FF748AF07B0BDE8F08FD007002080
:102B2000B80D0020A0E9002010B5002005F030FA13
:102B30006FF07F4005F043FA012005F0DBFA00203A
:102B400005F0E6FA002005F0F3FA002005F05AFA45
:102B50000448006805F062FABDE81040002005F066
:102B60009BBA0000CC07002033B583B004001BD013
:102B700004F020F8204602F05BFB0190456E01A8AE
:102B800002F0C0FB049802F053FB0090846068469A
:102B900002F0B8FB042204A9284602F0D7FB204625
:102BA00012F002F905F0A8FE05B030BD33B583B0D0
:102BB00004001BD003F0FEFF204602F039FB019019
:102BC000856E01A802F09EFB049802F031FB009094
:102BD0008460684602F096FB042204A9284602F0AD
:102BE000B5FB204612F0E0F805F086FE05B030BDDA
:102BF0002DE9F04104460025D4E90007B0F5407FF7
:102C000000D101252146384611F052F8064615B18B
:102C100038461EF05FFA002E2FD02068052806D017
:102C20000B280ED00F2806D0262821D10EE03846DA
:102C30001EF050FA1CE03846E168BDE8F0411FF094
:102C4000D8B83846BDE8F0411EF091BDE0680528CF
:102C50000ED1384611F092FDA168884205D0384661
:102C600011F07CFDA168884202D160681FF038FF36
:102C70002046BDE8F04111F0FDBABDE8F081F0B5A5
:102C800085B00DF1280C9CE8F0004FF0000C8DE8A9
:102C9000F01000F003F805B0F0BD00002DE9F04F92
:102CA00085B09846DDE90E5691468A468346109FC8
:102CB000129C03F07FFF18486C34CDE90204CDE983
:102CC000005643464A465146584611F01BFA040046
:102CD0001BD002F078FB054602F075FB0646204645
:102CE00002F0A6FA0490C0E919560022119911F0D9
:102CF00033F90498302209493430FDF719FD04985E
:102D0000A0F8787004A802F0FDFA05F0F5FD05B012
:102D10002046BDE8F08F0000F12B0008600A00207B
:102D200013B582B0044603F045FF204602F080FA56
:102D3000009060B1406A02F07BFA014601900223E4
:102D400003AA009800F0C8F901A802F0DBFA68466F
:102D500002F0D8FA05F0D0FD1FBD00002DE9F043C8
:102D600085B01D4690460F46814603F023FF2C2078
:102D700002F061F9060024D0780002F05CF904004A
:102D80000ED0B8F1000F0BD055B1204602F050FA2A
:102D90006A0041460090FDF744FC684602F0B2FA32
:102DA000304602F045FA0A49029000F10C024462F2
:102DB00082E8A202074901600749416002A802F0C7
:102DC000A1FA05F099FD05B03046BDE8F08300009A
:102DD000D10A02089D1F0208FF17020810B5044619
:102DE00003F0E8FE20461EF00AFDBDE8104005F0A5
:102DF00083BD2DE9FC47894607002BD003F0DAFE9E
:102E0000384602F015FA0190466E01A802F07AFAEF
:102E1000304602F030FB0546002414E021463046DF
:102E200002F035FB70B102F003FA0090D0F8008098
:102E3000684602F067FAC84504D12146304602F0E0
:102E4000EDFA02E0641CAC42E8DB384611F0ACFF5E
:102E500005F052FDBDE8FC872DE9FC4789460700D7
:102E60002BD003F0A7FE384602F0E2F90190866EFF
:102E700001A802F047FA304602F0FDFA05460024A8
:102E800014E02146304602F002FB70B102F0D0F9A6
:102E90000090D0F80080684602F034FAC84504D1AA
:102EA0002146304602F0BAFA02E0641CAC42E8DB8C
:102EB000384611F079FF05F01FFDBDE8FC870000E2
:102EC0002DE9F843984615460E46074603F072FE74
:102ED000302002F0B0F8040015D002F0A9F90090FB
:102EE000C0E9057685840A4AB7EE000AC0F81C805E
:102EF00080ED0A0AD2E90012C0E903120549016017
:102F0000684602F0FFF905F0F7FC2046BDE8F883BB
:102F1000900A00207520020802F0ACB8F8B50D4602
:102F200006004FF0000411D003F044FE304602F0DA
:102F30007FF90090046AAC4203D00562806811F00A
:102F400033FF684602F0DEF905F0D6FC2046F8BDF6
:102F5000F8B50D4606004FF0000411D003F02AFE2C
:102F6000304602F065F900904469AC4203D04561F7
:102F7000806811F019FF684602F0C4F905F0BCFC46
:102F80002046F8BD2DE9F8431D46DDF820801646A1
:102F90000F46040015D003F00DFE204602F048F95C
:102FA0000090C0F860804765C0E91665684602F089
:102FB000A9F920461EF08EF8204611F0F5FE05F026
:102FC0009BFCBDE8F883F8B515460E4607004FF0A8
:102FD000000415D003F0EEFD384602F029F9009008
:102FE000042D08D200EB8500446BB44203D0466345
:102FF000384611F0D9FE684602F084F905F07CFCF1
:103000002046F8BDF8B50D4606004FF0000411D07B
:1030100003F0D0FD304602F00BF90090446CAC4256
:1030200003D04564304611F0BFFE684602F06AF9ED
:1030300005F062FC2046F8BDF8B50D4606004FF0DD
:10304000000411D003F0B6FD304602F0F1F8009014
:10305000846CAC4203D08564304611F0A5FE68460E
:1030600002F050F905F048FC2046F8BDF8B50D46D1
:1030700006004FF0000411D003F09CFD304602F032
:10308000D7F80090046DAC4203D00565304600F0DF
:1030900055F8684602F036F905F02EFC2046F8BDDA
:1030A000F8B50D4606004FF0000413D003F082FD82
:1030B000304602F0BDF8009090F86C40AC4204D06D
:1030C00080F86C50304611F06FFE684602F01AF935
:1030D00005F012FC2046F8BD2DE9F0410446806859
:1030E0001D4617460E46002826D0D4E90402904219
:1030F0000ED1521E6A4371193046FDF7D7FA206986
:103100002A46401E05FB00603946FDF7CFFA0EE067
:1031100005FB0013401C20612A4639461846FDF77E
:10312000C5FAE16819B12046BDE8F0410847A0683A
:10313000BDE8F04100F002B8BDE8F08110B58AB0FA
:10314000044602F075F809A904AACDE9002105ABEF
:10315000089006AA07A91CF035FC08A802F0D2F8CE
:1031600002A9204611F060FABDF80800079908444A
:10317000ADF80800BDF80A0006990844ADF80A0049
:10318000BDF80C000599401AADF80C00BDF80E0012
:103190000499401AADF80E0002A9204611F0C4FDB2
:1031A0000AB010BD2DE9F0433F4889B00024016802
:1031B00041F080010160016801F080010791016820
:1031C00041F4807101600068802600F480700790EF
:1031D00001AA012503270096DFF8D09082E8B0000D
:1031E0006946484606F00EFD2802CDE9000569460D
:1031F0002F4806F007FDFDF7A3FFDFF8B880C8F8F9
:10320000A0420A2023F08CFFC8F8A0520A2023F025
:1032100087FFCDE90064CDE902476946484606F0DC
:10322000F1FC642023F07CFF042205A948F2401041
:1032300000F058F88DF8184005A91FA0FDF772F8A6
:1032400020A105A8FDF7F8FA18B1012009B0BDE8E2
:10325000F08302208DF8140048F24005012205A9F0
:10326000284600F083F9012205A9E81D00F03AF88C
:103270009DF8141060290BD214A0FDF753F81848DC
:103280008088A0F5AA41103902D1012000F048F948
:103290000A2023F045FF8DF81440012205A9284695
:1032A00000F064F90020D1E730380240001C0240F1
:1032B00000200240000044424354502049443A2533
:1032C000730D0A003931343700000000446566612F
:1032D000756C74205665723A25640D0A0000000072
:1032E000401000202DE9F04115460F460446FDF739
:1032F000F3FF2820FDF7BAFFFEF73AF8200AFDF7A2
:10330000B5FFFEF735F8E0B2FDF7B0FFFEF730F895
:10331000FDF7E2FF2920FDF7A9FFFEF729F80024B9
:103320006E1E09E0B44201D0012000E00020FDF74C
:1033300061FF3855641CE4B2AC42F3D3BDE8F04100
:10334000FDF7F0BF2DE9F14F714E00244FF00A0B4D
:10335000307882B0401CC0B2B0FBFBF20BFB120114
:103360006C4DA146307009B10A287BD248F24E1745
:10337000012202A93846FFF7B5FF9DF808004FF07B
:10338000000801060AD500F00F00062806D28DF8C5
:103390000480012201A9384600F0E8F89DF80800F1
:1033A00001075FD000F00F0106295BD2FF208840A3
:1033B0008DF80400C04395F820A040F0C00085F8C7
:1033C0002000A889A882E88A534FE8834FF00109BA
:1033D00095F8201009FA04F0014256D04F48042213
:1033E000694630F81400FFF77DFFB888A0F5AA41C0
:1033F000103904D0A0F5864142391FD045E095F838
:1034000030009DF80110C0079DF8000000EB01217D
:1034100005EB440009D0C1829DF802109DF80320FD
:1034200001EB0221C1F548712EE081819DF8021067
:103430009DF8032001EB0221C18226E095F83000BF
:10344000C00710D09DF802009DF8031000EB012189
:1034500005EB4400C1829DF800109DF8012001EBAE
:10346000022111E02CE09DF800009DF8011000EB16
:10347000012105EB4400C1829DF802109DF8032054
:1034800001EB0221C1F588718181641CE4B2052C35
:103490009ED3A9893A884FF001092846914203D862
:1034A000C18A7A88914209D99DF8081001F00F016C
:1034B00001290CD9C1898181018BE98286F80080BC
:1034C0009DF8080000F08F0080280AD018E0818A5B
:1034D0008181C18BC18280218DF8081085F820A0E0
:1034E000EEE795F82000010602D520F0800005E007
:1034F0004FF6FF71A981E98200F0E00085F8200015
:103500003078F02801D986F800B04846BDE8FE8F33
:10351000350000203C0000204010002048C8020870
:1035200008B500218DF800108DF801000E489DF8B7
:103530000020435C491C1A44C9B28DF80020B82908
:10354000F5D3D0B2C043401C8DF80000B822064924
:1035500048F2470000F00AF80222694648F2FF00EC
:1035600000F004F8002008BD90C702082DE9F041E2
:1035700015460E4604460027FDF7AEFE2820FDF74F
:1035800075FEFDF7F5FE200AFDF770FEFDF7F0FE73
:10359000E0B2FDF76BFEFDF7EBFE002408E0305DC6
:1035A000FDF764FEFDF7E4FE070003D1641CE4B2FE
:1035B000AC42F4D3FDF7B6FE3846BDE8F08130B535
:1035C000002300E05B1CC25C002AFBD101242246E0
:1035D00003E004EB84046400521CB1FBF4F50A2DF3
:1035E000F7D2002403440A209C540AE0B1FBF0F413
:1035F00000FB1414B1FBF0F19D18303405F8014CB8
:10360000521E002AF2D130BD10B50022134600E050
:10361000521C845C002CFBD102E08454521C5B1CC5
:10362000CC5C002CF9D10021815410BD10B50BA148
:1036300017A000F00DFE012000F0DEFA012003F0DB
:103640004DF8044619F05CFA4FF47A6000F0EAFF96
:103650002046BDE8104003F041B800004F7574707B
:10366000757420616E7469616C696173656420743E
:103670006578740A6F6E20646966666572656E743B
:10368000206261636B67726F756E64732E00000059
:10369000416E7469616C6961736564205465787406
:1036A000000000002DE9F041002723A12CA000F02C
:1036B000CFFD09F0B1F8064609F0BAF80446C4385F
:1036C000032190FBF1F02B4D2B4AC83EE860118896
:1036D000491DB1EB660F03DB5188491D814200DAB9
:1036E000012726A003F0E9F931460126B0EB610F6E
:1036F00005DBE868283C4000C430A04200DA2E60B8
:10370000224804F08BFC044603F092F9E968401C5F
:10371000884200DA6E60204604F080FC384617F0DC
:1037200017FE01F02FFB032001F026FC13F058F9DF
:10373000BDE8F04101F01EBB4578616D706C6573AA
:1037400020666F72207468650A6175746F6D6F749E
:1037500069766520696E647573747269650000002E
:103760004175746F6D6F746976652073616D706CEF
:1037700065730000F400002044500A086D7365630F
:103780002F706963747572653A0A0000C462090893
:1037900010B507A10BA000F05BFD012000F02CFA92
:1037A00001F0C4FF14F012FBBDE8104002F0A6B80F
:1037B000416E696D61746564206261722067726137
:1037C00070680000426172204772617068000000FA
:1037D00010B508A115A000F03BFD00F033FD00205E
:1037E00000F00AFA13F0E6F9BDE810404FF47A60F1
:1037F00000F018BF53686F77696E670A6469666680
:103800006572656E74206269746D6170732077698A
:1038100074680A616E6420776974686F75742063D8
:103820006F6D7072657373696F6E00004269746DBD
:103830006170730010B5084C02E00A2002F05CFAD7
:10384000606A0128F9D0A06A01284FF0000001D178
:10385000A062012010BD0000A00000202DE9F04F63
:1038600097B0502102A8FCF7BFFF08F0D5FF8346B0
:1038700008F0DEFF0546844984A000F0E9FC012041
:1038800000F0BAF96FF07F48404604F098FB824898
:1038900004F0C4FB4FEA6B010C2280A002F05CFB39
:1038A000814804F0BBFB2B22012180A002F040FBE9
:1038B0003F2201217EA002F03BFB532201217EA08A
:1038C00002F036FB622201217DA002F031FB712261
:1038D00001217DA002F02CFB852201217CA002F0B9
:1038E00027FB992201217CA002F022FB7C4804F0F6
:1038F00095FB08F0E1FE014602A8FFF760FE79A102
:1039000002A8FFF781FE092008F0F2FE04000BD0A8
:1039100076A102A8FFF778FE214602A8FFF74FFE26
:1039200073A102A8FFF770FEA5F119020C2102A8ED
:1039300002F0FEFA00F070F906464FF4FA7941F20F
:10394000707A94E000F068F9801B4FF4FA6190FB04
:10395000F1F201FB1200491090FBF1F16FF07C02D3
:103960004A4300EBC20048457EDCC0EB002090FBE0
:10397000F9F0C1EB0121484000EB002101EB0044CC
:10398000FF27CDE90074A8EB040534235A462B2108
:103990003C2002F0D1FCCDE900753E235A4635218A
:1039A0003C2002F0C9FC3F02CDE9007448235A468E
:1039B0003F213C2002F0C0FCCDE9007552235A465D
:1039C00049213C2002F0B8FC3F02CDE900745C23A1
:1039D0005A4653213C2002F0AFFCCDE90075662326
:1039E0005A465D213C2002F0A7FC4348CDE9000483
:1039F00070235A4667213C2002F09EFC4FF6FF7769
:103A0000CDE900757A235A4671213C2002F094FCDE
:103A1000CDE9007484235A467B213C2002F08CFCC3
:103A20003F02CDE900758E235A4685213C2002F0E5
:103A300083FCCDE9007498235A468F213C2002F084
:103A40007BFC4FF0FF17CDE90075A2235A46992160
:103A50003C2002F071FCCDE90074AC235A46A3214E
:103A60003C2002F069FC00E001E002F077FE00F08B
:103A7000D3F8811B514504DAFFF7DCFE00283FF440
:103A800061AF17B0BDE8F08FAC230C08436F6C6FCB
:103A90007220626172000000C4620908436F6C6F9B
:103AA0007220626172730000A0EC0B085265640022
:103AB000477265656E000000426C7565000000008D
:103AC000477265790000000059656C6C6F770000E3
:103AD0004379616E000000004D6167656E7461009E
:103AE00040CA0B0820627070000000002C2000000B
:103AF00020636F6C6F7273008080800003490160E7
:103B00000F21416005210181704700003001002034
:103B100010B50DA115A000F09BFB012000F06CF882
:103B200001F004FE14F0E6FB4FF47A6000F07AFD39
:103B300001F0E4FE0021084601F09CFEBDE81040C3
:103B40000C4801F027BE00005354656D57696E2084
:103B5000737570706F7274730A736F6674776172C5
:103B60006520637572736F72000000004375727395
:103B70006F72000054B40B082DE9F0471D4F044646
:103B80004FF404794946B86810F0EAFC8046642C8A
:103B900005DD4946B86810F0E3FC11F059FD00213D
:103BA00040460BF02EFB2246002140460BF0F6FA71
:103BB00002F08DFF064600F02FF8851B642C03DD14
:103BC000294640460BF01DFB052002F095F8FFF753
:103BD00031FEA54201D20028EDD0642C05DD494616
:103BE000B86810F0BDFC11F01BF8BDE8F04702F01A
:103BF000B5BD0000A0000020014909690847000088
:103C0000A000002003490989014201D0012070472A
:103C10000020704720E6002010B5054C606A08B10E
:103C2000206A10BD02F053FFE169401A10BD000088
:103C3000A000002010B506A112A000F009FB00F0C2
:103C400001FB1CF01FFABDE8104000F0A9BA00000B
:103C50004F7074696D697A65642064726177696E0A
:103C60006720726F7574696E650A666F7220647280
:103C70006177696E67206772617068206461746142
:103C80000000000044726177696E672061206772EE
:103C900061706800054810B5C06810F0C1FF10F0F1
:103CA00049FCBDE8104011F0EBBC0000A000002072
:103CB0002DE9F04F91B065A16FA000F0C9FAFFF7B0
:103CC000E9FF10F037FC10F097FB10F033FC6E4961
:103CD00011F0FFFA0F9010F02DFC6CA14FF4B072B0
:103CE000CDE90321002502248DE831001E234FF485
:103CF000A072294628460CF01EF9834669490CF04B
:103D0000A9F90E2158460CF0E6F9674958460CF01F
:103D1000F7F910F00FFC65A140F26112CDE9032123
:103D20008DE8310064238C222821A0200CF003F9B7
:103D300082465F4A06A95F4803F0F4FE06A9504692
:103D40000CF088F96FF07F4150460CF0D9F9012151
:103D500050460CF0ECF90E2150460CF0BCF908F07E
:103D600067FD054610F0E6FB3C213722CDE9042132
:103D70004FF414730321CDE90243CDE90001A5F10D
:103D8000280388221E210A2007F0E8FD4A4D8146BB
:103D9000002404EB440005EB80014A6855F820102C
:103DA000484607F00DFD641C092CF2D3434A01215B
:103DB000484607F049FE4249484607F061FE48463A
:103DC00011F024FB01260024FFF726FF42F22831E0
:103DD0004718FFF721FF00F57A754FF0FF383220C2
:103DE00001F08AFF10F0A6FB4FF4806111F051FA48
:103DF000FFF712FFA8420DDB05F57A7514B1082C08
:103E000002D002E0012600E04646344421464846FE
:103E100007F04DFEFFF700FFB84203DAFFF70AFD97
:103E20000028DCD0584610F05DFA504610F05AFADF
:103E3000484610F057FA10F07DFB0F9911F049FA3F
:103E400000F0AEF911B0BDE8F08F000044656D6F71
:103E50006E73747261746573207468652075736520
:103E6000206F660A7468652049434F4E564945578E
:103E7000207769646765740049636F6E20566965D1
:103E8000772044656D6F0000F16E02085354656D34
:103E900057696E2049434F4E564945572073616D0F
:103EA000706C6500C46209084040FF00000000001B
:103EB00048B60B0888D40508FCB606080000FFC009
:103EC00000E20B082DE9F04188B02022384968460D
:103ED000FCF72EFC08F0A0FC054608F0A9FC0446FF
:103EE0006E100020FFF788FE022004F021F96FF029
:103EF0007F48404604F063F82E4804F08FF844F3FE
:103F0000191231462CA002F027F82D4804F086F84B
:103F100004EB440000EBC4008211314629A002F0FA
:103F20001BF8364804F04BF8162104FB01F7BA11D0
:103F3000314633A002F010F83D4804F06FF812202B
:103F400000EBA71231463BA002F006F8404604F011
:103F500036F81B4804F062F802F0BCFD01466846E2
:103F6000FCF753FBC4EB441082113146684601F064
:103F7000F3FF26206043821136480088281A41103A
:103F8000354802F0BDF8404604F019F8094804F03D
:103F900045F8C4EBC40040F3D90231462FA001F02C
:103FA000DBFF41F28830FFF7E7FD08B0BDE8F081A4
:103FB00068E70708C46209085354656D57696E00C5
:103FC000A0EC0B08556E6976657273616C206772A0
:103FD000617068696320736F6674776172650A66E1
:103FE0006F7220656D626564646564206170706CD9
:103FF00069636174696F6E7300000000FF882200BE
:10400000466F722053544D3332204D435520507229
:104010006F6475637473202D20436F72746578200C
:104020004D33202D20436F72746578204D3400008D
:1040300028D10B08436F6D70696C6564204A756EFA
:1040400020323120323031362031363A35343A316F
:1040500033000000B4900908E8290A087777772E22
:1040600073742E636F6D2F73746D33320000000014
:1040700010B506A110A000F0EBF80120FFF7BCFD81
:1040800000F0E0F8BDE8104013F048BF53686F77C8
:104090007320736F6D65206665617475726573203A
:1040A0006F660A746865204C49535456455720770B
:1040B00069646765740000004C697374766965779C
:1040C0002064656D6F0000008CB02849284803F01B
:1040D00099F910F02FFA274911F0FBF8FCF78CFF43
:1040E00000216846FDF724FE002421466846059419
:1040F000FDF766FE01216846FDF71AFE01216846BC
:104100000594FDF75DFE1C48FDF73EFE1B480BF0D5
:1041100023F81B48FCF750FF1A480BF0C5FB1A4860
:104120000BF010FE194807F0AFFA022004F000F877
:104130001748FFF7E3FC08F0BFFA0C4C2C3C1028A2
:1041400012DB0420FFF75EFD70B101F051F8B0F50D
:10415000001F01DD0F4800E00F482061012000F042
:1041600047F81CF055FEFCE70C48F6E7CC000020B1
:10417000ED6B0208E16802089BDE0108D5F000083B
:10418000810D0008E9F60008B5FB000881B50008BC
:1041900020E60020FDB301080DB301082DB501088C
:1041A000054810B58169491C816113F02FF9BDE8FC
:1041B000104000F0C7B90000A000002010B5FFF7C4
:1041C00069FD074907A000F043F8012010F074FED4
:1041D0001FF0F4FBBDE81040002010F06DBE0000A1
:1041E000142E0C0852616469616C204D656E750077
:1041F00000B101200149087070470000A0000020B4
:10420000044810B5806811F023FABDE8104002F0B0
:10421000A5BA0000A000002070B5094C0546E06872
:1042200010F02BFE002809D04FF4B071E06810F0B8
:1042300097F92946BDE870400BF023BF70BD000020
:10424000A00000200148C06811F002BAA0000020C0
:104250002DE9F0410C46064608F0DEFA054608F066
:10426000E7FA6D104710FFF715FDFFF7C9FF02F0E1
:1042700075FA0120FFF7C0FC6FF07F4003F09FFE4E
:10428000022003F055FF104803F0C8FE3C222946E7
:10429000304601F061FE0D4803F0C0FE02F0C8FB9D
:1042A0003A1A294620460A3201F056FE002200E062
:1042B000521CA05C0028FBD1BDE8F04102EB82005B
:1042C000000100F0AFB90000C4620908A0EC0B08BF
:1042D0002DE9F04F95B028216846FCF785FA08F0E3
:1042E0009BFA064608F0A4FA054608F089FA074644
:1042F00001F01CFAAF420BDD0020ADF84800ADF82C
:104300004A00ADF84C60ADF84E5012A803F04BFED9
:1043100051A15DA0FFF79CFFDFF87891002759F8C5
:10432000270001F07BFB0AA941F827007F1C082F1A
:10433000F5DBFFF771FC002714904EE007F0070152
:104340000AA850F8210003F045FEFBF7AFFF90FBF1
:10435000F6F106FB110006EBD671A0EB61000FFA37
:1043600080F8FBF7A3FF90FBF5F105FB110005EBCF
:10437000D571A0EB61000FFA80FAFBF797FF90FB75
:10438000F6F106FB1101143101EB080002B262F3F1
:104390000F049146FBF78AFF90FBF5F105FB110036
:1043A0001430504403B2514663F31F449B464A46BF
:1043B000404602F0F5F9B14502DB701E60F30F04D0
:1043C000AB4502DB681E60F31F44201402D50020B9
:1043D00060F31F4402F0C2F97F1CFFF71DFC149923
:1043E000411A41F28830814203DAFFF723FA0028AC
:1043F000A4D0FFF7D5FE1BF043FB0446002003F0DA
:10440000D2FD0020FFF7F8FB6FF07F4003F0D7FDEF
:10441000022003F08DFE204803F000FE0522114625
:104420001E4801F06DFE1EA16846FFF7EDF821461B
:104430006846FFF7C4F802F009FB281A4210711011
:10444000684601F089FD4FF47A60FFF795FB01F0B3
:1044500055FA15B0BDE8F08F4D756C7469206C612C
:1044600079657220636C697070696E670A48696764
:10447000686C79206F7074696D697A656420647204
:10448000697665727300000048696768207370651B
:104490006564000058500A08C462090844500A08BC
:1044A000506978656C732F7365633A2000000000D3
:1044B00010B505A10FA0FFF7CBFEFFF7EBFBBDE8A2
:1044C000104021F023B900005573657320616C70B2
:1044D000686120626C656E64696E670A666F72203F
:1044E0007472616E73706172656E63792065666661
:1044F000656374005472616E73706172656E7420CE
:104500006469616C6F67000010B5094909A0FFF785
:104510009FFEFFF797FE0020FFF76EFB01F006F904
:1045200013F034FD01F0EAF9BDE81040FFF738BEA2
:104530001C2F0C0854726565766965772064656D7B
:104540006F00000030B585B014216846FCF74CF9C7
:10455000134C4FF4B071A06810F002F8054611A199
:104560006846FFF751F861696846491CFFF727F86C
:104570000EA16846FFF748F86846A169FFF71FF8E3
:104580000BA16846FFF740F80A4841686846491E93
:10459000FFF715F8694628460BF073FD05B030BDEE
:1045A000A000002044656D6F200000002E00000078
:1045B0002F00000020E6002010B508F039F904466D
:1045C00008F01EF9B0EB440F0EDB08A111A0FFF7B5
:1045D0003FFE0120FFF710FB13F042FD0021BDE874
:1045E0001040084603F066BD10BD000044656D6FC5
:1045F0006E7374726174657320686F7720746F20B6
:104600007573650A7669727475616C20736372657F
:10461000656E73005653637265656E2064656D6FD9
:104620000000000010B5FFF7A7FABDE81040FFF743
:10463000B7BD00002DE9F04FDFF828B191B04FF081
:10464000FF35DBF80030B3F922100691DE69B3F9CB
:104650002490F469A189814206D8E289824203D379
:10466000471AD4F8008012E0D4E9018100296FD004
:104670000A8882426CD84D88854269D3801A82B2FA
:10468000486800EB8200B0F90070B0F90250781C65
:104690005ED0307EA17C10FB01FA217CCDE90701C0
:1046A000B3F92A60304608F0D7FCC0B20E90DBF8B0
:1046B000000007FB0A81A37C826B0127CDE904126D
:1046C000CDE90273C069089AC17E807ECDE9000100
:1046D000DDE90603494607F0CFFC681C18D046F018
:1046E000020008F0B9FCDBF80000A37C05FB0A819E
:1046F000826BCDE90273CDE90412C069089AC17ECC
:10470000807ECDE90001DDE90603494607F0B4FCEF
:10471000DBF800005D46C069417E007E814214D90D
:10472000022E12D086F0040008F096FC2868C069BA
:10473000027EC37E12FB0391437E857E089A069813
:104740004B4412FB050207F08BFF0E9808F084FC27
:10475000DBF80000627C418C1144418411B0BDE85B
:10476000F08F0000D007002004480068C069C069CD
:1047700009B1027C0A60407C70470000D00700202D
:10478000022008807047C06982898A4202D8C289A3
:104790008A4210D2806880B102888A420DD843884C
:1047A0008B420AD3406800EB8100A0EB8200B0F995
:1047B0000000002801DB0120704700207047000046
:1047C000F0B52C4D044687B028682146B0F92A6020
:1047D000C069C06900F03CFA002848D041680088F0
:1047E000201A00EB400001EB80042078C01C8708F1
:1047F000304608F031FC06461F48D0F800C0BCF136
:10480000000F1AD00021A068CDE904010222012086
:1048100001A9009081E88500286894F90320DCF85C
:104820000070B0F92410B0F92200114494F902206C
:10483000637810442278B84711E0A068CDE9007091
:10484000286894F903206378B0F92410B0F92200A5
:10485000114494F902201044227800F095FB304670
:1048600008F0FAFB28682279418C1144418407B092
:10487000F0BD0000D00700200C080020F0B5254C4A
:10488000054687B020682946B0F92A60C069C0692A
:1048900000F017FA00283AD041680088281A01EB86
:1048A000C0053046AF7808F0D7FB06461A48D0F866
:1048B00000C0BCF1000F15D000216868CDE90401EB
:1048C0000422012001A9009081E885002068DCF81D
:1048D00000702A78C1690B7EB0F92410B0F922006B
:1048E000B8470CE06868CDE9007020682A78C16993
:1048F0000B7EB0F92410B0F9220000F057FB3046CF
:1049000008F0AAFB20686A78418C1144418407B002
:10491000F0BD0000D00700200C080020F0B52C4DA1
:10492000044687B028682146B0F92A60C069C0698A
:1049300000F08EF9002848D041680088201A00EB6A
:10494000400001EB80042078401C4708304608F006
:1049500083FB06461F48D0F800C0BCF1000F1AD0F8
:104960000021A068CDE904010422012001A90090E2
:1049700081E88500286894F90320DCF80070B0F91C
:104980002410B0F92200114494F9022063781044F5
:104990002278B84711E0A068CDE90070286894F942
:1049A00003206378B0F92410B0F92200114494F97F
:1049B00002201044227800F0F9FA304608F04CFB4F
:1049C00028682279418C1144418407B0F0BD000071
:1049D000D00700200C08002070B505460B480C4697
:1049E00029460068C069C06900F06BF900280BD047
:1049F000416800882A1A012000EBC200002C085CE4
:104A000002D011F83210216070BD0000D0070020E4
:104A100011200880704710B5C06900F052F90028D5
:104A200000D0012010BD00002DE9F043304C0346BA
:104A300087B020681946B0F92A60C069C06900F0E3
:104A400040F9002850D041680088181A01EBC005D1
:104A50003046AF7808F000FB814620686A68012381
:104A6000816BCDE90237CDE90421C169CB7E8A7E15
:104A7000CDE900230B7EB0F924102A78B0F922008A
:104A800007F0FAFA2068C069417E027E91421FD980
:104A9000C07E11FB00F812FB00F7022E18D001F0C7
:104AA000B0FF064601F076FF03F089FA21682A7804
:104AB000CB69B1F92200DB7E12FB0302B1F92410AD
:104AC00001EB0803394407F0CBFD304603F077FAD9
:104AD000484608F0C1FA20686A78C369B0F9221024
:104AE0009B7E12FB0311418407B0BDE8F0830000F8
:104AF000D007002030B5104C05460B4620682946EB
:104B0000C069C06900F0A4F8002814D0416800888A
:104B10002468281A00EB40020420E46900EB8200BC
:104B2000085CA47E10FB04F0002B04D011F82210C6
:104B300011FB04F1196030BDD007002003460C487A
:104B400010B500680C461946C069C06900F080F8CD
:104B500058B141680088181A00EB400001EB800052
:104B600007C884E80700002010BD012010BD000028
:104B7000D007002001200880704700B5C06900F010
:104B800067F8002800D0012000BD00002DE9F341A6
:104B90001C4E0F46002530682C46C069417EC07E01
:104BA00011FB00F81DE0684603F07EFD0546306805
:104BB0002946C069C06900F04BF890B1416800888F
:104BC000281A00EB400001EB800090F902100079F8
:104BD00008443168C969897E10FB01F0002800DDB6
:104BE00004447F1EDFD51DB1284604F001FD0444B6
:104BF0004146204612F012FC034901200870BDE82E
:104C0000FC810000D0070020580800202DE9F34166
:104C10000D4D0E4F0E462868B0F92A40A0070AD164
:104C20007A680098904706E0684603F03DFD2968E1
:104C3000C96909688847761EF6D50020387028684B
:104C40004485BDE8FC810000D00700205808002002
:104C500006E002888A4202D842888A4202D28068EC
:104C60000028F6D17047000030B50F4C05460B46C2
:104C700020682946C069C06900F023F8002812D0D6
:104C80004168008824682A1A0120E46900EBC20008
:104C9000085CA47E10FB04F0002B04D011F8321045
:104CA00011FB04F1196030BDD007002001200880FD
:104CB000704700B5C06900F004F8002800D001205A
:104CC00000BD06E002888A4202D842888A4202D2A7
:104CD00080680028F6D1704770B50025124C19E0A5
:104CE00020691249C5EB051600EBC6007022096861
:104CF000001DFBF71DFD2069002140F8361000EB78
:104D0000C60000F10C018161011D0A1DC0E90F12EE
:104D10006D1C4164A0688542E2DB01F04BFFBDE8F9
:104D2000704003F0E9BD0000F80D0020D00700201E
:104D300070B50F490D480860084604F0C9FD0C4CD9
:104D4000143CA068C0EB0010C500284600F0D8F95C
:104D50002A460021206104F0A6FE4FF0FF302060BB
:104D600003F013FEBDE870401BF010B86119020893
:104D70000C0E002002490020096881F86900704784
:104D8000D007002002490120096881F869007047B6
:104D9000D007002010B519F059FD0448016A0448F5
:104DA0000068416600F10801416110BD80070020E4
:104DB000D00700207CB514460D46064601F0FAFEE9
:104DC00010F09CFD064410F0A7FD0544164800684D
:104DD00090F8691021B990F868104E434D434C4348
:104DE000301B00F05DF8ADF80000301900F058F805
:104DF000ADF80400281B00F053F8ADF802002819A4
:104E000000F04EF8ADF80600684610F0DDFD06E053
:104E1000224629463046FDF787FD10F04FFD002859
:104E2000F6D103F069FD7CBDD00700202DE9FC47D9
:104E30001C4615468846814601F0BCFE10F05EFD1A
:104E4000054410F069FD0444002010F0BDFDF8B1E8
:104E5000114E124F12213068407C57F8200001900B
:104E6000C068426A01A890475FEA000C06D02B4652
:104E70004246494600940198E04705E023462A4609
:104E80004146484619F08CF810F018FD0028E1D191
:104E900003F032FDBDE8FC87D0070020E8070020C2
:104EA0000449096891F8681009B190FBF1F000B26B
:104EB00070470000D00700202DE9F041224C054644
:104EC0000E462068002788B920480068E06110B9C4
:104ED00007F093FCE06100F013F9206080B31A49F9
:104EE0001B4824310860084604F0F2FC19480068A9
:104EF000854200DA0546E169731B4A1E204693424B
:104F000001DD6E18761EAE4201DA2E460127124CE4
:104F10002268516E4B68836301620B490F4B343139
:104F20000B60516602C880E8620012F05BFA11F073
:104F300015FF054821682C3048613846BDE8F081EE
:104F4000FFE70127D2E700008007002000080020CB
:104F50002518020804080020D007002039C20108E3
:104F6000044A126892F8682090FBF2F091FBF2F18B
:104F7000FFF7A2BFD00700200249096881F8680046
:104F800011F0ECBED00700207CB5074EDDE90654D9
:104F90003668367CCDE90054B60702D416F07EFBA5
:104FA0007CBD16F0CDFB7CBDD00700207CB5084E43
:104FB000DDE906543668367CCDE90054B60702D4E4
:104FC00016F020FC7CBD034C2468A0477CBD00008B
:104FD000D007002050070020F8B50C0005460FD080
:104FE00001F0E8FD204600F017F8060010D000F0B0
:104FF0001FF9224600902DB12946FBF712FB04E071
:105000000020F8BD002104F04EFD684600F07AF95A
:1050100003F072FC3046F8BD10B5040009D001F071
:10502000C9FD204611F080FC044603F065FC2046D3
:1050300010BD002010BD38B5054601F0BBFD284667
:10504000FFF7EAFF040009D000F0F2F82A46002139
:10505000009004F028FD684600F054F903F04CFC81
:10506000204638BD024A106021F0030050607047AE
:10507000E0E7002010B5040016D001F09BFD0B48BE
:10508000406B10F8341059B1022909D2042101EB08
:10509000C4014158486811F091FA20461EF07AFC8C
:1050A000BDE8104003F028BC10BD000020E7002040
:1050B000002805D0034AD16B016001B14860D0637C
:1050C0007047000020E7002010B5044601F072FD93
:1050D0002068FFF7CFFF00202060BDE8104003F0FC
:1050E0000BBC000070B50D460646002405E000BF6D
:1050F00006EB8400FFF7E8FF641CAC42F8DB70BDF0
:105100002DE9F04104461BF003FB2848E41C24F081
:105110000305016C2D1DA94200D90D46C46B13E097
:1051200054F8042CAA420ED184B1216809B16268F6
:105130004A60616809B122680A60C26BA24231D13B
:105140002168C1632EE02468002CE9D18046816B80
:10515000C0680F1857F8040C3E1A306838B10020A8
:105160001EF07AFD57F8040C3E1A3068D0B970680A
:10517000A84217DB3044441B3046241D1EF024FD9A
:10518000D8F80C10491BC8F80C10D8F81410294492
:10519000C8F814107068401B02D0314611F00EFAA6
:1051A00044F8045C2046BDE8F081000020E70020C0
:1051B00010B500241BF0ACFA0C490F2001EBC00223
:1051C000526C1AB101EBC000406C08E0401EF5D5EE
:1051D00008E04168A14200D90C46806810B180689F
:1051E0000028F6D1A4F10C0010BD000020E700203B
:1051F000034800680C38002800DC002070470000DD
:1052000020E70020002138B10449042202EBC0004D
:10521000496B085841680C390846704720E7002060
:1052200002488169491C81617047000020E7002025
:105230000549CA69521CCA61496B01EBC0010A7871
:10524000521C0A7000F076B820E700207CB50646B4
:105250000C460846FFF7E0FE050020D0FEB13046C0
:10526000FFF7D0FFA04200DA044601F0A3FC284675
:10527000FFF7DEFF00903046FFF7DAFF01460190AE
:1052800022460098FBF7CDF9684600F03BF801A8EC
:1052900000F038F83046FFF7EDFE03F02DFB28460E
:1052A0007CBD000010B501F085FCFFF781FF642292
:1052B0000849B0F5800F04D990FBF2F4086A444322
:1052C00003E0096A4143B1FBF2F403F015FB204609
:1052D00010BD000020E700200549102805D94A68C4
:1052E000B0EB520F02D3500800E0102088607047E6
:1052F000E0E7002002488169491E81617047000093
:1053000020E700200A4902684B6B52F8082C03EB97
:10531000C2021378022B03D3CB690BB15B1ECB61A6
:105320001178491E11700021016008467047000085
:1053300020E70020002806D00349042202EBC00029
:10534000496B08580830704720E700202DE9FC41E0
:105350004FF000060B465FEA000834462BD032B10E
:1053600011461846FFF738FE060000D101244046DA
:10537000FFF75EFF0090078845686846FFF7C2FFA9
:10538000CCB9B9002846091DFFF760FF050015D00C
:10539000FFF74EFF019040F8276001A8FFF7B2FF2A
:1053A0004046FFF745FF009045600188491C018099
:1053B0006846FFF7A7FF2046BDE8FC813046FFF7AF
:1053C00059FE0124F7E70820FFF735BE7CB505003C
:1053D00023D0FFF72DFF00904068C0B1FFF728FFF2
:1053E0000024019005E0019800EB8400FFF76CFEBB
:1053F000641C00980088A042F5DC01A8FFF782FF3A
:105400000098001DFFF760FE0099002008806846A4
:10541000FFF778FF2846FFF72DFE7CBD7CB50C46D4
:10542000FFF706FF00900188A14220D94568F5B139
:1054300001F0C0FB2846FFF7FBFE019000EB840063
:10544000FFF742FE00990888401E80B20880401E87
:10545000019905E001EB8402526841F82420641CA4
:105460008442F7DD01A8FFF74DFF03F045FA6846D7
:10547000FFF748FF7CBD38B5002430B1FFF7D8FEF8
:10548000009004886846FFF73DFF204638BD38B5D8
:105490000D46002448B1FFF7CBFE2946009000F0EE
:1054A000B4F804466846FFF72DFF204638BD38B5EE
:1054B0000D46002448B1FFF7BBFE2946009000F0DE
:1054C000B6F804466846FFF71DFF204638BD2DE9B3
:1054D000FE430C465FEA00083DD0FFF7A9FE0090AE
:1054E000068847686846FFF70DFFB44233D2B00024
:1054F000001DFFF7A0FD05002DD0FFF799FE0190DC
:105500003846FFF795FE01460290A2000198FBF78E
:105510000FF9301B8200029800EB8401019800EB28
:105520008400001DFBF704F901A8FFF7EBFE02A8B9
:10553000FFF7E8FE3846FFF79DFD4046FFF778FE8F
:10554000009045600188491C01806846FFF7DAFE3B
:105550000120BDE8FE830020FBE72DE9F041154660
:105560000E4607460024FFF7B2FF30B12B4600225B
:105570003146384600F004F804462046BDE8F08184
:105580002DE9FE43984691460D460024D0B3FFF71F
:105590004FFE01900788466801A8FFF7B3FEBD42A1
:1055A00030D27EB33046FFF743FE009050F82540DE
:1055B0006846FFF7A7FE24B12046FFF723FE4045CB
:1055C00011D04046FFF737FD04000CD03046FFF7FE
:1055D0002FFE00EB850500902846FFF775FD684615
:1055E0002C60FFF78FFEB9F1000F0BD054B12046AD
:1055F000FFF71EFE424649460290FBF712F802A84A
:10560000FFF780FE2046BDE8FE8338B50D460188D1
:105610000024A94209D9406838B1FFF709FE00907B
:1056200050F825406846FFF76DFE204638BD10B59E
:105630000024FFF7EAFF10B1FFF7FAFD0446204609
:1056400010BD70B50C46054601F0EAFAC1B223461A
:105650002846BDE870400022AFF30080F0B52D274A
:105660001C68B0F1004F08D0002600280DDA651C38
:105670001D6027704042012408E0651C01261D6062
:105680006FF000402770491E01E00024091BC9B2D9
:105690002AB3491EC9B222E00C46491EC9B294423F
:1056A00005D1124C27781C68651C1D602770104CB2
:1056B00054F8215090FBF5F4E4B20A2C11D804FB05
:1056C000150011B90EB1641CE4B20A2C02D10124F8
:1056D000491CC9B21D686F1C30341F602C70002932
:1056E000DAD1196800200870F0BD0000C40700205E
:1056F00044130C0810B5002807DD0A682B24531C3E
:105700000B601470096800220A7010BD10B50446C1
:1057100001F050FA044904EB840001EB8000447965
:1057200003F0EAF8204610BD5CE80020024800685B
:10573000407C00F003B80000D007002070B505469B
:1057400001F038FA124805EB850100EB81040026D0
:105750006671236953B150F82100E268816840689E
:10576000521AA168091A184602F00FFB284601F0E8
:1057700055F918B1002102F081FC04E0207918B13C
:10578000206902F0ACFA2671BDE8704003F0B4B8AD
:105790005CE8002002490968497C00F003B8000079
:1057A000D00700202DE9FC5F8946044601F002FA8B
:1057B000484601F033F92C4E09EB8907824656F82A
:1057C0002700019029484FF00108016841B9274995
:1057D000C0F80080091D26480860084604F078F8E3
:1057E000214A09EB89015FEA0A0002EB81051BD01F
:1057F00002F076FB83464FF07F4002F0C9FB00F0D9
:10580000C1F800221146206800F07AFC2068428826
:105810000188504602F022FC46F8274085F80580B2
:10582000584602F05DFB17E046F8274085F80580F2
:105830002869464618B102F02DFA0020286174B19B
:105840000096E868A1684B46421AA8686168411A48
:10585000206802F0CFFA286148461FF087FB03F06A
:105860004BF80198BDE8FC9F5CE80020140800207C
:1058700099180208024A1268527C00F003B800002E
:10588000D007002070B514460D46064601F092F987
:10589000204601F0C3F80300174804EB840109D047
:1058A00050F8210041688068711A2A1A184602F0DF
:1058B000C5FB1CE000EB8104A268B24201D00122CA
:1058C00000E00022E368AB4201D0012300E00023A6
:1058D0001A430CD0236943B150F821008168406815
:1058E0006A1A311A184602F050FAC4E90265BDE896
:1058F000704003F001B800005CE800200248006836
:10590000407C00F003B80000D007002010B504462A
:1059100001F050F90A4804EB840100EB81030122F5
:105920005A7150F8210030B120461FF01FFBBDE82E
:10593000104002F0E1BF21460248FFF733FFF6E7CF
:105940005CE8002054B40B0810B5C2B2CBB2D21A36
:1059500000D5524293B25B43C0F30722C1F3072440
:10596000121B00D55242000C92B2A0EB114002FB78
:10597000023200B2002801DA404200B280B200FBDD
:10598000002010BD10B50021084601F0E5F843F6EF
:10599000FF725042BDE8104013460146AFF300804D
:1059A0002DE9FC411C4615460E46074601F002F95A
:1059B000042007F051FB80461248C068C16C006D9E
:1059C0000F4406440D440444ADF80070ADF8045093
:1059D000ADF80260ADF8064068460FF0F5FF07E04D
:1059E00023462A463146384606F03AFE0FF066FF57
:1059F0000028F5D1404607F02FFB02F07DFFBDE8FF
:105A0000FC810000C4070020B0F90630B0F9042082
:105A1000B0F90210B0F90000FFF7C2BF10B504469C
:105A200001F0C8F8204606F09FFA044602F064FF31
:105A3000204610BD2DE9F8431C00DDE90898164604
:105A40000F46054602D10EF075FD044600962E68FD
:105A500043464A4621462846B047060039D00EF054
:105A60005EFD8146698A30460EF0B6F930460FF089
:105A7000EFFD48460FF0ECFD4FF000080CE000BFD2
:105A8000CDF8008055F81CCF00231A464946284619
:105A9000E04700B30FF0DCFD7F1E002FF0DC1D217E
:105AA00048460FF0F6FB601C12D001F083F80EF0B0
:105AB00085FD30B1FFF73EFC8469B44201D020007F
:105AC000F8D1B44202D030460FF0F4FC02F014FFDB
:105AD0003046BDE8F88330460EF004FC0020F8E7BD
